{
	"VestingFlatten.sol": {
		"Vesting": {
			"abi": [
				{
					"inputs": [],
					"stateMutability": "nonpayable",
					"type": "constructor"
				},
				{
					"anonymous": false,
					"inputs": [
						{
							"indexed": false,
							"internalType": "address",
							"name": "addr",
							"type": "address"
						},
						{
							"indexed": false,
							"internalType": "uint8",
							"name": "vestingType",
							"type": "uint8"
						},
						{
							"indexed": false,
							"internalType": "uint256",
							"name": "balance",
							"type": "uint256"
						}
					],
					"name": "AddVestingEvent",
					"type": "event"
				},
				{
					"anonymous": false,
					"inputs": [
						{
							"indexed": false,
							"internalType": "address",
							"name": "addr",
							"type": "address"
						},
						{
							"indexed": false,
							"internalType": "uint8",
							"name": "vestingType",
							"type": "uint8"
						},
						{
							"indexed": false,
							"internalType": "uint256",
							"name": "balance",
							"type": "uint256"
						}
					],
					"name": "ClaimEvent",
					"type": "event"
				},
				{
					"anonymous": false,
					"inputs": [
						{
							"indexed": true,
							"internalType": "address",
							"name": "previousOwner",
							"type": "address"
						},
						{
							"indexed": true,
							"internalType": "address",
							"name": "newOwner",
							"type": "address"
						}
					],
					"name": "OwnershipTransferred",
					"type": "event"
				},
				{
					"inputs": [
						{
							"internalType": "uint8",
							"name": "vestingType",
							"type": "uint8"
						},
						{
							"internalType": "uint256",
							"name": "totalBalance",
							"type": "uint256"
						},
						{
							"internalType": "uint256",
							"name": "claimedBalance",
							"type": "uint256"
						},
						{
							"internalType": "uint256",
							"name": "time",
							"type": "uint256"
						}
					],
					"name": "_getClaimableBalance",
					"outputs": [
						{
							"internalType": "uint256",
							"name": "",
							"type": "uint256"
						}
					],
					"stateMutability": "view",
					"type": "function"
				},
				{
					"inputs": [
						{
							"internalType": "uint8",
							"name": "vestingType",
							"type": "uint8"
						},
						{
							"internalType": "uint256",
							"name": "balance",
							"type": "uint256"
						},
						{
							"internalType": "address",
							"name": "addr",
							"type": "address"
						}
					],
					"name": "add",
					"outputs": [],
					"stateMutability": "nonpayable",
					"type": "function"
				},
				{
					"inputs": [],
					"name": "claim",
					"outputs": [],
					"stateMutability": "nonpayable",
					"type": "function"
				},
				{
					"inputs": [],
					"name": "dstAddress",
					"outputs": [
						{
							"internalType": "address",
							"name": "",
							"type": "address"
						}
					],
					"stateMutability": "view",
					"type": "function"
				},
				{
					"inputs": [
						{
							"internalType": "address",
							"name": "addr",
							"type": "address"
						}
					],
					"name": "getClaimableBalance",
					"outputs": [
						{
							"internalType": "uint256",
							"name": "",
							"type": "uint256"
						}
					],
					"stateMutability": "view",
					"type": "function"
				},
				{
					"inputs": [
						{
							"internalType": "address",
							"name": "addr",
							"type": "address"
						}
					],
					"name": "getVestingAccountInfo",
					"outputs": [
						{
							"components": [
								{
									"internalType": "uint8",
									"name": "vestingType",
									"type": "uint8"
								},
								{
									"internalType": "uint256",
									"name": "totalBalance",
									"type": "uint256"
								},
								{
									"internalType": "uint256",
									"name": "claimedBalance",
									"type": "uint256"
								},
								{
									"internalType": "uint256",
									"name": "createdTime",
									"type": "uint256"
								},
								{
									"internalType": "uint256",
									"name": "lastClaimedTime",
									"type": "uint256"
								}
							],
							"internalType": "struct Vesting.VestingAccountInfo",
							"name": "",
							"type": "tuple"
						}
					],
					"stateMutability": "view",
					"type": "function"
				},
				{
					"inputs": [
						{
							"internalType": "uint8",
							"name": "vestingType",
							"type": "uint8"
						}
					],
					"name": "getVestingInfo",
					"outputs": [
						{
							"components": [
								{
									"internalType": "uint256",
									"name": "startTime",
									"type": "uint256"
								},
								{
									"internalType": "uint8",
									"name": "vestingStartMonth",
									"type": "uint8"
								},
								{
									"internalType": "uint256",
									"name": "totalBalance",
									"type": "uint256"
								},
								{
									"internalType": "uint256",
									"name": "addedBalance",
									"type": "uint256"
								},
								{
									"internalType": "uint256",
									"name": "claimedBalance",
									"type": "uint256"
								},
								{
									"internalType": "uint16",
									"name": "initialBp",
									"type": "uint16"
								},
								{
									"internalType": "uint16",
									"name": "periodBp",
									"type": "uint16"
								}
							],
							"internalType": "struct Vesting.VestingInfo",
							"name": "",
							"type": "tuple"
						}
					],
					"stateMutability": "view",
					"type": "function"
				},
				{
					"inputs": [],
					"name": "owner",
					"outputs": [
						{
							"internalType": "address",
							"name": "",
							"type": "address"
						}
					],
					"stateMutability": "view",
					"type": "function"
				},
				{
					"inputs": [],
					"name": "renounceOwnership",
					"outputs": [],
					"stateMutability": "nonpayable",
					"type": "function"
				},
				{
					"inputs": [
						{
							"internalType": "address",
							"name": "addr",
							"type": "address"
						}
					],
					"name": "setDSTAddress",
					"outputs": [],
					"stateMutability": "nonpayable",
					"type": "function"
				},
				{
					"inputs": [
						{
							"internalType": "uint8",
							"name": "vestingType",
							"type": "uint8"
						},
						{
							"internalType": "uint256",
							"name": "timestamp",
							"type": "uint256"
						}
					],
					"name": "setStartTime",
					"outputs": [],
					"stateMutability": "nonpayable",
					"type": "function"
				},
				{
					"inputs": [
						{
							"internalType": "address",
							"name": "newOwner",
							"type": "address"
						}
					],
					"name": "transferOwnership",
					"outputs": [],
					"stateMutability": "nonpayable",
					"type": "function"
				},
				{
					"inputs": [
						{
							"internalType": "address",
							"name": "",
							"type": "address"
						}
					],
					"name": "vestingAccountInfos",
					"outputs": [
						{
							"internalType": "uint8",
							"name": "vestingType",
							"type": "uint8"
						},
						{
							"internalType": "uint256",
							"name": "totalBalance",
							"type": "uint256"
						},
						{
							"internalType": "uint256",
							"name": "claimedBalance",
							"type": "uint256"
						},
						{
							"internalType": "uint256",
							"name": "createdTime",
							"type": "uint256"
						},
						{
							"internalType": "uint256",
							"name": "lastClaimedTime",
							"type": "uint256"
						}
					],
					"stateMutability": "view",
					"type": "function"
				},
				{
					"inputs": [
						{
							"internalType": "uint8",
							"name": "",
							"type": "uint8"
						}
					],
					"name": "vestingInfos",
					"outputs": [
						{
							"internalType": "uint256",
							"name": "startTime",
							"type": "uint256"
						},
						{
							"internalType": "uint8",
							"name": "vestingStartMonth",
							"type": "uint8"
						},
						{
							"internalType": "uint256",
							"name": "totalBalance",
							"type": "uint256"
						},
						{
							"internalType": "uint256",
							"name": "addedBalance",
							"type": "uint256"
						},
						{
							"internalType": "uint256",
							"name": "claimedBalance",
							"type": "uint256"
						},
						{
							"internalType": "uint16",
							"name": "initialBp",
							"type": "uint16"
						},
						{
							"internalType": "uint16",
							"name": "periodBp",
							"type": "uint16"
						}
					],
					"stateMutability": "view",
					"type": "function"
				}
			],
			"devdoc": {
				"kind": "dev",
				"methods": {
					"owner()": {
						"details": "Returns the address of the current owner."
					},
					"renounceOwnership()": {
						"details": "Leaves the contract without owner. It will not be possible to call `onlyOwner` functions anymore. Can only be called by the current owner. NOTE: Renouncing ownership will leave the contract without an owner, thereby removing any functionality that is only available to the owner."
					},
					"transferOwnership(address)": {
						"details": "Transfers ownership of the contract to a new account (`newOwner`). Can only be called by the current owner."
					}
				},
				"version": 1
			},
			"evm": {
				"assembly": "    /* \"VestingFlatten.sol\":6374:15112  contract Vesting is Ownable {... */\n  mstore(0x40, 0x80)\n    /* \"VestingFlatten.sol\":7650:9238  constructor() {... */\n  callvalue\n  dup1\n  iszero\n  tag_1\n  jumpi\n  0x00\n  dup1\n  revert\ntag_1:\n  pop\n    /* \"VestingFlatten.sol\":4628:4660  _transferOwnership(_msgSender()) */\n  tag_5\n    /* \"VestingFlatten.sol\":4647:4659  _msgSender() */\n  tag_6\n    /* \"VestingFlatten.sol\":4647:4657  _msgSender */\n  shl(0x20, tag_7)\n    /* \"VestingFlatten.sol\":4647:4659  _msgSender() */\n  0x20\n  shr\n  jump\t// in\ntag_6:\n    /* \"VestingFlatten.sol\":4628:4646  _transferOwnership */\n  shl(0x20, tag_8)\n    /* \"VestingFlatten.sol\":4628:4660  _transferOwnership(_msgSender()) */\n  0x20\n  shr\n  jump\t// in\ntag_5:\n    /* \"VestingFlatten.sol\":7718:8076  VestingInfo({... */\n  mload(0x40)\n  dup1\n  0xe0\n  add\n  0x40\n  mstore\n  dup1\n    /* \"VestingFlatten.sol\":7749:7750  0 */\n  0x00\n    /* \"VestingFlatten.sol\":7718:8076  VestingInfo({... */\n  dup2\n  mstore\n  0x20\n  add\n    /* \"VestingFlatten.sol\":7777:7778  6 */\n  0x06\n    /* \"VestingFlatten.sol\":7718:8076  VestingInfo({... */\n  0xff\n  and\n  dup2\n  mstore\n  0x20\n  add\n    /* \"VestingFlatten.sol\":7832:7852  165000000 * 10 ** 18 */\n  0x887c1bec4a1528c5000000\n    /* \"VestingFlatten.sol\":7718:8076  VestingInfo({... */\n  dup2\n  mstore\n  0x20\n  add\n    /* \"VestingFlatten.sol\":7874:7875  0 */\n  0x00\n    /* \"VestingFlatten.sol\":7718:8076  VestingInfo({... */\n  dup2\n  mstore\n  0x20\n  add\n    /* \"VestingFlatten.sol\":7899:7900  0 */\n  0x00\n    /* \"VestingFlatten.sol\":7718:8076  VestingInfo({... */\n  dup2\n  mstore\n  0x20\n  add\n    /* \"VestingFlatten.sol\":7985:7988  500 */\n  0x01f4\n    /* \"VestingFlatten.sol\":7718:8076  VestingInfo({... */\n  0xffff\n  and\n  dup2\n  mstore\n  0x20\n  add\n    /* \"VestingFlatten.sol\":8066:8069  400 */\n  0x0190\n    /* \"VestingFlatten.sol\":7718:8076  VestingInfo({... */\n  0xffff\n  and\n  dup2\n  mstore\n  pop\n    /* \"VestingFlatten.sol\":7670:7682  vestingInfos */\n  0x02\n    /* \"VestingFlatten.sol\":7670:7715  vestingInfos[uint8(VestingType.PRIVATE_SALE)] */\n  0x00\n    /* \"VestingFlatten.sol\":7689:7713  VestingType.PRIVATE_SALE */\n  dup1\n    /* \"VestingFlatten.sol\":7683:7714  uint8(VestingType.PRIVATE_SALE) */\n  0x03\n  dup2\n  gt\n  iszero\n  tag_10\n  jumpi\n  tag_11\n  tag_12\n  jump\t// in\ntag_11:\ntag_10:\n    /* \"VestingFlatten.sol\":7670:7715  vestingInfos[uint8(VestingType.PRIVATE_SALE)] */\n  0xff\n  and\n  0xff\n  and\n  dup2\n  mstore\n  0x20\n  add\n  swap1\n  dup2\n  mstore\n  0x20\n  add\n  0x00\n  keccak256\n    /* \"VestingFlatten.sol\":7670:8076  vestingInfos[uint8(VestingType.PRIVATE_SALE)] = VestingInfo({... */\n  0x00\n  dup3\n  add\n  mload\n  dup2\n  0x00\n  add\n  sstore\n  0x20\n  dup3\n  add\n  mload\n  dup2\n  0x01\n  add\n  exp(0x0100, 0x00)\n  dup2\n  sload\n  dup2\n  0xff\n  mul\n  not\n  and\n  swap1\n  dup4\n  0xff\n  and\n  mul\n  or\n  swap1\n  sstore\n  pop\n  0x40\n  dup3\n  add\n  mload\n  dup2\n  0x02\n  add\n  sstore\n  0x60\n  dup3\n  add\n  mload\n  dup2\n  0x03\n  add\n  sstore\n  0x80\n  dup3\n  add\n  mload\n  dup2\n  0x04\n  add\n  sstore\n  0xa0\n  dup3\n  add\n  mload\n  dup2\n  0x05\n  add\n  exp(0x0100, 0x00)\n  dup2\n  sload\n  dup2\n  0xffff\n  mul\n  not\n  and\n  swap1\n  dup4\n  0xffff\n  and\n  mul\n  or\n  swap1\n  sstore\n  pop\n  0xc0\n  dup3\n  add\n  mload\n  dup2\n  0x05\n  add\n  exp(0x0100, 0x02)\n  dup2\n  sload\n  dup2\n  0xffff\n  mul\n  not\n  and\n  swap1\n  dup4\n  0xffff\n  and\n  mul\n  or\n  swap1\n  sstore\n  pop\n  swap1\n  pop\n  pop\n    /* \"VestingFlatten.sol\":8123:8421  VestingInfo({... */\n  mload(0x40)\n  dup1\n  0xe0\n  add\n  0x40\n  mstore\n  dup1\n    /* \"VestingFlatten.sol\":8154:8155  0 */\n  0x00\n    /* \"VestingFlatten.sol\":8123:8421  VestingInfo({... */\n  dup2\n  mstore\n  0x20\n  add\n    /* \"VestingFlatten.sol\":8182:8184  12 */\n  0x0c\n    /* \"VestingFlatten.sol\":8123:8421  VestingInfo({... */\n  0xff\n  and\n  dup2\n  mstore\n  0x20\n  add\n    /* \"VestingFlatten.sol\":8234:8253  80000000 * 10 ** 18 */\n  0x422ca8b0a00a4250000000\n    /* \"VestingFlatten.sol\":8123:8421  VestingInfo({... */\n  dup2\n  mstore\n  0x20\n  add\n    /* \"VestingFlatten.sol\":8275:8276  0 */\n  0x00\n    /* \"VestingFlatten.sol\":8123:8421  VestingInfo({... */\n  dup2\n  mstore\n  0x20\n  add\n    /* \"VestingFlatten.sol\":8300:8301  0 */\n  0x00\n    /* \"VestingFlatten.sol\":8123:8421  VestingInfo({... */\n  dup2\n  mstore\n  0x20\n  add\n    /* \"VestingFlatten.sol\":8332:8333  0 */\n  0x00\n    /* \"VestingFlatten.sol\":8123:8421  VestingInfo({... */\n  0xffff\n  and\n  dup2\n  mstore\n  0x20\n  add\n    /* \"VestingFlatten.sol\":8411:8414  280 */\n  0x0118\n    /* \"VestingFlatten.sol\":8123:8421  VestingInfo({... */\n  0xffff\n  and\n  dup2\n  mstore\n  pop\n    /* \"VestingFlatten.sol\":8083:8095  vestingInfos */\n  0x02\n    /* \"VestingFlatten.sol\":8083:8120  vestingInfos[uint8(VestingType.TEAM)] */\n  0x00\n    /* \"VestingFlatten.sol\":8102:8118  VestingType.TEAM */\n  0x01\n    /* \"VestingFlatten.sol\":8096:8119  uint8(VestingType.TEAM) */\n  0x03\n  dup2\n  gt\n  iszero\n  tag_13\n  jumpi\n  tag_14\n  tag_12\n  jump\t// in\ntag_14:\ntag_13:\n    /* \"VestingFlatten.sol\":8083:8120  vestingInfos[uint8(VestingType.TEAM)] */\n  0xff\n  and\n  0xff\n  and\n  dup2\n  mstore\n  0x20\n  add\n  swap1\n  dup2\n  mstore\n  0x20\n  add\n  0x00\n  keccak256\n    /* \"VestingFlatten.sol\":8083:8421  vestingInfos[uint8(VestingType.TEAM)] = VestingInfo({... */\n  0x00\n  dup3\n  add\n  mload\n  dup2\n  0x00\n  add\n  sstore\n  0x20\n  dup3\n  add\n  mload\n  dup2\n  0x01\n  add\n  exp(0x0100, 0x00)\n  dup2\n  sload\n  dup2\n  0xff\n  mul\n  not\n  and\n  swap1\n  dup4\n  0xff\n  and\n  mul\n  or\n  swap1\n  sstore\n  pop\n  0x40\n  dup3\n  add\n  mload\n  dup2\n  0x02\n  add\n  sstore\n  0x60\n  dup3\n  add\n  mload\n  dup2\n  0x03\n  add\n  sstore\n  0x80\n  dup3\n  add\n  mload\n  dup2\n  0x04\n  add\n  sstore\n  0xa0\n  dup3\n  add\n  mload\n  dup2\n  0x05\n  add\n  exp(0x0100, 0x00)\n  dup2\n  sload\n  dup2\n  0xffff\n  mul\n  not\n  and\n  swap1\n  dup4\n  0xffff\n  and\n  mul\n  or\n  swap1\n  sstore\n  pop\n  0xc0\n  dup3\n  add\n  mload\n  dup2\n  0x05\n  add\n  exp(0x0100, 0x02)\n  dup2\n  sload\n  dup2\n  0xffff\n  mul\n  not\n  and\n  swap1\n  dup4\n  0xffff\n  and\n  mul\n  or\n  swap1\n  sstore\n  pop\n  swap1\n  pop\n  pop\n    /* \"VestingFlatten.sol\":8473:8830  VestingInfo({... */\n  mload(0x40)\n  dup1\n  0xe0\n  add\n  0x40\n  mstore\n  dup1\n    /* \"VestingFlatten.sol\":8504:8505  0 */\n  0x00\n    /* \"VestingFlatten.sol\":8473:8830  VestingInfo({... */\n  dup2\n  mstore\n  0x20\n  add\n    /* \"VestingFlatten.sol\":8532:8533  0 */\n  0x00\n    /* \"VestingFlatten.sol\":8473:8830  VestingInfo({... */\n  0xff\n  and\n  dup2\n  mstore\n  0x20\n  add\n    /* \"VestingFlatten.sol\":8585:8604  55000000 * 10 ** 18 */\n  0x2d7eb3f96e070d97000000\n    /* \"VestingFlatten.sol\":8473:8830  VestingInfo({... */\n  dup2\n  mstore\n  0x20\n  add\n    /* \"VestingFlatten.sol\":8626:8627  0 */\n  0x00\n    /* \"VestingFlatten.sol\":8473:8830  VestingInfo({... */\n  dup2\n  mstore\n  0x20\n  add\n    /* \"VestingFlatten.sol\":8651:8652  0 */\n  0x00\n    /* \"VestingFlatten.sol\":8473:8830  VestingInfo({... */\n  dup2\n  mstore\n  0x20\n  add\n    /* \"VestingFlatten.sol\":8734:8738  1000 */\n  0x03e8\n    /* \"VestingFlatten.sol\":8473:8830  VestingInfo({... */\n  0xffff\n  and\n  dup2\n  mstore\n  0x20\n  add\n    /* \"VestingFlatten.sol\":8819:8823  1000 */\n  0x03e8\n    /* \"VestingFlatten.sol\":8473:8830  VestingInfo({... */\n  0xffff\n  and\n  dup2\n  mstore\n  pop\n    /* \"VestingFlatten.sol\":8428:8440  vestingInfos */\n  0x02\n    /* \"VestingFlatten.sol\":8428:8470  vestingInfos[uint8(VestingType.MARKETING)] */\n  0x00\n    /* \"VestingFlatten.sol\":8447:8468  VestingType.MARKETING */\n  0x02\n    /* \"VestingFlatten.sol\":8441:8469  uint8(VestingType.MARKETING) */\n  0x03\n  dup2\n  gt\n  iszero\n  tag_15\n  jumpi\n  tag_16\n  tag_12\n  jump\t// in\ntag_16:\ntag_15:\n    /* \"VestingFlatten.sol\":8428:8470  vestingInfos[uint8(VestingType.MARKETING)] */\n  0xff\n  and\n  0xff\n  and\n  dup2\n  mstore\n  0x20\n  add\n  swap1\n  dup2\n  mstore\n  0x20\n  add\n  0x00\n  keccak256\n    /* \"VestingFlatten.sol\":8428:8830  vestingInfos[uint8(VestingType.MARKETING)] = VestingInfo({... */\n  0x00\n  dup3\n  add\n  mload\n  dup2\n  0x00\n  add\n  sstore\n  0x20\n  dup3\n  add\n  mload\n  dup2\n  0x01\n  add\n  exp(0x0100, 0x00)\n  dup2\n  sload\n  dup2\n  0xff\n  mul\n  not\n  and\n  swap1\n  dup4\n  0xff\n  and\n  mul\n  or\n  swap1\n  sstore\n  pop\n  0x40\n  dup3\n  add\n  mload\n  dup2\n  0x02\n  add\n  sstore\n  0x60\n  dup3\n  add\n  mload\n  dup2\n  0x03\n  add\n  sstore\n  0x80\n  dup3\n  add\n  mload\n  dup2\n  0x04\n  add\n  sstore\n  0xa0\n  dup3\n  add\n  mload\n  dup2\n  0x05\n  add\n  exp(0x0100, 0x00)\n  dup2\n  sload\n  dup2\n  0xffff\n  mul\n  not\n  and\n  swap1\n  dup4\n  0xffff\n  and\n  mul\n  or\n  swap1\n  sstore\n  pop\n  0xc0\n  dup3\n  add\n  mload\n  dup2\n  0x05\n  add\n  exp(0x0100, 0x02)\n  dup2\n  sload\n  dup2\n  0xffff\n  mul\n  not\n  and\n  swap1\n  dup4\n  0xffff\n  and\n  mul\n  or\n  swap1\n  sstore\n  pop\n  swap1\n  pop\n  pop\n    /* \"VestingFlatten.sol\":8881:9233  VestingInfo({... */\n  mload(0x40)\n  dup1\n  0xe0\n  add\n  0x40\n  mstore\n  dup1\n    /* \"VestingFlatten.sol\":8912:8913  0 */\n  0x00\n    /* \"VestingFlatten.sol\":8881:9233  VestingInfo({... */\n  dup2\n  mstore\n  0x20\n  add\n    /* \"VestingFlatten.sol\":8940:8941  1 */\n  0x01\n    /* \"VestingFlatten.sol\":8881:9233  VestingInfo({... */\n  0xff\n  and\n  dup2\n  mstore\n  0x20\n  add\n    /* \"VestingFlatten.sol\":8992:9012  290000000 * 10 ** 18 */\n  0xefe1e38044253062000000\n    /* \"VestingFlatten.sol\":8881:9233  VestingInfo({... */\n  dup2\n  mstore\n  0x20\n  add\n    /* \"VestingFlatten.sol\":9034:9035  0 */\n  0x00\n    /* \"VestingFlatten.sol\":8881:9233  VestingInfo({... */\n  dup2\n  mstore\n  0x20\n  add\n    /* \"VestingFlatten.sol\":9059:9060  0 */\n  0x00\n    /* \"VestingFlatten.sol\":8881:9233  VestingInfo({... */\n  dup2\n  mstore\n  0x20\n  add\n    /* \"VestingFlatten.sol\":9140:9144  1000 */\n  0x03e8\n    /* \"VestingFlatten.sol\":8881:9233  VestingInfo({... */\n  0xffff\n  and\n  dup2\n  mstore\n  0x20\n  add\n    /* \"VestingFlatten.sol\":9223:9226  100 */\n  0x64\n    /* \"VestingFlatten.sol\":8881:9233  VestingInfo({... */\n  0xffff\n  and\n  dup2\n  mstore\n  pop\n    /* \"VestingFlatten.sol\":8837:8849  vestingInfos */\n  0x02\n    /* \"VestingFlatten.sol\":8837:8878  vestingInfos[uint8(VestingType.TREASURY)] */\n  0x00\n    /* \"VestingFlatten.sol\":8856:8876  VestingType.TREASURY */\n  0x03\n    /* \"VestingFlatten.sol\":8850:8877  uint8(VestingType.TREASURY) */\n  dup1\n  dup2\n  gt\n  iszero\n  tag_17\n  jumpi\n  tag_18\n  tag_12\n  jump\t// in\ntag_18:\ntag_17:\n    /* \"VestingFlatten.sol\":8837:8878  vestingInfos[uint8(VestingType.TREASURY)] */\n  0xff\n  and\n  0xff\n  and\n  dup2\n  mstore\n  0x20\n  add\n  swap1\n  dup2\n  mstore\n  0x20\n  add\n  0x00\n  keccak256\n    /* \"VestingFlatten.sol\":8837:9233  vestingInfos[uint8(VestingType.TREASURY)] = VestingInfo({... */\n  0x00\n  dup3\n  add\n  mload\n  dup2\n  0x00\n  add\n  sstore\n  0x20\n  dup3\n  add\n  mload\n  dup2\n  0x01\n  add\n  exp(0x0100, 0x00)\n  dup2\n  sload\n  dup2\n  0xff\n  mul\n  not\n  and\n  swap1\n  dup4\n  0xff\n  and\n  mul\n  or\n  swap1\n  sstore\n  pop\n  0x40\n  dup3\n  add\n  mload\n  dup2\n  0x02\n  add\n  sstore\n  0x60\n  dup3\n  add\n  mload\n  dup2\n  0x03\n  add\n  sstore\n  0x80\n  dup3\n  add\n  mload\n  dup2\n  0x04\n  add\n  sstore\n  0xa0\n  dup3\n  add\n  mload\n  dup2\n  0x05\n  add\n  exp(0x0100, 0x00)\n  dup2\n  sload\n  dup2\n  0xffff\n  mul\n  not\n  and\n  swap1\n  dup4\n  0xffff\n  and\n  mul\n  or\n  swap1\n  sstore\n  pop\n  0xc0\n  dup3\n  add\n  mload\n  dup2\n  0x05\n  add\n  exp(0x0100, 0x02)\n  dup2\n  sload\n  dup2\n  0xffff\n  mul\n  not\n  and\n  swap1\n  dup4\n  0xffff\n  and\n  mul\n  or\n  swap1\n  sstore\n  pop\n  swap1\n  pop\n  pop\n    /* \"VestingFlatten.sol\":6374:15112  contract Vesting is Ownable {... */\n  jump(tag_19)\n    /* \"VestingFlatten.sol\":3498:3594  function _msgSender() internal view virtual returns (address) {... */\ntag_7:\n    /* \"VestingFlatten.sol\":3551:3558  address */\n  0x00\n    /* \"VestingFlatten.sol\":3577:3587  msg.sender */\n  caller\n    /* \"VestingFlatten.sol\":3570:3587  return msg.sender */\n  swap1\n  pop\n    /* \"VestingFlatten.sol\":3498:3594  function _msgSender() internal view virtual returns (address) {... */\n  swap1\n  jump\t// out\n    /* \"VestingFlatten.sol\":6125:6312  function _transferOwnership(address newOwner) internal virtual {... */\ntag_8:\n    /* \"VestingFlatten.sol\":6198:6214  address oldOwner */\n  0x00\n    /* \"VestingFlatten.sol\":6217:6223  _owner */\n  dup1\n  0x00\n  swap1\n  sload\n  swap1\n  0x0100\n  exp\n  swap1\n  div\n  0xffffffffffffffffffffffffffffffffffffffff\n  and\n    /* \"VestingFlatten.sol\":6198:6223  address oldOwner = _owner */\n  swap1\n  pop\n    /* \"VestingFlatten.sol\":6242:6250  newOwner */\n  dup2\n    /* \"VestingFlatten.sol\":6233:6239  _owner */\n  0x00\n  dup1\n    /* \"VestingFlatten.sol\":6233:6250  _owner = newOwner */\n  0x0100\n  exp\n  dup2\n  sload\n  dup2\n  0xffffffffffffffffffffffffffffffffffffffff\n  mul\n  not\n  and\n  swap1\n  dup4\n  0xffffffffffffffffffffffffffffffffffffffff\n  and\n  mul\n  or\n  swap1\n  sstore\n  pop\n    /* \"VestingFlatten.sol\":6296:6304  newOwner */\n  dup2\n    /* \"VestingFlatten.sol\":6265:6305  OwnershipTransferred(oldOwner, newOwner) */\n  0xffffffffffffffffffffffffffffffffffffffff\n  and\n    /* \"VestingFlatten.sol\":6286:6294  oldOwner */\n  dup2\n    /* \"VestingFlatten.sol\":6265:6305  OwnershipTransferred(oldOwner, newOwner) */\n  0xffffffffffffffffffffffffffffffffffffffff\n  and\n  0x8be0079c531659141344cd1fd0a4f28419497f9722a3daafe3b4186f6b6457e0\n  mload(0x40)\n  mload(0x40)\n  dup1\n  swap2\n  sub\n  swap1\n  log3\n    /* \"VestingFlatten.sol\":6188:6312  {... */\n  pop\n    /* \"VestingFlatten.sol\":6125:6312  function _transferOwnership(address newOwner) internal virtual {... */\n  pop\n  jump\t// out\n    /* \"#utility.yul\":7:187   */\ntag_12:\n    /* \"#utility.yul\":55:132   */\n  0x4e487b7100000000000000000000000000000000000000000000000000000000\n    /* \"#utility.yul\":52:53   */\n  0x00\n    /* \"#utility.yul\":45:133   */\n  mstore\n    /* \"#utility.yul\":152:156   */\n  0x21\n    /* \"#utility.yul\":149:150   */\n  0x04\n    /* \"#utility.yul\":142:157   */\n  mstore\n    /* \"#utility.yul\":176:180   */\n  0x24\n    /* \"#utility.yul\":173:174   */\n  0x00\n    /* \"#utility.yul\":166:181   */\n  revert\n    /* \"VestingFlatten.sol\":6374:15112  contract Vesting is Ownable {... */\ntag_19:\n  dataSize(sub_0)\n  dup1\n  dataOffset(sub_0)\n  0x00\n  codecopy\n  0x00\n  return\nstop\n\nsub_0: assembly {\n        /* \"VestingFlatten.sol\":6374:15112  contract Vesting is Ownable {... */\n      mstore(0x40, 0x80)\n      callvalue\n      dup1\n      iszero\n      tag_1\n      jumpi\n      0x00\n      dup1\n      revert\n    tag_1:\n      pop\n      jumpi(tag_2, lt(calldatasize, 0x04))\n      shr(0xe0, calldataload(0x00))\n      dup1\n      0x6f522095\n      gt\n      tag_17\n      jumpi\n      dup1\n      0x938e3af3\n      gt\n      tag_18\n      jumpi\n      dup1\n      0x938e3af3\n      eq\n      tag_13\n      jumpi\n      dup1\n      0xe4c255d5\n      eq\n      tag_14\n      jumpi\n      dup1\n      0xef409991\n      eq\n      tag_15\n      jumpi\n      dup1\n      0xf2fde38b\n      eq\n      tag_16\n      jumpi\n      jump(tag_2)\n    tag_18:\n      dup1\n      0x6f522095\n      eq\n      tag_10\n      jumpi\n      dup1\n      0x715018a6\n      eq\n      tag_11\n      jumpi\n      dup1\n      0x8da5cb5b\n      eq\n      tag_12\n      jumpi\n      jump(tag_2)\n    tag_17:\n      dup1\n      0x43a1696c\n      gt\n      tag_19\n      jumpi\n      dup1\n      0x43a1696c\n      eq\n      tag_6\n      jumpi\n      dup1\n      0x44957cf3\n      eq\n      tag_7\n      jumpi\n      dup1\n      0x4e71d92d\n      eq\n      tag_8\n      jumpi\n      dup1\n      0x6a2226ec\n      eq\n      tag_9\n      jumpi\n      jump(tag_2)\n    tag_19:\n      dup1\n      0x06def802\n      eq\n      tag_3\n      jumpi\n      dup1\n      0x08c0fc89\n      eq\n      tag_4\n      jumpi\n      dup1\n      0x35cb5a33\n      eq\n      tag_5\n      jumpi\n    tag_2:\n      0x00\n      dup1\n      revert\n        /* \"VestingFlatten.sol\":12707:13063  function getClaimableBalance(address addr) public view returns (uint256) {... */\n    tag_3:\n      tag_20\n      0x04\n      dup1\n      calldatasize\n      sub\n      dup2\n      add\n      swap1\n      tag_21\n      swap2\n      swap1\n      tag_22\n      jump\t// in\n    tag_21:\n      tag_23\n      jump\t// in\n    tag_20:\n      mload(0x40)\n      tag_24\n      swap2\n      swap1\n      tag_25\n      jump\t// in\n    tag_24:\n      mload(0x40)\n      dup1\n      swap2\n      sub\n      swap1\n      return\n        /* \"VestingFlatten.sol\":14688:14970  function getVestingInfo(uint8 vestingType) public view returns (VestingInfo memory) {... */\n    tag_4:\n      tag_26\n      0x04\n      dup1\n      calldatasize\n      sub\n      dup2\n      add\n      swap1\n      tag_27\n      swap2\n      swap1\n      tag_28\n      jump\t// in\n    tag_27:\n      tag_29\n      jump\t// in\n    tag_26:\n      mload(0x40)\n      tag_30\n      swap2\n      swap1\n      tag_31\n      jump\t// in\n    tag_30:\n      mload(0x40)\n      dup1\n      swap2\n      sub\n      swap1\n      return\n        /* \"VestingFlatten.sol\":14974:15110  function getVestingAccountInfo(address addr) public view returns (VestingAccountInfo memory) {... */\n    tag_5:\n      tag_32\n      0x04\n      dup1\n      calldatasize\n      sub\n      dup2\n      add\n      swap1\n      tag_33\n      swap2\n      swap1\n      tag_22\n      jump\t// in\n    tag_33:\n      tag_34\n      jump\t// in\n    tag_32:\n      mload(0x40)\n      tag_35\n      swap2\n      swap1\n      tag_36\n      jump\t// in\n    tag_35:\n      mload(0x40)\n      dup1\n      swap2\n      sub\n      swap1\n      return\n        /* \"VestingFlatten.sol\":9392:9926  function setStartTime(uint8 vestingType, uint256 timestamp) public onlyOwner {... */\n    tag_6:\n      tag_37\n      0x04\n      dup1\n      calldatasize\n      sub\n      dup2\n      add\n      swap1\n      tag_38\n      swap2\n      swap1\n      tag_39\n      jump\t// in\n    tag_38:\n      tag_40\n      jump\t// in\n    tag_37:\n      stop\n        /* \"VestingFlatten.sol\":9930:11447  function add(uint8 vestingType, uint256 balance, address addr) public onlyOwner {... */\n    tag_7:\n      tag_41\n      0x04\n      dup1\n      calldatasize\n      sub\n      dup2\n      add\n      swap1\n      tag_42\n      swap2\n      swap1\n      tag_43\n      jump\t// in\n    tag_42:\n      tag_44\n      jump\t// in\n    tag_41:\n      stop\n        /* \"VestingFlatten.sol\":11451:12672  function claim() public {... */\n    tag_8:\n      tag_45\n      tag_46\n      jump\t// in\n    tag_45:\n      stop\n        /* \"VestingFlatten.sol\":13067:14684  function _getClaimableBalance(uint8 vestingType, uint256 totalBalance, uint256 claimedBalance, uint256 time) public view returns (uint256) {... */\n    tag_9:\n      tag_47\n      0x04\n      dup1\n      calldatasize\n      sub\n      dup2\n      add\n      swap1\n      tag_48\n      swap2\n      swap1\n      tag_49\n      jump\t// in\n    tag_48:\n      tag_50\n      jump\t// in\n    tag_47:\n      mload(0x40)\n      tag_51\n      swap2\n      swap1\n      tag_25\n      jump\t// in\n    tag_51:\n      mload(0x40)\n      dup1\n      swap2\n      sub\n      swap1\n      return\n        /* \"VestingFlatten.sol\":7580:7645  mapping(address => VestingAccountInfo) public vestingAccountInfos */\n    tag_10:\n      tag_52\n      0x04\n      dup1\n      calldatasize\n      sub\n      dup2\n      add\n      swap1\n      tag_53\n      swap2\n      swap1\n      tag_22\n      jump\t// in\n    tag_53:\n      tag_54\n      jump\t// in\n    tag_52:\n      mload(0x40)\n      tag_55\n      swap6\n      swap5\n      swap4\n      swap3\n      swap2\n      swap1\n      tag_56\n      jump\t// in\n    tag_55:\n      mload(0x40)\n      dup1\n      swap2\n      sub\n      swap1\n      return\n        /* \"VestingFlatten.sol\":5523:5624  function renounceOwnership() public virtual onlyOwner {... */\n    tag_11:\n      tag_57\n      tag_58\n      jump\t// in\n    tag_57:\n      stop\n        /* \"VestingFlatten.sol\":4893:4978  function owner() public view virtual returns (address) {... */\n    tag_12:\n      tag_59\n      tag_60\n      jump\t// in\n    tag_59:\n      mload(0x40)\n      tag_61\n      swap2\n      swap1\n      tag_62\n      jump\t// in\n    tag_61:\n      mload(0x40)\n      dup1\n      swap2\n      sub\n      swap1\n      return\n        /* \"VestingFlatten.sol\":7527:7576  mapping(uint8 => VestingInfo) public vestingInfos */\n    tag_13:\n      tag_63\n      0x04\n      dup1\n      calldatasize\n      sub\n      dup2\n      add\n      swap1\n      tag_64\n      swap2\n      swap1\n      tag_28\n      jump\t// in\n    tag_64:\n      tag_65\n      jump\t// in\n    tag_63:\n      mload(0x40)\n      tag_66\n      swap8\n      swap7\n      swap6\n      swap5\n      swap4\n      swap3\n      swap2\n      swap1\n      tag_67\n      jump\t// in\n    tag_66:\n      mload(0x40)\n      dup1\n      swap2\n      sub\n      swap1\n      return\n        /* \"VestingFlatten.sol\":6663:6688  address public dstAddress */\n    tag_14:\n      tag_68\n      tag_69\n      jump\t// in\n    tag_68:\n      mload(0x40)\n      tag_70\n      swap2\n      swap1\n      tag_62\n      jump\t// in\n    tag_70:\n      mload(0x40)\n      dup1\n      swap2\n      sub\n      swap1\n      return\n        /* \"VestingFlatten.sol\":9242:9388  function setDSTAddress(address addr) public onlyOwner {... */\n    tag_15:\n      tag_71\n      0x04\n      dup1\n      calldatasize\n      sub\n      dup2\n      add\n      swap1\n      tag_72\n      swap2\n      swap1\n      tag_22\n      jump\t// in\n    tag_72:\n      tag_73\n      jump\t// in\n    tag_71:\n      stop\n        /* \"VestingFlatten.sol\":5773:5971  function transferOwnership(address newOwner) public virtual onlyOwner {... */\n    tag_16:\n      tag_74\n      0x04\n      dup1\n      calldatasize\n      sub\n      dup2\n      add\n      swap1\n      tag_75\n      swap2\n      swap1\n      tag_22\n      jump\t// in\n    tag_75:\n      tag_76\n      jump\t// in\n    tag_74:\n      stop\n        /* \"VestingFlatten.sol\":12707:13063  function getClaimableBalance(address addr) public view returns (uint256) {... */\n    tag_23:\n        /* \"VestingFlatten.sol\":12771:12778  uint256 */\n      0x00\n        /* \"VestingFlatten.sol\":12834:12835  0 */\n      dup1\n        /* \"VestingFlatten.sol\":12794:12813  vestingAccountInfos */\n      0x03\n        /* \"VestingFlatten.sol\":12794:12819  vestingAccountInfos[addr] */\n      0x00\n        /* \"VestingFlatten.sol\":12814:12818  addr */\n      dup5\n        /* \"VestingFlatten.sol\":12794:12819  vestingAccountInfos[addr] */\n      0xffffffffffffffffffffffffffffffffffffffff\n      and\n      0xffffffffffffffffffffffffffffffffffffffff\n      and\n      dup2\n      mstore\n      0x20\n      add\n      swap1\n      dup2\n      mstore\n      0x20\n      add\n      0x00\n      keccak256\n        /* \"VestingFlatten.sol\":12794:12831  vestingAccountInfos[addr].createdTime */\n      0x03\n      add\n      sload\n        /* \"VestingFlatten.sol\":12794:12835  vestingAccountInfos[addr].createdTime > 0 */\n      gt\n        /* \"VestingFlatten.sol\":12786:12855  require(vestingAccountInfos[addr].createdTime > 0, \"no account info\") */\n      tag_78\n      jumpi\n      mload(0x40)\n      0x08c379a000000000000000000000000000000000000000000000000000000000\n      dup2\n      mstore\n      0x04\n      add\n      tag_79\n      swap1\n      tag_80\n      jump\t// in\n    tag_79:\n      mload(0x40)\n      dup1\n      swap2\n      sub\n      swap1\n      revert\n    tag_78:\n        /* \"VestingFlatten.sol\":12861:12876  uint256 balance */\n      0x00\n        /* \"VestingFlatten.sol\":12879:13037  _getClaimableBalance(vestingAccountInfos[addr].vestingType, vestingAccountInfos[addr].totalBalance, vestingAccountInfos[addr].claimedBalance, block.timestamp) */\n      tag_81\n        /* \"VestingFlatten.sol\":12900:12919  vestingAccountInfos */\n      0x03\n        /* \"VestingFlatten.sol\":12900:12925  vestingAccountInfos[addr] */\n      0x00\n        /* \"VestingFlatten.sol\":12920:12924  addr */\n      dup6\n        /* \"VestingFlatten.sol\":12900:12925  vestingAccountInfos[addr] */\n      0xffffffffffffffffffffffffffffffffffffffff\n      and\n      0xffffffffffffffffffffffffffffffffffffffff\n      and\n      dup2\n      mstore\n      0x20\n      add\n      swap1\n      dup2\n      mstore\n      0x20\n      add\n      0x00\n      keccak256\n        /* \"VestingFlatten.sol\":12900:12937  vestingAccountInfos[addr].vestingType */\n      0x00\n      add\n      0x00\n      swap1\n      sload\n      swap1\n      0x0100\n      exp\n      swap1\n      div\n      0xff\n      and\n        /* \"VestingFlatten.sol\":12939:12958  vestingAccountInfos */\n      0x03\n        /* \"VestingFlatten.sol\":12939:12964  vestingAccountInfos[addr] */\n      0x00\n        /* \"VestingFlatten.sol\":12959:12963  addr */\n      dup7\n        /* \"VestingFlatten.sol\":12939:12964  vestingAccountInfos[addr] */\n      0xffffffffffffffffffffffffffffffffffffffff\n      and\n      0xffffffffffffffffffffffffffffffffffffffff\n      and\n      dup2\n      mstore\n      0x20\n      add\n      swap1\n      dup2\n      mstore\n      0x20\n      add\n      0x00\n      keccak256\n        /* \"VestingFlatten.sol\":12939:12977  vestingAccountInfos[addr].totalBalance */\n      0x01\n      add\n      sload\n        /* \"VestingFlatten.sol\":12979:12998  vestingAccountInfos */\n      0x03\n        /* \"VestingFlatten.sol\":12979:13004  vestingAccountInfos[addr] */\n      0x00\n        /* \"VestingFlatten.sol\":12999:13003  addr */\n      dup8\n        /* \"VestingFlatten.sol\":12979:13004  vestingAccountInfos[addr] */\n      0xffffffffffffffffffffffffffffffffffffffff\n      and\n      0xffffffffffffffffffffffffffffffffffffffff\n      and\n      dup2\n      mstore\n      0x20\n      add\n      swap1\n      dup2\n      mstore\n      0x20\n      add\n      0x00\n      keccak256\n        /* \"VestingFlatten.sol\":12979:13019  vestingAccountInfos[addr].claimedBalance */\n      0x02\n      add\n      sload\n        /* \"VestingFlatten.sol\":13021:13036  block.timestamp */\n      timestamp\n        /* \"VestingFlatten.sol\":12879:12899  _getClaimableBalance */\n      tag_50\n        /* \"VestingFlatten.sol\":12879:13037  _getClaimableBalance(vestingAccountInfos[addr].vestingType, vestingAccountInfos[addr].totalBalance, vestingAccountInfos[addr].claimedBalance, block.timestamp) */\n      jump\t// in\n    tag_81:\n        /* \"VestingFlatten.sol\":12861:13037  uint256 balance = _getClaimableBalance(vestingAccountInfos[addr].vestingType, vestingAccountInfos[addr].totalBalance, vestingAccountInfos[addr].claimedBalance, block.timestamp) */\n      swap1\n      pop\n        /* \"VestingFlatten.sol\":13051:13058  balance */\n      dup1\n        /* \"VestingFlatten.sol\":13044:13058  return balance */\n      swap2\n      pop\n      pop\n        /* \"VestingFlatten.sol\":12707:13063  function getClaimableBalance(address addr) public view returns (uint256) {... */\n      swap2\n      swap1\n      pop\n      jump\t// out\n        /* \"VestingFlatten.sol\":14688:14970  function getVestingInfo(uint8 vestingType) public view returns (VestingInfo memory) {... */\n    tag_29:\n        /* \"VestingFlatten.sol\":14752:14770  VestingInfo memory */\n      tag_82\n      tag_83\n      jump\t// in\n    tag_82:\n        /* \"VestingFlatten.sol\":14833:14857  VestingType.PRIVATE_SALE */\n      0x00\n        /* \"VestingFlatten.sol\":14827:14858  uint8(VestingType.PRIVATE_SALE) */\n      0x03\n      dup2\n      gt\n      iszero\n      tag_85\n      jumpi\n      tag_86\n      tag_87\n      jump\t// in\n    tag_86:\n    tag_85:\n        /* \"VestingFlatten.sol\":14812:14858  vestingType >= uint8(VestingType.PRIVATE_SALE) */\n      0xff\n      and\n        /* \"VestingFlatten.sol\":14812:14823  vestingType */\n      dup3\n        /* \"VestingFlatten.sol\":14812:14858  vestingType >= uint8(VestingType.PRIVATE_SALE) */\n      0xff\n      and\n      lt\n      iszero\n        /* \"VestingFlatten.sol\":14812:14904  vestingType >= uint8(VestingType.PRIVATE_SALE) && vestingType <= uint8(VestingType.TREASURY) */\n      dup1\n      iszero\n      tag_88\n      jumpi\n      pop\n        /* \"VestingFlatten.sol\":14883:14903  VestingType.TREASURY */\n      0x03\n        /* \"VestingFlatten.sol\":14877:14904  uint8(VestingType.TREASURY) */\n      dup1\n      dup2\n      gt\n      iszero\n      tag_89\n      jumpi\n      tag_90\n      tag_87\n      jump\t// in\n    tag_90:\n    tag_89:\n        /* \"VestingFlatten.sol\":14862:14904  vestingType <= uint8(VestingType.TREASURY) */\n      0xff\n      and\n        /* \"VestingFlatten.sol\":14862:14873  vestingType */\n      dup3\n        /* \"VestingFlatten.sol\":14862:14904  vestingType <= uint8(VestingType.TREASURY) */\n      0xff\n      and\n      gt\n      iszero\n        /* \"VestingFlatten.sol\":14812:14904  vestingType >= uint8(VestingType.PRIVATE_SALE) && vestingType <= uint8(VestingType.TREASURY) */\n    tag_88:\n        /* \"VestingFlatten.sol\":14804:14927  require(vestingType >= uint8(VestingType.PRIVATE_SALE) && vestingType <= uint8(VestingType.TREASURY), \"wrong vesting type\") */\n      tag_91\n      jumpi\n      mload(0x40)\n      0x08c379a000000000000000000000000000000000000000000000000000000000\n      dup2\n      mstore\n      0x04\n      add\n      tag_92\n      swap1\n      tag_93\n      jump\t// in\n    tag_92:\n      mload(0x40)\n      dup1\n      swap2\n      sub\n      swap1\n      revert\n    tag_91:\n        /* \"VestingFlatten.sol\":14940:14952  vestingInfos */\n      0x02\n        /* \"VestingFlatten.sol\":14940:14965  vestingInfos[vestingType] */\n      0x00\n        /* \"VestingFlatten.sol\":14953:14964  vestingType */\n      dup4\n        /* \"VestingFlatten.sol\":14940:14965  vestingInfos[vestingType] */\n      0xff\n      and\n      0xff\n      and\n      dup2\n      mstore\n      0x20\n      add\n      swap1\n      dup2\n      mstore\n      0x20\n      add\n      0x00\n      keccak256\n        /* \"VestingFlatten.sol\":14933:14965  return vestingInfos[vestingType] */\n      mload(0x40)\n      dup1\n      0xe0\n      add\n      0x40\n      mstore\n      swap1\n      dup2\n      0x00\n      dup3\n      add\n      sload\n      dup2\n      mstore\n      0x20\n      add\n      0x01\n      dup3\n      add\n      0x00\n      swap1\n      sload\n      swap1\n      0x0100\n      exp\n      swap1\n      div\n      0xff\n      and\n      0xff\n      and\n      0xff\n      and\n      dup2\n      mstore\n      0x20\n      add\n      0x02\n      dup3\n      add\n      sload\n      dup2\n      mstore\n      0x20\n      add\n      0x03\n      dup3\n      add\n      sload\n      dup2\n      mstore\n      0x20\n      add\n      0x04\n      dup3\n      add\n      sload\n      dup2\n      mstore\n      0x20\n      add\n      0x05\n      dup3\n      add\n      0x00\n      swap1\n      sload\n      swap1\n      0x0100\n      exp\n      swap1\n      div\n      0xffff\n      and\n      0xffff\n      and\n      0xffff\n      and\n      dup2\n      mstore\n      0x20\n      add\n      0x05\n      dup3\n      add\n      0x02\n      swap1\n      sload\n      swap1\n      0x0100\n      exp\n      swap1\n      div\n      0xffff\n      and\n      0xffff\n      and\n      0xffff\n      and\n      dup2\n      mstore\n      pop\n      pop\n      swap1\n      pop\n        /* \"VestingFlatten.sol\":14688:14970  function getVestingInfo(uint8 vestingType) public view returns (VestingInfo memory) {... */\n      swap2\n      swap1\n      pop\n      jump\t// out\n        /* \"VestingFlatten.sol\":14974:15110  function getVestingAccountInfo(address addr) public view returns (VestingAccountInfo memory) {... */\n    tag_34:\n        /* \"VestingFlatten.sol\":15040:15065  VestingAccountInfo memory */\n      tag_94\n      tag_95\n      jump\t// in\n    tag_94:\n        /* \"VestingFlatten.sol\":15080:15099  vestingAccountInfos */\n      0x03\n        /* \"VestingFlatten.sol\":15080:15105  vestingAccountInfos[addr] */\n      0x00\n        /* \"VestingFlatten.sol\":15100:15104  addr */\n      dup4\n        /* \"VestingFlatten.sol\":15080:15105  vestingAccountInfos[addr] */\n      0xffffffffffffffffffffffffffffffffffffffff\n      and\n      0xffffffffffffffffffffffffffffffffffffffff\n      and\n      dup2\n      mstore\n      0x20\n      add\n      swap1\n      dup2\n      mstore\n      0x20\n      add\n      0x00\n      keccak256\n        /* \"VestingFlatten.sol\":15073:15105  return vestingAccountInfos[addr] */\n      mload(0x40)\n      dup1\n      0xa0\n      add\n      0x40\n      mstore\n      swap1\n      dup2\n      0x00\n      dup3\n      add\n      0x00\n      swap1\n      sload\n      swap1\n      0x0100\n      exp\n      swap1\n      div\n      0xff\n      and\n      0xff\n      and\n      0xff\n      and\n      dup2\n      mstore\n      0x20\n      add\n      0x01\n      dup3\n      add\n      sload\n      dup2\n      mstore\n      0x20\n      add\n      0x02\n      dup3\n      add\n      sload\n      dup2\n      mstore\n      0x20\n      add\n      0x03\n      dup3\n      add\n      sload\n      dup2\n      mstore\n      0x20\n      add\n      0x04\n      dup3\n      add\n      sload\n      dup2\n      mstore\n      pop\n      pop\n      swap1\n      pop\n        /* \"VestingFlatten.sol\":14974:15110  function getVestingAccountInfo(address addr) public view returns (VestingAccountInfo memory) {... */\n      swap2\n      swap1\n      pop\n      jump\t// out\n        /* \"VestingFlatten.sol\":9392:9926  function setStartTime(uint8 vestingType, uint256 timestamp) public onlyOwner {... */\n    tag_40:\n        /* \"VestingFlatten.sol\":4786:4799  _checkOwner() */\n      tag_98\n        /* \"VestingFlatten.sol\":4786:4797  _checkOwner */\n      tag_99\n        /* \"VestingFlatten.sol\":4786:4799  _checkOwner() */\n      jump\t// in\n    tag_98:\n        /* \"VestingFlatten.sol\":9530:9554  VestingType.PRIVATE_SALE */\n      0x00\n        /* \"VestingFlatten.sol\":9524:9555  uint8(VestingType.PRIVATE_SALE) */\n      0x03\n      dup2\n      gt\n      iszero\n      tag_101\n      jumpi\n      tag_102\n      tag_87\n      jump\t// in\n    tag_102:\n    tag_101:\n        /* \"VestingFlatten.sol\":9509:9555  vestingType >= uint8(VestingType.PRIVATE_SALE) */\n      0xff\n      and\n        /* \"VestingFlatten.sol\":9509:9520  vestingType */\n      dup3\n        /* \"VestingFlatten.sol\":9509:9555  vestingType >= uint8(VestingType.PRIVATE_SALE) */\n      0xff\n      and\n      lt\n      iszero\n        /* \"VestingFlatten.sol\":9509:9601  vestingType >= uint8(VestingType.PRIVATE_SALE) && vestingType <= uint8(VestingType.TREASURY) */\n      dup1\n      iszero\n      tag_103\n      jumpi\n      pop\n        /* \"VestingFlatten.sol\":9580:9600  VestingType.TREASURY */\n      0x03\n        /* \"VestingFlatten.sol\":9574:9601  uint8(VestingType.TREASURY) */\n      dup1\n      dup2\n      gt\n      iszero\n      tag_104\n      jumpi\n      tag_105\n      tag_87\n      jump\t// in\n    tag_105:\n    tag_104:\n        /* \"VestingFlatten.sol\":9559:9601  vestingType <= uint8(VestingType.TREASURY) */\n      0xff\n      and\n        /* \"VestingFlatten.sol\":9559:9570  vestingType */\n      dup3\n        /* \"VestingFlatten.sol\":9559:9601  vestingType <= uint8(VestingType.TREASURY) */\n      0xff\n      and\n      gt\n      iszero\n        /* \"VestingFlatten.sol\":9509:9601  vestingType >= uint8(VestingType.PRIVATE_SALE) && vestingType <= uint8(VestingType.TREASURY) */\n    tag_103:\n        /* \"VestingFlatten.sol\":9501:9624  require(vestingType >= uint8(VestingType.PRIVATE_SALE) && vestingType <= uint8(VestingType.TREASURY), \"wrong vesting type\") */\n      tag_106\n      jumpi\n      mload(0x40)\n      0x08c379a000000000000000000000000000000000000000000000000000000000\n      dup2\n      mstore\n      0x04\n      add\n      tag_107\n      swap1\n      tag_93\n      jump\t// in\n    tag_107:\n      mload(0x40)\n      dup1\n      swap2\n      sub\n      swap1\n      revert\n    tag_106:\n        /* \"VestingFlatten.sol\":9674:9689  block.timestamp */\n      timestamp\n        /* \"VestingFlatten.sol\":9662:9671  timestamp */\n      dup2\n        /* \"VestingFlatten.sol\":9662:9689  timestamp > block.timestamp */\n      gt\n        /* \"VestingFlatten.sol\":9654:9710  require(timestamp > block.timestamp, \"should be future\") */\n      tag_108\n      jumpi\n      mload(0x40)\n      0x08c379a000000000000000000000000000000000000000000000000000000000\n      dup2\n      mstore\n      0x04\n      add\n      tag_109\n      swap1\n      tag_110\n      jump\t// in\n    tag_109:\n      mload(0x40)\n      dup1\n      swap2\n      sub\n      swap1\n      revert\n    tag_108:\n        /* \"VestingFlatten.sol\":9717:9749  VestingInfo storage vestingInfo_ */\n      0x00\n        /* \"VestingFlatten.sol\":9752:9764  vestingInfos */\n      0x02\n        /* \"VestingFlatten.sol\":9752:9777  vestingInfos[vestingType] */\n      0x00\n        /* \"VestingFlatten.sol\":9765:9776  vestingType */\n      dup5\n        /* \"VestingFlatten.sol\":9752:9777  vestingInfos[vestingType] */\n      0xff\n      and\n      0xff\n      and\n      dup2\n      mstore\n      0x20\n      add\n      swap1\n      dup2\n      mstore\n      0x20\n      add\n      0x00\n      keccak256\n        /* \"VestingFlatten.sol\":9717:9777  VestingInfo storage vestingInfo_ = vestingInfos[vestingType] */\n      swap1\n      pop\n        /* \"VestingFlatten.sol\":9852:9853  0 */\n      0x00\n        /* \"VestingFlatten.sol\":9826:9838  vestingInfo_ */\n      dup2\n        /* \"VestingFlatten.sol\":9826:9848  vestingInfo_.startTime */\n      0x00\n      add\n      sload\n        /* \"VestingFlatten.sol\":9826:9853  vestingInfo_.startTime == 0 */\n      eq\n        /* \"VestingFlatten.sol\":9818:9880  require(vestingInfo_.startTime == 0, \"already set start time\") */\n      tag_111\n      jumpi\n      mload(0x40)\n      0x08c379a000000000000000000000000000000000000000000000000000000000\n      dup2\n      mstore\n      0x04\n      add\n      tag_112\n      swap1\n      tag_113\n      jump\t// in\n    tag_112:\n      mload(0x40)\n      dup1\n      swap2\n      sub\n      swap1\n      revert\n    tag_111:\n        /* \"VestingFlatten.sol\":9912:9921  timestamp */\n      dup2\n        /* \"VestingFlatten.sol\":9887:9899  vestingInfo_ */\n      dup2\n        /* \"VestingFlatten.sol\":9887:9909  vestingInfo_.startTime */\n      0x00\n      add\n        /* \"VestingFlatten.sol\":9887:9921  vestingInfo_.startTime = timestamp */\n      dup2\n      swap1\n      sstore\n      pop\n        /* \"VestingFlatten.sol\":9469:9926  {... */\n      pop\n        /* \"VestingFlatten.sol\":9392:9926  function setStartTime(uint8 vestingType, uint256 timestamp) public onlyOwner {... */\n      pop\n      pop\n      jump\t// out\n        /* \"VestingFlatten.sol\":9930:11447  function add(uint8 vestingType, uint256 balance, address addr) public onlyOwner {... */\n    tag_44:\n        /* \"VestingFlatten.sol\":4786:4799  _checkOwner() */\n      tag_115\n        /* \"VestingFlatten.sol\":4786:4797  _checkOwner */\n      tag_99\n        /* \"VestingFlatten.sol\":4786:4799  _checkOwner() */\n      jump\t// in\n    tag_115:\n        /* \"VestingFlatten.sol\":10046:10047  0 */\n      0x00\n        /* \"VestingFlatten.sol\":10024:10048  dstAddress != address(0) */\n      0xffffffffffffffffffffffffffffffffffffffff\n      and\n        /* \"VestingFlatten.sol\":10024:10034  dstAddress */\n      0x01\n      0x00\n      swap1\n      sload\n      swap1\n      0x0100\n      exp\n      swap1\n      div\n      0xffffffffffffffffffffffffffffffffffffffff\n      and\n        /* \"VestingFlatten.sol\":10024:10048  dstAddress != address(0) */\n      0xffffffffffffffffffffffffffffffffffffffff\n      and\n      eq\n      iszero\n        /* \"VestingFlatten.sol\":10016:10067  require(dstAddress != address(0), \"no dst address\") */\n      tag_117\n      jumpi\n      mload(0x40)\n      0x08c379a000000000000000000000000000000000000000000000000000000000\n      dup2\n      mstore\n      0x04\n      add\n      tag_118\n      swap1\n      tag_119\n      jump\t// in\n    tag_118:\n      mload(0x40)\n      dup1\n      swap2\n      sub\n      swap1\n      revert\n    tag_117:\n        /* \"VestingFlatten.sol\":10128:10152  VestingType.PRIVATE_SALE */\n      0x00\n        /* \"VestingFlatten.sol\":10122:10153  uint8(VestingType.PRIVATE_SALE) */\n      0x03\n      dup2\n      gt\n      iszero\n      tag_120\n      jumpi\n      tag_121\n      tag_87\n      jump\t// in\n    tag_121:\n    tag_120:\n        /* \"VestingFlatten.sol\":10107:10153  vestingType >= uint8(VestingType.PRIVATE_SALE) */\n      0xff\n      and\n        /* \"VestingFlatten.sol\":10107:10118  vestingType */\n      dup4\n        /* \"VestingFlatten.sol\":10107:10153  vestingType >= uint8(VestingType.PRIVATE_SALE) */\n      0xff\n      and\n      lt\n      iszero\n        /* \"VestingFlatten.sol\":10107:10199  vestingType >= uint8(VestingType.PRIVATE_SALE) && vestingType <= uint8(VestingType.TREASURY) */\n      dup1\n      iszero\n      tag_122\n      jumpi\n      pop\n        /* \"VestingFlatten.sol\":10178:10198  VestingType.TREASURY */\n      0x03\n        /* \"VestingFlatten.sol\":10172:10199  uint8(VestingType.TREASURY) */\n      dup1\n      dup2\n      gt\n      iszero\n      tag_123\n      jumpi\n      tag_124\n      tag_87\n      jump\t// in\n    tag_124:\n    tag_123:\n        /* \"VestingFlatten.sol\":10157:10199  vestingType <= uint8(VestingType.TREASURY) */\n      0xff\n      and\n        /* \"VestingFlatten.sol\":10157:10168  vestingType */\n      dup4\n        /* \"VestingFlatten.sol\":10157:10199  vestingType <= uint8(VestingType.TREASURY) */\n      0xff\n      and\n      gt\n      iszero\n        /* \"VestingFlatten.sol\":10107:10199  vestingType >= uint8(VestingType.PRIVATE_SALE) && vestingType <= uint8(VestingType.TREASURY) */\n    tag_122:\n        /* \"VestingFlatten.sol\":10099:10222  require(vestingType >= uint8(VestingType.PRIVATE_SALE) && vestingType <= uint8(VestingType.TREASURY), \"wrong vesting type\") */\n      tag_125\n      jumpi\n      mload(0x40)\n      0x08c379a000000000000000000000000000000000000000000000000000000000\n      dup2\n      mstore\n      0x04\n      add\n      tag_126\n      swap1\n      tag_93\n      jump\t// in\n    tag_126:\n      mload(0x40)\n      dup1\n      swap2\n      sub\n      swap1\n      revert\n    tag_125:\n        /* \"VestingFlatten.sol\":10256:10288  VestingInfo storage vestingInfo_ */\n      0x00\n        /* \"VestingFlatten.sol\":10291:10303  vestingInfos */\n      0x02\n        /* \"VestingFlatten.sol\":10291:10316  vestingInfos[vestingType] */\n      0x00\n        /* \"VestingFlatten.sol\":10304:10315  vestingType */\n      dup6\n        /* \"VestingFlatten.sol\":10291:10316  vestingInfos[vestingType] */\n      0xff\n      and\n      0xff\n      and\n      dup2\n      mstore\n      0x20\n      add\n      swap1\n      dup2\n      mstore\n      0x20\n      add\n      0x00\n      keccak256\n        /* \"VestingFlatten.sol\":10256:10316  VestingInfo storage vestingInfo_ = vestingInfos[vestingType] */\n      swap1\n      pop\n        /* \"VestingFlatten.sol\":10387:10394  balance */\n      dup3\n        /* \"VestingFlatten.sol\":10359:10371  vestingInfo_ */\n      dup2\n        /* \"VestingFlatten.sol\":10359:10384  vestingInfo_.addedBalance */\n      0x03\n      add\n      sload\n        /* \"VestingFlatten.sol\":10359:10394  vestingInfo_.addedBalance + balance */\n      tag_127\n      swap2\n      swap1\n      tag_128\n      jump\t// in\n    tag_127:\n        /* \"VestingFlatten.sol\":10330:10342  vestingInfo_ */\n      dup2\n        /* \"VestingFlatten.sol\":10330:10355  vestingInfo_.totalBalance */\n      0x02\n      add\n      sload\n        /* \"VestingFlatten.sol\":10330:10394  vestingInfo_.totalBalance >= vestingInfo_.addedBalance + balance */\n      lt\n      iszero\n        /* \"VestingFlatten.sol\":10322:10417  require(vestingInfo_.totalBalance >= vestingInfo_.addedBalance + balance, \"over total balance\") */\n      tag_129\n      jumpi\n      mload(0x40)\n      0x08c379a000000000000000000000000000000000000000000000000000000000\n      dup2\n      mstore\n      0x04\n      add\n      tag_130\n      swap1\n      tag_131\n      jump\t// in\n    tag_130:\n      mload(0x40)\n      dup1\n      swap2\n      sub\n      swap1\n      revert\n    tag_129:\n        /* \"VestingFlatten.sol\":10457:10477  uint256 adminBalance */\n      0x00\n        /* \"VestingFlatten.sol\":10487:10497  dstAddress */\n      0x01\n      0x00\n      swap1\n      sload\n      swap1\n      0x0100\n      exp\n      swap1\n      div\n      0xffffffffffffffffffffffffffffffffffffffff\n      and\n        /* \"VestingFlatten.sol\":10480:10508  IERC20(dstAddress).balanceOf */\n      0xffffffffffffffffffffffffffffffffffffffff\n      and\n      0x70a08231\n        /* \"VestingFlatten.sol\":10509:10519  msg.sender */\n      caller\n        /* \"VestingFlatten.sol\":10480:10520  IERC20(dstAddress).balanceOf(msg.sender) */\n      mload(0x40)\n      dup3\n      0xffffffff\n      and\n      0xe0\n      shl\n      dup2\n      mstore\n      0x04\n      add\n      tag_132\n      swap2\n      swap1\n      tag_62\n      jump\t// in\n    tag_132:\n      0x20\n      mload(0x40)\n      dup1\n      dup4\n      sub\n      dup2\n      dup7\n      dup1\n      extcodesize\n      iszero\n      dup1\n      iszero\n      tag_133\n      jumpi\n      0x00\n      dup1\n      revert\n    tag_133:\n      pop\n      gas\n      staticcall\n      iszero\n      dup1\n      iszero\n      tag_135\n      jumpi\n      returndatasize\n      0x00\n      dup1\n      returndatacopy\n      revert(0x00, returndatasize)\n    tag_135:\n      pop\n      pop\n      pop\n      pop\n      mload(0x40)\n      returndatasize\n      not(0x1f)\n      0x1f\n      dup3\n      add\n      and\n      dup3\n      add\n      dup1\n      0x40\n      mstore\n      pop\n      dup2\n      add\n      swap1\n      tag_136\n      swap2\n      swap1\n      tag_137\n      jump\t// in\n    tag_136:\n        /* \"VestingFlatten.sol\":10457:10520  uint256 adminBalance = IERC20(dstAddress).balanceOf(msg.sender) */\n      swap1\n      pop\n        /* \"VestingFlatten.sol\":10526:10543  uint256 allowance */\n      0x00\n        /* \"VestingFlatten.sol\":10553:10563  dstAddress */\n      0x01\n      0x00\n      swap1\n      sload\n      swap1\n      0x0100\n      exp\n      swap1\n      div\n      0xffffffffffffffffffffffffffffffffffffffff\n      and\n        /* \"VestingFlatten.sol\":10546:10574  IERC20(dstAddress).allowance */\n      0xffffffffffffffffffffffffffffffffffffffff\n      and\n      0xdd62ed3e\n        /* \"VestingFlatten.sol\":10575:10585  msg.sender */\n      caller\n        /* \"VestingFlatten.sol\":10595:10599  this */\n      address\n        /* \"VestingFlatten.sol\":10546:10601  IERC20(dstAddress).allowance(msg.sender, address(this)) */\n      mload(0x40)\n      dup4\n      0xffffffff\n      and\n      0xe0\n      shl\n      dup2\n      mstore\n      0x04\n      add\n      tag_138\n      swap3\n      swap2\n      swap1\n      tag_139\n      jump\t// in\n    tag_138:\n      0x20\n      mload(0x40)\n      dup1\n      dup4\n      sub\n      dup2\n      dup7\n      dup1\n      extcodesize\n      iszero\n      dup1\n      iszero\n      tag_140\n      jumpi\n      0x00\n      dup1\n      revert\n    tag_140:\n      pop\n      gas\n      staticcall\n      iszero\n      dup1\n      iszero\n      tag_142\n      jumpi\n      returndatasize\n      0x00\n      dup1\n      returndatacopy\n      revert(0x00, returndatasize)\n    tag_142:\n      pop\n      pop\n      pop\n      pop\n      mload(0x40)\n      returndatasize\n      not(0x1f)\n      0x1f\n      dup3\n      add\n      and\n      dup3\n      add\n      dup1\n      0x40\n      mstore\n      pop\n      dup2\n      add\n      swap1\n      tag_143\n      swap2\n      swap1\n      tag_137\n      jump\t// in\n    tag_143:\n        /* \"VestingFlatten.sol\":10526:10601  uint256 allowance = IERC20(dstAddress).allowance(msg.sender, address(this)) */\n      swap1\n      pop\n        /* \"VestingFlatten.sol\":10628:10635  balance */\n      dup5\n        /* \"VestingFlatten.sol\":10615:10624  allowance */\n      dup2\n        /* \"VestingFlatten.sol\":10615:10635  allowance >= balance */\n      lt\n      iszero\n        /* \"VestingFlatten.sol\":10607:10652  require(allowance >= balance, \"need approve\") */\n      tag_144\n      jumpi\n      mload(0x40)\n      0x08c379a000000000000000000000000000000000000000000000000000000000\n      dup2\n      mstore\n      0x04\n      add\n      tag_145\n      swap1\n      tag_146\n      jump\t// in\n    tag_145:\n      mload(0x40)\n      dup1\n      swap2\n      sub\n      swap1\n      revert\n    tag_144:\n        /* \"VestingFlatten.sol\":10682:10689  balance */\n      dup5\n        /* \"VestingFlatten.sol\":10666:10678  adminBalance */\n      dup3\n        /* \"VestingFlatten.sol\":10666:10689  adminBalance >= balance */\n      lt\n      iszero\n        /* \"VestingFlatten.sol\":10658:10712  require(adminBalance >= balance, \"not enough balance\") */\n      tag_147\n      jumpi\n      mload(0x40)\n      0x08c379a000000000000000000000000000000000000000000000000000000000\n      dup2\n      mstore\n      0x04\n      add\n      tag_148\n      swap1\n      tag_149\n      jump\t// in\n    tag_148:\n      mload(0x40)\n      dup1\n      swap2\n      sub\n      swap1\n      revert\n    tag_147:\n        /* \"VestingFlatten.sol\":10804:10805  0 */\n      0x00\n        /* \"VestingFlatten.sol\":10763:10782  vestingAccountInfos */\n      0x03\n        /* \"VestingFlatten.sol\":10763:10788  vestingAccountInfos[addr] */\n      0x00\n        /* \"VestingFlatten.sol\":10783:10787  addr */\n      dup7\n        /* \"VestingFlatten.sol\":10763:10788  vestingAccountInfos[addr] */\n      0xffffffffffffffffffffffffffffffffffffffff\n      and\n      0xffffffffffffffffffffffffffffffffffffffff\n      and\n      dup2\n      mstore\n      0x20\n      add\n      swap1\n      dup2\n      mstore\n      0x20\n      add\n      0x00\n      keccak256\n        /* \"VestingFlatten.sol\":10763:10800  vestingAccountInfos[addr].createdTime */\n      0x03\n      add\n      sload\n        /* \"VestingFlatten.sol\":10763:10805  vestingAccountInfos[addr].createdTime == 0 */\n      eq\n        /* \"VestingFlatten.sol\":10755:10830  require(vestingAccountInfos[addr].createdTime == 0, \"alreay added address\") */\n      tag_150\n      jumpi\n      mload(0x40)\n      0x08c379a000000000000000000000000000000000000000000000000000000000\n      dup2\n      mstore\n      0x04\n      add\n      tag_151\n      swap1\n      tag_152\n      jump\t// in\n    tag_151:\n      mload(0x40)\n      dup1\n      swap2\n      sub\n      swap1\n      revert\n    tag_150:\n        /* \"VestingFlatten.sol\":10865:11039  VestingAccountInfo({... */\n      mload(0x40)\n      dup1\n      0xa0\n      add\n      0x40\n      mstore\n      dup1\n        /* \"VestingFlatten.sol\":10905:10916  vestingType */\n      dup8\n        /* \"VestingFlatten.sol\":10865:11039  VestingAccountInfo({... */\n      0xff\n      and\n      dup2\n      mstore\n      0x20\n      add\n        /* \"VestingFlatten.sol\":10938:10945  balance */\n      dup7\n        /* \"VestingFlatten.sol\":10865:11039  VestingAccountInfo({... */\n      dup2\n      mstore\n      0x20\n      add\n        /* \"VestingFlatten.sol\":10969:10970  0 */\n      0x00\n        /* \"VestingFlatten.sol\":10865:11039  VestingAccountInfo({... */\n      dup2\n      mstore\n      0x20\n      add\n        /* \"VestingFlatten.sol\":10991:11006  block.timestamp */\n      timestamp\n        /* \"VestingFlatten.sol\":10865:11039  VestingAccountInfo({... */\n      dup2\n      mstore\n      0x20\n      add\n        /* \"VestingFlatten.sol\":11031:11032  0 */\n      0x00\n        /* \"VestingFlatten.sol\":10865:11039  VestingAccountInfo({... */\n      dup2\n      mstore\n      pop\n        /* \"VestingFlatten.sol\":10837:10856  vestingAccountInfos */\n      0x03\n        /* \"VestingFlatten.sol\":10837:10862  vestingAccountInfos[addr] */\n      0x00\n        /* \"VestingFlatten.sol\":10857:10861  addr */\n      dup7\n        /* \"VestingFlatten.sol\":10837:10862  vestingAccountInfos[addr] */\n      0xffffffffffffffffffffffffffffffffffffffff\n      and\n      0xffffffffffffffffffffffffffffffffffffffff\n      and\n      dup2\n      mstore\n      0x20\n      add\n      swap1\n      dup2\n      mstore\n      0x20\n      add\n      0x00\n      keccak256\n        /* \"VestingFlatten.sol\":10837:11039  vestingAccountInfos[addr] = VestingAccountInfo({... */\n      0x00\n      dup3\n      add\n      mload\n      dup2\n      0x00\n      add\n      exp(0x0100, 0x00)\n      dup2\n      sload\n      dup2\n      0xff\n      mul\n      not\n      and\n      swap1\n      dup4\n      0xff\n      and\n      mul\n      or\n      swap1\n      sstore\n      pop\n      0x20\n      dup3\n      add\n      mload\n      dup2\n      0x01\n      add\n      sstore\n      0x40\n      dup3\n      add\n      mload\n      dup2\n      0x02\n      add\n      sstore\n      0x60\n      dup3\n      add\n      mload\n      dup2\n      0x03\n      add\n      sstore\n      0x80\n      dup3\n      add\n      mload\n      dup2\n      0x04\n      add\n      sstore\n      swap1\n      pop\n      pop\n        /* \"VestingFlatten.sol\":11109:11119  dstAddress */\n      0x01\n      0x00\n      swap1\n      sload\n      swap1\n      0x0100\n      exp\n      swap1\n      div\n      0xffffffffffffffffffffffffffffffffffffffff\n      and\n        /* \"VestingFlatten.sol\":11102:11133  IERC20(dstAddress).transferFrom */\n      0xffffffffffffffffffffffffffffffffffffffff\n      and\n      0x23b872dd\n        /* \"VestingFlatten.sol\":11134:11144  msg.sender */\n      caller\n        /* \"VestingFlatten.sol\":11154:11158  this */\n      address\n        /* \"VestingFlatten.sol\":11161:11168  balance */\n      dup9\n        /* \"VestingFlatten.sol\":11102:11169  IERC20(dstAddress).transferFrom(msg.sender, address(this), balance) */\n      mload(0x40)\n      dup5\n      0xffffffff\n      and\n      0xe0\n      shl\n      dup2\n      mstore\n      0x04\n      add\n      tag_153\n      swap4\n      swap3\n      swap2\n      swap1\n      tag_154\n      jump\t// in\n    tag_153:\n      0x20\n      mload(0x40)\n      dup1\n      dup4\n      sub\n      dup2\n      0x00\n      dup8\n      dup1\n      extcodesize\n      iszero\n      dup1\n      iszero\n      tag_155\n      jumpi\n      0x00\n      dup1\n      revert\n    tag_155:\n      pop\n      gas\n      call\n      iszero\n      dup1\n      iszero\n      tag_157\n      jumpi\n      returndatasize\n      0x00\n      dup1\n      returndatacopy\n      revert(0x00, returndatasize)\n    tag_157:\n      pop\n      pop\n      pop\n      pop\n      mload(0x40)\n      returndatasize\n      not(0x1f)\n      0x1f\n      dup3\n      add\n      and\n      dup3\n      add\n      dup1\n      0x40\n      mstore\n      pop\n      dup2\n      add\n      swap1\n      tag_158\n      swap2\n      swap1\n      tag_159\n      jump\t// in\n    tag_158:\n      pop\n        /* \"VestingFlatten.sol\":11233:11240  balance */\n      dup5\n        /* \"VestingFlatten.sol\":11204:11216  vestingInfo_ */\n      dup4\n        /* \"VestingFlatten.sol\":11204:11229  vestingInfo_.addedBalance */\n      0x03\n      add\n      0x00\n        /* \"VestingFlatten.sol\":11204:11240  vestingInfo_.addedBalance += balance */\n      dup3\n      dup3\n      sload\n      tag_160\n      swap2\n      swap1\n      tag_128\n      jump\t// in\n    tag_160:\n      swap3\n      pop\n      pop\n      dup2\n      swap1\n      sstore\n      pop\n        /* \"VestingFlatten.sol\":11322:11333  vestingType */\n      dup6\n        /* \"VestingFlatten.sol\":11282:11301  vestingAccountInfos */\n      0x03\n        /* \"VestingFlatten.sol\":11282:11307  vestingAccountInfos[addr] */\n      0x00\n        /* \"VestingFlatten.sol\":11302:11306  addr */\n      dup7\n        /* \"VestingFlatten.sol\":11282:11307  vestingAccountInfos[addr] */\n      0xffffffffffffffffffffffffffffffffffffffff\n      and\n      0xffffffffffffffffffffffffffffffffffffffff\n      and\n      dup2\n      mstore\n      0x20\n      add\n      swap1\n      dup2\n      mstore\n      0x20\n      add\n      0x00\n      keccak256\n        /* \"VestingFlatten.sol\":11282:11319  vestingAccountInfos[addr].vestingType */\n      0x00\n      add\n      0x00\n        /* \"VestingFlatten.sol\":11282:11333  vestingAccountInfos[addr].vestingType = vestingType */\n      0x0100\n      exp\n      dup2\n      sload\n      dup2\n      0xff\n      mul\n      not\n      and\n      swap1\n      dup4\n      0xff\n      and\n      mul\n      or\n      swap1\n      sstore\n      pop\n        /* \"VestingFlatten.sol\":11380:11387  balance */\n      dup5\n        /* \"VestingFlatten.sol\":11339:11358  vestingAccountInfos */\n      0x03\n        /* \"VestingFlatten.sol\":11339:11364  vestingAccountInfos[addr] */\n      0x00\n        /* \"VestingFlatten.sol\":11359:11363  addr */\n      dup7\n        /* \"VestingFlatten.sol\":11339:11364  vestingAccountInfos[addr] */\n      0xffffffffffffffffffffffffffffffffffffffff\n      and\n      0xffffffffffffffffffffffffffffffffffffffff\n      and\n      dup2\n      mstore\n      0x20\n      add\n      swap1\n      dup2\n      mstore\n      0x20\n      add\n      0x00\n      keccak256\n        /* \"VestingFlatten.sol\":11339:11377  vestingAccountInfos[addr].totalBalance */\n      0x01\n      add\n        /* \"VestingFlatten.sol\":11339:11387  vestingAccountInfos[addr].totalBalance = balance */\n      dup2\n      swap1\n      sstore\n      pop\n        /* \"VestingFlatten.sol\":11399:11442  AddVestingEvent(addr, vestingType, balance) */\n      0x6321abc6e6451958312c6074eb5126d3065af5754dbde8e64e7ab1fd0555f8e6\n        /* \"VestingFlatten.sol\":11415:11419  addr */\n      dup5\n        /* \"VestingFlatten.sol\":11421:11432  vestingType */\n      dup8\n        /* \"VestingFlatten.sol\":11434:11441  balance */\n      dup8\n        /* \"VestingFlatten.sol\":11399:11442  AddVestingEvent(addr, vestingType, balance) */\n      mload(0x40)\n      tag_161\n      swap4\n      swap3\n      swap2\n      swap1\n      tag_162\n      jump\t// in\n    tag_161:\n      mload(0x40)\n      dup1\n      swap2\n      sub\n      swap1\n      log1\n        /* \"VestingFlatten.sol\":10010:11447  {... */\n      pop\n      pop\n      pop\n        /* \"VestingFlatten.sol\":9930:11447  function add(uint8 vestingType, uint256 balance, address addr) public onlyOwner {... */\n      pop\n      pop\n      pop\n      jump\t// out\n        /* \"VestingFlatten.sol\":11451:12672  function claim() public {... */\n    tag_46:\n        /* \"VestingFlatten.sol\":11582:11583  0 */\n      0x00\n        /* \"VestingFlatten.sol\":11536:11555  vestingAccountInfos */\n      0x03\n        /* \"VestingFlatten.sol\":11536:11567  vestingAccountInfos[msg.sender] */\n      0x00\n        /* \"VestingFlatten.sol\":11556:11566  msg.sender */\n      caller\n        /* \"VestingFlatten.sol\":11536:11567  vestingAccountInfos[msg.sender] */\n      0xffffffffffffffffffffffffffffffffffffffff\n      and\n      0xffffffffffffffffffffffffffffffffffffffff\n      and\n      dup2\n      mstore\n      0x20\n      add\n      swap1\n      dup2\n      mstore\n      0x20\n      add\n      0x00\n      keccak256\n        /* \"VestingFlatten.sol\":11536:11579  vestingAccountInfos[msg.sender].createdTime */\n      0x03\n      add\n      sload\n        /* \"VestingFlatten.sol\":11536:11583  vestingAccountInfos[msg.sender].createdTime > 0 */\n      gt\n        /* \"VestingFlatten.sol\":11528:11598  require(vestingAccountInfos[msg.sender].createdTime > 0, \"no vesting\") */\n      tag_164\n      jumpi\n      mload(0x40)\n      0x08c379a000000000000000000000000000000000000000000000000000000000\n      dup2\n      mstore\n      0x04\n      add\n      tag_165\n      swap1\n      tag_166\n      jump\t// in\n    tag_165:\n      mload(0x40)\n      dup1\n      swap2\n      sub\n      swap1\n      revert\n    tag_164:\n        /* \"VestingFlatten.sol\":11637:11668  VestingInfo storage vestingInfo */\n      0x00\n        /* \"VestingFlatten.sol\":11671:11683  vestingInfos */\n      0x02\n        /* \"VestingFlatten.sol\":11671:11728  vestingInfos[vestingAccountInfos[msg.sender].vestingType] */\n      0x00\n        /* \"VestingFlatten.sol\":11684:11703  vestingAccountInfos */\n      0x03\n        /* \"VestingFlatten.sol\":11684:11715  vestingAccountInfos[msg.sender] */\n      0x00\n        /* \"VestingFlatten.sol\":11704:11714  msg.sender */\n      caller\n        /* \"VestingFlatten.sol\":11684:11715  vestingAccountInfos[msg.sender] */\n      0xffffffffffffffffffffffffffffffffffffffff\n      and\n      0xffffffffffffffffffffffffffffffffffffffff\n      and\n      dup2\n      mstore\n      0x20\n      add\n      swap1\n      dup2\n      mstore\n      0x20\n      add\n      0x00\n      keccak256\n        /* \"VestingFlatten.sol\":11684:11727  vestingAccountInfos[msg.sender].vestingType */\n      0x00\n      add\n      0x00\n      swap1\n      sload\n      swap1\n      0x0100\n      exp\n      swap1\n      div\n      0xff\n      and\n        /* \"VestingFlatten.sol\":11671:11728  vestingInfos[vestingAccountInfos[msg.sender].vestingType] */\n      0xff\n      and\n      0xff\n      and\n      dup2\n      mstore\n      0x20\n      add\n      swap1\n      dup2\n      mstore\n      0x20\n      add\n      0x00\n      keccak256\n        /* \"VestingFlatten.sol\":11637:11728  VestingInfo storage vestingInfo = vestingInfos[vestingAccountInfos[msg.sender].vestingType] */\n      swap1\n      pop\n        /* \"VestingFlatten.sol\":11766:11767  0 */\n      0x00\n        /* \"VestingFlatten.sol\":11742:11753  vestingInfo */\n      dup2\n        /* \"VestingFlatten.sol\":11742:11763  vestingInfo.startTime */\n      0x00\n      add\n      sload\n        /* \"VestingFlatten.sol\":11742:11767  vestingInfo.startTime > 0 */\n      gt\n        /* \"VestingFlatten.sol\":11742:11811  vestingInfo.startTime > 0 && vestingInfo.startTime <= block.timestamp */\n      dup1\n      iszero\n      tag_167\n      jumpi\n      pop\n        /* \"VestingFlatten.sol\":11796:11811  block.timestamp */\n      timestamp\n        /* \"VestingFlatten.sol\":11771:11782  vestingInfo */\n      dup2\n        /* \"VestingFlatten.sol\":11771:11792  vestingInfo.startTime */\n      0x00\n      add\n      sload\n        /* \"VestingFlatten.sol\":11771:11811  vestingInfo.startTime <= block.timestamp */\n      gt\n      iszero\n        /* \"VestingFlatten.sol\":11742:11811  vestingInfo.startTime > 0 && vestingInfo.startTime <= block.timestamp */\n    tag_167:\n        /* \"VestingFlatten.sol\":11734:11831  require(vestingInfo.startTime > 0 && vestingInfo.startTime <= block.timestamp, \"not started yet\") */\n      tag_168\n      jumpi\n      mload(0x40)\n      0x08c379a000000000000000000000000000000000000000000000000000000000\n      dup2\n      mstore\n      0x04\n      add\n      tag_169\n      swap1\n      tag_170\n      jump\t// in\n    tag_169:\n      mload(0x40)\n      dup1\n      swap2\n      sub\n      swap1\n      revert\n    tag_168:\n        /* \"VestingFlatten.sol\":11869:11884  uint256 balance */\n      0x00\n        /* \"VestingFlatten.sol\":11887:11918  getClaimableBalance(msg.sender) */\n      tag_171\n        /* \"VestingFlatten.sol\":11907:11917  msg.sender */\n      caller\n        /* \"VestingFlatten.sol\":11887:11906  getClaimableBalance */\n      tag_23\n        /* \"VestingFlatten.sol\":11887:11918  getClaimableBalance(msg.sender) */\n      jump\t// in\n    tag_171:\n        /* \"VestingFlatten.sol\":11869:11918  uint256 balance = getClaimableBalance(msg.sender) */\n      swap1\n      pop\n        /* \"VestingFlatten.sol\":11942:11943  0 */\n      0x00\n        /* \"VestingFlatten.sol\":11932:11939  balance */\n      dup2\n        /* \"VestingFlatten.sol\":11932:11943  balance > 0 */\n      gt\n        /* \"VestingFlatten.sol\":11924:11958  require(balance > 0, \"no balance\") */\n      tag_172\n      jumpi\n      mload(0x40)\n      0x08c379a000000000000000000000000000000000000000000000000000000000\n      dup2\n      mstore\n      0x04\n      add\n      tag_173\n      swap1\n      tag_174\n      jump\t// in\n    tag_173:\n      mload(0x40)\n      dup1\n      swap2\n      sub\n      swap1\n      revert\n    tag_172:\n        /* \"VestingFlatten.sol\":12012:12023  vestingInfo */\n      dup2\n        /* \"VestingFlatten.sol\":12012:12036  vestingInfo.totalBalance */\n      0x02\n      add\n      sload\n        /* \"VestingFlatten.sol\":12001:12008  balance */\n      dup2\n        /* \"VestingFlatten.sol\":11972:11983  vestingInfo */\n      dup4\n        /* \"VestingFlatten.sol\":11972:11998  vestingInfo.claimedBalance */\n      0x04\n      add\n      sload\n        /* \"VestingFlatten.sol\":11972:12008  vestingInfo.claimedBalance + balance */\n      tag_175\n      swap2\n      swap1\n      tag_128\n      jump\t// in\n    tag_175:\n        /* \"VestingFlatten.sol\":11972:12036  vestingInfo.claimedBalance + balance <= vestingInfo.totalBalance */\n      gt\n      iszero\n        /* \"VestingFlatten.sol\":11964:12059  require(vestingInfo.claimedBalance + balance <= vestingInfo.totalBalance, \"over total balance\") */\n      tag_176\n      jumpi\n      mload(0x40)\n      0x08c379a000000000000000000000000000000000000000000000000000000000\n      dup2\n      mstore\n      0x04\n      add\n      tag_177\n      swap1\n      tag_131\n      jump\t// in\n    tag_177:\n      mload(0x40)\n      dup1\n      swap2\n      sub\n      swap1\n      revert\n    tag_176:\n        /* \"VestingFlatten.sol\":12133:12152  vestingAccountInfos */\n      0x03\n        /* \"VestingFlatten.sol\":12133:12164  vestingAccountInfos[msg.sender] */\n      0x00\n        /* \"VestingFlatten.sol\":12153:12163  msg.sender */\n      caller\n        /* \"VestingFlatten.sol\":12133:12164  vestingAccountInfos[msg.sender] */\n      0xffffffffffffffffffffffffffffffffffffffff\n      and\n      0xffffffffffffffffffffffffffffffffffffffff\n      and\n      dup2\n      mstore\n      0x20\n      add\n      swap1\n      dup2\n      mstore\n      0x20\n      add\n      0x00\n      keccak256\n        /* \"VestingFlatten.sol\":12133:12177  vestingAccountInfos[msg.sender].totalBalance */\n      0x01\n      add\n      sload\n        /* \"VestingFlatten.sol\":12122:12129  balance */\n      dup2\n        /* \"VestingFlatten.sol\":12073:12092  vestingAccountInfos */\n      0x03\n        /* \"VestingFlatten.sol\":12073:12104  vestingAccountInfos[msg.sender] */\n      0x00\n        /* \"VestingFlatten.sol\":12093:12103  msg.sender */\n      caller\n        /* \"VestingFlatten.sol\":12073:12104  vestingAccountInfos[msg.sender] */\n      0xffffffffffffffffffffffffffffffffffffffff\n      and\n      0xffffffffffffffffffffffffffffffffffffffff\n      and\n      dup2\n      mstore\n      0x20\n      add\n      swap1\n      dup2\n      mstore\n      0x20\n      add\n      0x00\n      keccak256\n        /* \"VestingFlatten.sol\":12073:12119  vestingAccountInfos[msg.sender].claimedBalance */\n      0x02\n      add\n      sload\n        /* \"VestingFlatten.sol\":12073:12129  vestingAccountInfos[msg.sender].claimedBalance + balance */\n      tag_178\n      swap2\n      swap1\n      tag_128\n      jump\t// in\n    tag_178:\n        /* \"VestingFlatten.sol\":12073:12177  vestingAccountInfos[msg.sender].claimedBalance + balance <= vestingAccountInfos[msg.sender].totalBalance */\n      gt\n      iszero\n        /* \"VestingFlatten.sol\":12065:12208  require(vestingAccountInfos[msg.sender].claimedBalance + balance <= vestingAccountInfos[msg.sender].totalBalance, \"over account total balance\") */\n      tag_179\n      jumpi\n      mload(0x40)\n      0x08c379a000000000000000000000000000000000000000000000000000000000\n      dup2\n      mstore\n      0x04\n      add\n      tag_180\n      swap1\n      tag_181\n      jump\t// in\n    tag_180:\n      mload(0x40)\n      dup1\n      swap2\n      sub\n      swap1\n      revert\n    tag_179:\n        /* \"VestingFlatten.sol\":12292:12299  balance */\n      dup1\n        /* \"VestingFlatten.sol\":12262:12273  vestingInfo */\n      dup3\n        /* \"VestingFlatten.sol\":12262:12288  vestingInfo.claimedBalance */\n      0x04\n      add\n      0x00\n        /* \"VestingFlatten.sol\":12262:12299  vestingInfo.claimedBalance += balance */\n      dup3\n      dup3\n      sload\n      tag_182\n      swap2\n      swap1\n      tag_128\n      jump\t// in\n    tag_182:\n      swap3\n      pop\n      pop\n      dup2\n      swap1\n      sstore\n      pop\n        /* \"VestingFlatten.sol\":12397:12404  balance */\n      dup1\n        /* \"VestingFlatten.sol\":12347:12366  vestingAccountInfos */\n      0x03\n        /* \"VestingFlatten.sol\":12347:12378  vestingAccountInfos[msg.sender] */\n      0x00\n        /* \"VestingFlatten.sol\":12367:12377  msg.sender */\n      caller\n        /* \"VestingFlatten.sol\":12347:12378  vestingAccountInfos[msg.sender] */\n      0xffffffffffffffffffffffffffffffffffffffff\n      and\n      0xffffffffffffffffffffffffffffffffffffffff\n      and\n      dup2\n      mstore\n      0x20\n      add\n      swap1\n      dup2\n      mstore\n      0x20\n      add\n      0x00\n      keccak256\n        /* \"VestingFlatten.sol\":12347:12393  vestingAccountInfos[msg.sender].claimedBalance */\n      0x02\n      add\n      0x00\n        /* \"VestingFlatten.sol\":12347:12404  vestingAccountInfos[msg.sender].claimedBalance += balance */\n      dup3\n      dup3\n      sload\n      tag_183\n      swap2\n      swap1\n      tag_128\n      jump\t// in\n    tag_183:\n      swap3\n      pop\n      pop\n      dup2\n      swap1\n      sstore\n      pop\n        /* \"VestingFlatten.sol\":12460:12475  block.timestamp */\n      timestamp\n        /* \"VestingFlatten.sol\":12410:12429  vestingAccountInfos */\n      0x03\n        /* \"VestingFlatten.sol\":12410:12441  vestingAccountInfos[msg.sender] */\n      0x00\n        /* \"VestingFlatten.sol\":12430:12440  msg.sender */\n      caller\n        /* \"VestingFlatten.sol\":12410:12441  vestingAccountInfos[msg.sender] */\n      0xffffffffffffffffffffffffffffffffffffffff\n      and\n      0xffffffffffffffffffffffffffffffffffffffff\n      and\n      dup2\n      mstore\n      0x20\n      add\n      swap1\n      dup2\n      mstore\n      0x20\n      add\n      0x00\n      keccak256\n        /* \"VestingFlatten.sol\":12410:12457  vestingAccountInfos[msg.sender].lastClaimedTime */\n      0x04\n      add\n        /* \"VestingFlatten.sol\":12410:12475  vestingAccountInfos[msg.sender].lastClaimedTime = block.timestamp */\n      dup2\n      swap1\n      sstore\n      pop\n        /* \"VestingFlatten.sol\":12538:12548  dstAddress */\n      0x01\n      0x00\n      swap1\n      sload\n      swap1\n      0x0100\n      exp\n      swap1\n      div\n      0xffffffffffffffffffffffffffffffffffffffff\n      and\n        /* \"VestingFlatten.sol\":12531:12558  IERC20(dstAddress).transfer */\n      0xffffffffffffffffffffffffffffffffffffffff\n      and\n      0xa9059cbb\n        /* \"VestingFlatten.sol\":12559:12569  msg.sender */\n      caller\n        /* \"VestingFlatten.sol\":12571:12578  balance */\n      dup4\n        /* \"VestingFlatten.sol\":12531:12579  IERC20(dstAddress).transfer(msg.sender, balance) */\n      mload(0x40)\n      dup4\n      0xffffffff\n      and\n      0xe0\n      shl\n      dup2\n      mstore\n      0x04\n      add\n      tag_184\n      swap3\n      swap2\n      swap1\n      tag_185\n      jump\t// in\n    tag_184:\n      0x20\n      mload(0x40)\n      dup1\n      dup4\n      sub\n      dup2\n      0x00\n      dup8\n      dup1\n      extcodesize\n      iszero\n      dup1\n      iszero\n      tag_186\n      jumpi\n      0x00\n      dup1\n      revert\n    tag_186:\n      pop\n      gas\n      call\n      iszero\n      dup1\n      iszero\n      tag_188\n      jumpi\n      returndatasize\n      0x00\n      dup1\n      returndatacopy\n      revert(0x00, returndatasize)\n    tag_188:\n      pop\n      pop\n      pop\n      pop\n      mload(0x40)\n      returndatasize\n      not(0x1f)\n      0x1f\n      dup3\n      add\n      and\n      dup3\n      add\n      dup1\n      0x40\n      mstore\n      pop\n      dup2\n      add\n      swap1\n      tag_189\n      swap2\n      swap1\n      tag_159\n      jump\t// in\n    tag_189:\n      pop\n        /* \"VestingFlatten.sol\":12591:12667  ClaimEvent(msg.sender, vestingAccountInfos[msg.sender].vestingType, balance) */\n      0x1750bdf23084d7500224d30291adfe9dbfff501588448b624dddf18ea32320fa\n        /* \"VestingFlatten.sol\":12602:12612  msg.sender */\n      caller\n        /* \"VestingFlatten.sol\":12614:12633  vestingAccountInfos */\n      0x03\n        /* \"VestingFlatten.sol\":12614:12645  vestingAccountInfos[msg.sender] */\n      0x00\n        /* \"VestingFlatten.sol\":12634:12644  msg.sender */\n      caller\n        /* \"VestingFlatten.sol\":12614:12645  vestingAccountInfos[msg.sender] */\n      0xffffffffffffffffffffffffffffffffffffffff\n      and\n      0xffffffffffffffffffffffffffffffffffffffff\n      and\n      dup2\n      mstore\n      0x20\n      add\n      swap1\n      dup2\n      mstore\n      0x20\n      add\n      0x00\n      keccak256\n        /* \"VestingFlatten.sol\":12614:12657  vestingAccountInfos[msg.sender].vestingType */\n      0x00\n      add\n      0x00\n      swap1\n      sload\n      swap1\n      0x0100\n      exp\n      swap1\n      div\n      0xff\n      and\n        /* \"VestingFlatten.sol\":12659:12666  balance */\n      dup4\n        /* \"VestingFlatten.sol\":12591:12667  ClaimEvent(msg.sender, vestingAccountInfos[msg.sender].vestingType, balance) */\n      mload(0x40)\n      tag_190\n      swap4\n      swap3\n      swap2\n      swap1\n      tag_162\n      jump\t// in\n    tag_190:\n      mload(0x40)\n      dup1\n      swap2\n      sub\n      swap1\n      log1\n        /* \"VestingFlatten.sol\":11475:12672  {... */\n      pop\n      pop\n        /* \"VestingFlatten.sol\":11451:12672  function claim() public {... */\n      jump\t// out\n        /* \"VestingFlatten.sol\":13067:14684  function _getClaimableBalance(uint8 vestingType, uint256 totalBalance, uint256 claimedBalance, uint256 time) public view returns (uint256) {... */\n    tag_50:\n        /* \"VestingFlatten.sol\":13197:13204  uint256 */\n      0x00\n        /* \"VestingFlatten.sol\":13267:13291  VestingType.PRIVATE_SALE */\n      dup1\n        /* \"VestingFlatten.sol\":13261:13292  uint8(VestingType.PRIVATE_SALE) */\n      0x03\n      dup2\n      gt\n      iszero\n      tag_192\n      jumpi\n      tag_193\n      tag_87\n      jump\t// in\n    tag_193:\n    tag_192:\n        /* \"VestingFlatten.sol\":13246:13292  vestingType >= uint8(VestingType.PRIVATE_SALE) */\n      0xff\n      and\n        /* \"VestingFlatten.sol\":13246:13257  vestingType */\n      dup6\n        /* \"VestingFlatten.sol\":13246:13292  vestingType >= uint8(VestingType.PRIVATE_SALE) */\n      0xff\n      and\n      lt\n      iszero\n        /* \"VestingFlatten.sol\":13246:13338  vestingType >= uint8(VestingType.PRIVATE_SALE) && vestingType <= uint8(VestingType.TREASURY) */\n      dup1\n      iszero\n      tag_194\n      jumpi\n      pop\n        /* \"VestingFlatten.sol\":13317:13337  VestingType.TREASURY */\n      0x03\n        /* \"VestingFlatten.sol\":13311:13338  uint8(VestingType.TREASURY) */\n      dup1\n      dup2\n      gt\n      iszero\n      tag_195\n      jumpi\n      tag_196\n      tag_87\n      jump\t// in\n    tag_196:\n    tag_195:\n        /* \"VestingFlatten.sol\":13296:13338  vestingType <= uint8(VestingType.TREASURY) */\n      0xff\n      and\n        /* \"VestingFlatten.sol\":13296:13307  vestingType */\n      dup6\n        /* \"VestingFlatten.sol\":13296:13338  vestingType <= uint8(VestingType.TREASURY) */\n      0xff\n      and\n      gt\n      iszero\n        /* \"VestingFlatten.sol\":13246:13338  vestingType >= uint8(VestingType.PRIVATE_SALE) && vestingType <= uint8(VestingType.TREASURY) */\n    tag_194:\n        /* \"VestingFlatten.sol\":13238:13361  require(vestingType >= uint8(VestingType.PRIVATE_SALE) && vestingType <= uint8(VestingType.TREASURY), \"wrong vesting type\") */\n      tag_197\n      jumpi\n      mload(0x40)\n      0x08c379a000000000000000000000000000000000000000000000000000000000\n      dup2\n      mstore\n      0x04\n      add\n      tag_198\n      swap1\n      tag_93\n      jump\t// in\n    tag_198:\n      mload(0x40)\n      dup1\n      swap2\n      sub\n      swap1\n      revert\n    tag_197:\n        /* \"VestingFlatten.sol\":13368:13398  VestingInfo memory vestingInfo */\n      0x00\n        /* \"VestingFlatten.sol\":13401:13413  vestingInfos */\n      0x02\n        /* \"VestingFlatten.sol\":13401:13426  vestingInfos[vestingType] */\n      0x00\n        /* \"VestingFlatten.sol\":13414:13425  vestingType */\n      dup8\n        /* \"VestingFlatten.sol\":13401:13426  vestingInfos[vestingType] */\n      0xff\n      and\n      0xff\n      and\n      dup2\n      mstore\n      0x20\n      add\n      swap1\n      dup2\n      mstore\n      0x20\n      add\n      0x00\n      keccak256\n        /* \"VestingFlatten.sol\":13368:13426  VestingInfo memory vestingInfo = vestingInfos[vestingType] */\n      mload(0x40)\n      dup1\n      0xe0\n      add\n      0x40\n      mstore\n      swap1\n      dup2\n      0x00\n      dup3\n      add\n      sload\n      dup2\n      mstore\n      0x20\n      add\n      0x01\n      dup3\n      add\n      0x00\n      swap1\n      sload\n      swap1\n      0x0100\n      exp\n      swap1\n      div\n      0xff\n      and\n      0xff\n      and\n      0xff\n      and\n      dup2\n      mstore\n      0x20\n      add\n      0x02\n      dup3\n      add\n      sload\n      dup2\n      mstore\n      0x20\n      add\n      0x03\n      dup3\n      add\n      sload\n      dup2\n      mstore\n      0x20\n      add\n      0x04\n      dup3\n      add\n      sload\n      dup2\n      mstore\n      0x20\n      add\n      0x05\n      dup3\n      add\n      0x00\n      swap1\n      sload\n      swap1\n      0x0100\n      exp\n      swap1\n      div\n      0xffff\n      and\n      0xffff\n      and\n      0xffff\n      and\n      dup2\n      mstore\n      0x20\n      add\n      0x05\n      dup3\n      add\n      0x02\n      swap1\n      sload\n      swap1\n      0x0100\n      exp\n      swap1\n      div\n      0xffff\n      and\n      0xffff\n      and\n      0xffff\n      and\n      dup2\n      mstore\n      pop\n      pop\n      swap1\n      pop\n        /* \"VestingFlatten.sol\":13461:13462  0 */\n      0x00\n        /* \"VestingFlatten.sol\":13436:13447  vestingInfo */\n      dup2\n        /* \"VestingFlatten.sol\":13436:13457  vestingInfo.startTime */\n      0x00\n      add\n      mload\n        /* \"VestingFlatten.sol\":13436:13462  vestingInfo.startTime == 0 */\n      eq\n        /* \"VestingFlatten.sol\":13436:13494  vestingInfo.startTime == 0 || time < vestingInfo.startTime */\n      dup1\n      tag_199\n      jumpi\n      pop\n        /* \"VestingFlatten.sol\":13473:13484  vestingInfo */\n      dup1\n        /* \"VestingFlatten.sol\":13473:13494  vestingInfo.startTime */\n      0x00\n      add\n      mload\n        /* \"VestingFlatten.sol\":13466:13470  time */\n      dup4\n        /* \"VestingFlatten.sol\":13466:13494  time < vestingInfo.startTime */\n      lt\n        /* \"VestingFlatten.sol\":13436:13494  vestingInfo.startTime == 0 || time < vestingInfo.startTime */\n    tag_199:\n        /* \"VestingFlatten.sol\":13432:13519  if (vestingInfo.startTime == 0 || time < vestingInfo.startTime) {... */\n      iszero\n      tag_200\n      jumpi\n        /* \"VestingFlatten.sol\":13511:13512  0 */\n      0x00\n        /* \"VestingFlatten.sol\":13504:13512  return 0 */\n      swap2\n      pop\n      pop\n      jump(tag_191)\n        /* \"VestingFlatten.sol\":13432:13519  if (vestingInfo.startTime == 0 || time < vestingInfo.startTime) {... */\n    tag_200:\n        /* \"VestingFlatten.sol\":13525:13540  uint256 balance */\n      0x00\n        /* \"VestingFlatten.sol\":13575:13596  VestingType.MARKETING */\n      0x02\n        /* \"VestingFlatten.sol\":13569:13597  uint8(VestingType.MARKETING) */\n      0x03\n      dup2\n      gt\n      iszero\n      tag_201\n      jumpi\n      tag_202\n      tag_87\n      jump\t// in\n    tag_202:\n    tag_201:\n        /* \"VestingFlatten.sol\":13554:13597  vestingType == uint8(VestingType.MARKETING) */\n      0xff\n      and\n        /* \"VestingFlatten.sol\":13554:13565  vestingType */\n      dup8\n        /* \"VestingFlatten.sol\":13554:13597  vestingType == uint8(VestingType.MARKETING) */\n      0xff\n      and\n      eq\n        /* \"VestingFlatten.sol\":13550:14363  if (vestingType == uint8(VestingType.MARKETING)) {... */\n      iszero\n      tag_203\n      jumpi\n        /* \"VestingFlatten.sol\":13676:13693  uint256 monthDiff */\n      0x00\n        /* \"VestingFlatten.sol\":13740:13741  1 */\n      0x01\n        /* \"VestingFlatten.sol\":13729:13737  120 days */\n      0x9e3400\n        /* \"VestingFlatten.sol\":13704:13715  vestingInfo */\n      dup5\n        /* \"VestingFlatten.sol\":13704:13725  vestingInfo.startTime */\n      0x00\n      add\n      mload\n        /* \"VestingFlatten.sol\":13697:13701  time */\n      dup8\n        /* \"VestingFlatten.sol\":13697:13725  time - vestingInfo.startTime */\n      tag_204\n      swap2\n      swap1\n      tag_205\n      jump\t// in\n    tag_204:\n        /* \"VestingFlatten.sol\":13696:13737  (time - vestingInfo.startTime) / 120 days */\n      tag_206\n      swap2\n      swap1\n      tag_207\n      jump\t// in\n    tag_206:\n        /* \"VestingFlatten.sol\":13696:13741  (time - vestingInfo.startTime) / 120 days + 1 */\n      tag_208\n      swap2\n      swap1\n      tag_128\n      jump\t// in\n    tag_208:\n        /* \"VestingFlatten.sol\":13676:13741  uint256 monthDiff = (time - vestingInfo.startTime) / 120 days + 1 */\n      swap1\n      pop\n        /* \"VestingFlatten.sol\":13806:13815  monthDiff */\n      dup1\n        /* \"VestingFlatten.sol\":13783:13794  vestingInfo */\n      dup4\n        /* \"VestingFlatten.sol\":13783:13803  vestingInfo.periodBp */\n      0xc0\n      add\n      mload\n        /* \"VestingFlatten.sol\":13760:13803  totalBalance / 10000 * vestingInfo.periodBp */\n      0xffff\n      and\n        /* \"VestingFlatten.sol\":13775:13780  10000 */\n      0x2710\n        /* \"VestingFlatten.sol\":13760:13772  totalBalance */\n      dup10\n        /* \"VestingFlatten.sol\":13760:13780  totalBalance / 10000 */\n      tag_209\n      swap2\n      swap1\n      tag_207\n      jump\t// in\n    tag_209:\n        /* \"VestingFlatten.sol\":13760:13803  totalBalance / 10000 * vestingInfo.periodBp */\n      tag_210\n      swap2\n      swap1\n      tag_211\n      jump\t// in\n    tag_210:\n        /* \"VestingFlatten.sol\":13760:13815  totalBalance / 10000 * vestingInfo.periodBp * monthDiff */\n      tag_212\n      swap2\n      swap1\n      tag_211\n      jump\t// in\n    tag_212:\n        /* \"VestingFlatten.sol\":13749:13815  balance += totalBalance / 10000 * vestingInfo.periodBp * monthDiff */\n      dup3\n      tag_213\n      swap2\n      swap1\n      tag_128\n      jump\t// in\n    tag_213:\n      swap2\n      pop\n        /* \"VestingFlatten.sol\":13599:13822  {... */\n      pop\n        /* \"VestingFlatten.sol\":13550:14363  if (vestingType == uint8(VestingType.MARKETING)) {... */\n      jump(tag_214)\n    tag_203:\n        /* \"VestingFlatten.sol\":13907:13918  vestingInfo */\n      dup2\n        /* \"VestingFlatten.sol\":13907:13928  vestingInfo.initialBp */\n      0xa0\n      add\n      mload\n        /* \"VestingFlatten.sol\":13884:13928  totalBalance / 10000 * vestingInfo.initialBp */\n      0xffff\n      and\n        /* \"VestingFlatten.sol\":13899:13904  10000 */\n      0x2710\n        /* \"VestingFlatten.sol\":13884:13896  totalBalance */\n      dup8\n        /* \"VestingFlatten.sol\":13884:13904  totalBalance / 10000 */\n      tag_215\n      swap2\n      swap1\n      tag_207\n      jump\t// in\n    tag_215:\n        /* \"VestingFlatten.sol\":13884:13928  totalBalance / 10000 * vestingInfo.initialBp */\n      tag_216\n      swap2\n      swap1\n      tag_211\n      jump\t// in\n    tag_216:\n        /* \"VestingFlatten.sol\":13873:13928  balance += totalBalance / 10000 * vestingInfo.initialBp */\n      dup2\n      tag_217\n      swap2\n      swap1\n      tag_128\n      jump\t// in\n    tag_217:\n      swap1\n      pop\n        /* \"VestingFlatten.sol\":13975:13999  uint256 vestingStartTime */\n      0x00\n        /* \"VestingFlatten.sol\":14067:14074  30 days */\n      0x278d00\n        /* \"VestingFlatten.sol\":14034:14045  vestingInfo */\n      dup4\n        /* \"VestingFlatten.sol\":14034:14063  vestingInfo.vestingStartMonth */\n      0x20\n      add\n      mload\n        /* \"VestingFlatten.sol\":14026:14064  uint256(vestingInfo.vestingStartMonth) */\n      0xff\n      and\n        /* \"VestingFlatten.sol\":14026:14074  uint256(vestingInfo.vestingStartMonth) * 30 days */\n      tag_218\n      swap2\n      swap1\n      tag_211\n      jump\t// in\n    tag_218:\n        /* \"VestingFlatten.sol\":14002:14013  vestingInfo */\n      dup4\n        /* \"VestingFlatten.sol\":14002:14023  vestingInfo.startTime */\n      0x00\n      add\n      mload\n        /* \"VestingFlatten.sol\":14002:14074  vestingInfo.startTime + uint256(vestingInfo.vestingStartMonth) * 30 days */\n      tag_219\n      swap2\n      swap1\n      tag_128\n      jump\t// in\n    tag_219:\n        /* \"VestingFlatten.sol\":13975:14074  uint256 vestingStartTime = vestingInfo.startTime + uint256(vestingInfo.vestingStartMonth) * 30 days */\n      swap1\n      pop\n        /* \"VestingFlatten.sol\":14188:14204  vestingStartTime */\n      dup1\n        /* \"VestingFlatten.sol\":14181:14185  time */\n      dup6\n        /* \"VestingFlatten.sol\":14181:14204  time > vestingStartTime */\n      gt\n        /* \"VestingFlatten.sol\":14177:14357  if (time > vestingStartTime) {... */\n      iszero\n      tag_220\n      jumpi\n        /* \"VestingFlatten.sol\":14216:14230  uint monthDiff */\n      0x00\n        /* \"VestingFlatten.sol\":14271:14272  1 */\n      0x01\n        /* \"VestingFlatten.sol\":14261:14268  30 days */\n      0x278d00\n        /* \"VestingFlatten.sol\":14241:14257  vestingStartTime */\n      dup4\n        /* \"VestingFlatten.sol\":14234:14238  time */\n      dup9\n        /* \"VestingFlatten.sol\":14234:14257  time - vestingStartTime */\n      tag_221\n      swap2\n      swap1\n      tag_205\n      jump\t// in\n    tag_221:\n        /* \"VestingFlatten.sol\":14233:14268  (time - vestingStartTime) / 30 days */\n      tag_222\n      swap2\n      swap1\n      tag_207\n      jump\t// in\n    tag_222:\n        /* \"VestingFlatten.sol\":14233:14272  (time - vestingStartTime) / 30 days + 1 */\n      tag_223\n      swap2\n      swap1\n      tag_128\n      jump\t// in\n    tag_223:\n        /* \"VestingFlatten.sol\":14216:14272  uint monthDiff = (time - vestingStartTime) / 30 days + 1 */\n      swap1\n      pop\n        /* \"VestingFlatten.sol\":14339:14348  monthDiff */\n      dup1\n        /* \"VestingFlatten.sol\":14316:14327  vestingInfo */\n      dup5\n        /* \"VestingFlatten.sol\":14316:14336  vestingInfo.periodBp */\n      0xc0\n      add\n      mload\n        /* \"VestingFlatten.sol\":14293:14336  totalBalance / 10000 * vestingInfo.periodBp */\n      0xffff\n      and\n        /* \"VestingFlatten.sol\":14308:14313  10000 */\n      0x2710\n        /* \"VestingFlatten.sol\":14293:14305  totalBalance */\n      dup11\n        /* \"VestingFlatten.sol\":14293:14313  totalBalance / 10000 */\n      tag_224\n      swap2\n      swap1\n      tag_207\n      jump\t// in\n    tag_224:\n        /* \"VestingFlatten.sol\":14293:14336  totalBalance / 10000 * vestingInfo.periodBp */\n      tag_225\n      swap2\n      swap1\n      tag_211\n      jump\t// in\n    tag_225:\n        /* \"VestingFlatten.sol\":14293:14348  totalBalance / 10000 * vestingInfo.periodBp * monthDiff */\n      tag_226\n      swap2\n      swap1\n      tag_211\n      jump\t// in\n    tag_226:\n        /* \"VestingFlatten.sol\":14282:14348  balance += totalBalance / 10000 * vestingInfo.periodBp * monthDiff */\n      dup4\n      tag_227\n      swap2\n      swap1\n      tag_128\n      jump\t// in\n    tag_227:\n      swap3\n      pop\n        /* \"VestingFlatten.sol\":14206:14357  {... */\n      pop\n        /* \"VestingFlatten.sol\":14177:14357  if (time > vestingStartTime) {... */\n    tag_220:\n        /* \"VestingFlatten.sol\":13828:14363  {... */\n      pop\n        /* \"VestingFlatten.sol\":13550:14363  if (vestingType == uint8(VestingType.MARKETING)) {... */\n    tag_214:\n        /* \"VestingFlatten.sol\":14419:14426  balance */\n      dup1\n        /* \"VestingFlatten.sol\":14401:14415  claimedBalance */\n      dup6\n        /* \"VestingFlatten.sol\":14401:14426  claimedBalance >= balance */\n      lt\n        /* \"VestingFlatten.sol\":14397:14451  if (claimedBalance >= balance) {... */\n      tag_228\n      jumpi\n        /* \"VestingFlatten.sol\":14443:14444  0 */\n      0x00\n        /* \"VestingFlatten.sol\":14436:14444  return 0 */\n      swap3\n      pop\n      pop\n      pop\n      jump(tag_191)\n        /* \"VestingFlatten.sol\":14397:14451  if (claimedBalance >= balance) {... */\n    tag_228:\n        /* \"VestingFlatten.sol\":14499:14513  claimedBalance */\n      dup5\n        /* \"VestingFlatten.sol\":14488:14513  balance -= claimedBalance */\n      dup2\n      tag_229\n      swap2\n      swap1\n      tag_205\n      jump\t// in\n    tag_229:\n      swap1\n      pop\n        /* \"VestingFlatten.sol\":14594:14606  totalBalance */\n      dup6\n        /* \"VestingFlatten.sol\":14577:14591  claimedBalance */\n      dup6\n        /* \"VestingFlatten.sol\":14567:14574  balance */\n      dup3\n        /* \"VestingFlatten.sol\":14567:14591  balance + claimedBalance */\n      tag_230\n      swap2\n      swap1\n      tag_128\n      jump\t// in\n    tag_230:\n        /* \"VestingFlatten.sol\":14567:14606  balance + claimedBalance > totalBalance */\n      gt\n        /* \"VestingFlatten.sol\":14563:14659  if (balance + claimedBalance > totalBalance) {... */\n      iszero\n      tag_231\n      jumpi\n        /* \"VestingFlatten.sol\":14638:14652  claimedBalance */\n      dup5\n        /* \"VestingFlatten.sol\":14623:14635  totalBalance */\n      dup7\n        /* \"VestingFlatten.sol\":14623:14652  totalBalance - claimedBalance */\n      tag_232\n      swap2\n      swap1\n      tag_205\n      jump\t// in\n    tag_232:\n        /* \"VestingFlatten.sol\":14616:14652  return totalBalance - claimedBalance */\n      swap3\n      pop\n      pop\n      pop\n      jump(tag_191)\n        /* \"VestingFlatten.sol\":14563:14659  if (balance + claimedBalance > totalBalance) {... */\n    tag_231:\n        /* \"VestingFlatten.sol\":14672:14679  balance */\n      dup1\n        /* \"VestingFlatten.sol\":14665:14679  return balance */\n      swap3\n      pop\n      pop\n      pop\n        /* \"VestingFlatten.sol\":13067:14684  function _getClaimableBalance(uint8 vestingType, uint256 totalBalance, uint256 claimedBalance, uint256 time) public view returns (uint256) {... */\n    tag_191:\n      swap5\n      swap4\n      pop\n      pop\n      pop\n      pop\n      jump\t// out\n        /* \"VestingFlatten.sol\":7580:7645  mapping(address => VestingAccountInfo) public vestingAccountInfos */\n    tag_54:\n      mstore(0x20, 0x03)\n      dup1\n      0x00\n      mstore\n      keccak256(0x00, 0x40)\n      0x00\n      swap2\n      pop\n      swap1\n      pop\n      dup1\n      0x00\n      add\n      0x00\n      swap1\n      sload\n      swap1\n      0x0100\n      exp\n      swap1\n      div\n      0xff\n      and\n      swap1\n      dup1\n      0x01\n      add\n      sload\n      swap1\n      dup1\n      0x02\n      add\n      sload\n      swap1\n      dup1\n      0x03\n      add\n      sload\n      swap1\n      dup1\n      0x04\n      add\n      sload\n      swap1\n      pop\n      dup6\n      jump\t// out\n        /* \"VestingFlatten.sol\":5523:5624  function renounceOwnership() public virtual onlyOwner {... */\n    tag_58:\n        /* \"VestingFlatten.sol\":4786:4799  _checkOwner() */\n      tag_234\n        /* \"VestingFlatten.sol\":4786:4797  _checkOwner */\n      tag_99\n        /* \"VestingFlatten.sol\":4786:4799  _checkOwner() */\n      jump\t// in\n    tag_234:\n        /* \"VestingFlatten.sol\":5587:5617  _transferOwnership(address(0)) */\n      tag_236\n        /* \"VestingFlatten.sol\":5614:5615  0 */\n      0x00\n        /* \"VestingFlatten.sol\":5587:5605  _transferOwnership */\n      tag_237\n        /* \"VestingFlatten.sol\":5587:5617  _transferOwnership(address(0)) */\n      jump\t// in\n    tag_236:\n        /* \"VestingFlatten.sol\":5523:5624  function renounceOwnership() public virtual onlyOwner {... */\n      jump\t// out\n        /* \"VestingFlatten.sol\":4893:4978  function owner() public view virtual returns (address) {... */\n    tag_60:\n        /* \"VestingFlatten.sol\":4939:4946  address */\n      0x00\n        /* \"VestingFlatten.sol\":4965:4971  _owner */\n      dup1\n      0x00\n      swap1\n      sload\n      swap1\n      0x0100\n      exp\n      swap1\n      div\n      0xffffffffffffffffffffffffffffffffffffffff\n      and\n        /* \"VestingFlatten.sol\":4958:4971  return _owner */\n      swap1\n      pop\n        /* \"VestingFlatten.sol\":4893:4978  function owner() public view virtual returns (address) {... */\n      swap1\n      jump\t// out\n        /* \"VestingFlatten.sol\":7527:7576  mapping(uint8 => VestingInfo) public vestingInfos */\n    tag_65:\n      mstore(0x20, 0x02)\n      dup1\n      0x00\n      mstore\n      keccak256(0x00, 0x40)\n      0x00\n      swap2\n      pop\n      swap1\n      pop\n      dup1\n      0x00\n      add\n      sload\n      swap1\n      dup1\n      0x01\n      add\n      0x00\n      swap1\n      sload\n      swap1\n      0x0100\n      exp\n      swap1\n      div\n      0xff\n      and\n      swap1\n      dup1\n      0x02\n      add\n      sload\n      swap1\n      dup1\n      0x03\n      add\n      sload\n      swap1\n      dup1\n      0x04\n      add\n      sload\n      swap1\n      dup1\n      0x05\n      add\n      0x00\n      swap1\n      sload\n      swap1\n      0x0100\n      exp\n      swap1\n      div\n      0xffff\n      and\n      swap1\n      dup1\n      0x05\n      add\n      0x02\n      swap1\n      sload\n      swap1\n      0x0100\n      exp\n      swap1\n      div\n      0xffff\n      and\n      swap1\n      pop\n      dup8\n      jump\t// out\n        /* \"VestingFlatten.sol\":6663:6688  address public dstAddress */\n    tag_69:\n      0x01\n      0x00\n      swap1\n      sload\n      swap1\n      0x0100\n      exp\n      swap1\n      div\n      0xffffffffffffffffffffffffffffffffffffffff\n      and\n      dup2\n      jump\t// out\n        /* \"VestingFlatten.sol\":9242:9388  function setDSTAddress(address addr) public onlyOwner {... */\n    tag_73:\n        /* \"VestingFlatten.sol\":4786:4799  _checkOwner() */\n      tag_240\n        /* \"VestingFlatten.sol\":4786:4797  _checkOwner */\n      tag_99\n        /* \"VestingFlatten.sol\":4786:4799  _checkOwner() */\n      jump\t// in\n    tag_240:\n        /* \"VestingFlatten.sol\":9339:9343  addr */\n      dup1\n        /* \"VestingFlatten.sol\":9332:9354  IERC20(addr).balanceOf */\n      0xffffffffffffffffffffffffffffffffffffffff\n      and\n      0x70a08231\n        /* \"VestingFlatten.sol\":9355:9359  addr */\n      dup3\n        /* \"VestingFlatten.sol\":9332:9360  IERC20(addr).balanceOf(addr) */\n      mload(0x40)\n      dup3\n      0xffffffff\n      and\n      0xe0\n      shl\n      dup2\n      mstore\n      0x04\n      add\n      tag_242\n      swap2\n      swap1\n      tag_62\n      jump\t// in\n    tag_242:\n      0x20\n      mload(0x40)\n      dup1\n      dup4\n      sub\n      dup2\n      dup7\n      dup1\n      extcodesize\n      iszero\n      dup1\n      iszero\n      tag_243\n      jumpi\n      0x00\n      dup1\n      revert\n    tag_243:\n      pop\n      gas\n      staticcall\n      iszero\n      dup1\n      iszero\n      tag_245\n      jumpi\n      returndatasize\n      0x00\n      dup1\n      returndatacopy\n      revert(0x00, returndatasize)\n    tag_245:\n      pop\n      pop\n      pop\n      pop\n      mload(0x40)\n      returndatasize\n      not(0x1f)\n      0x1f\n      dup3\n      add\n      and\n      dup3\n      add\n      dup1\n      0x40\n      mstore\n      pop\n      dup2\n      add\n      swap1\n      tag_246\n      swap2\n      swap1\n      tag_137\n      jump\t// in\n    tag_246:\n      pop\n        /* \"VestingFlatten.sol\":9379:9383  addr */\n      dup1\n        /* \"VestingFlatten.sol\":9366:9376  dstAddress */\n      0x01\n      0x00\n        /* \"VestingFlatten.sol\":9366:9383  dstAddress = addr */\n      0x0100\n      exp\n      dup2\n      sload\n      dup2\n      0xffffffffffffffffffffffffffffffffffffffff\n      mul\n      not\n      and\n      swap1\n      dup4\n      0xffffffffffffffffffffffffffffffffffffffff\n      and\n      mul\n      or\n      swap1\n      sstore\n      pop\n        /* \"VestingFlatten.sol\":9242:9388  function setDSTAddress(address addr) public onlyOwner {... */\n      pop\n      jump\t// out\n        /* \"VestingFlatten.sol\":5773:5971  function transferOwnership(address newOwner) public virtual onlyOwner {... */\n    tag_76:\n        /* \"VestingFlatten.sol\":4786:4799  _checkOwner() */\n      tag_248\n        /* \"VestingFlatten.sol\":4786:4797  _checkOwner */\n      tag_99\n        /* \"VestingFlatten.sol\":4786:4799  _checkOwner() */\n      jump\t// in\n    tag_248:\n        /* \"VestingFlatten.sol\":5881:5882  0 */\n      0x00\n        /* \"VestingFlatten.sol\":5861:5883  newOwner != address(0) */\n      0xffffffffffffffffffffffffffffffffffffffff\n      and\n        /* \"VestingFlatten.sol\":5861:5869  newOwner */\n      dup2\n        /* \"VestingFlatten.sol\":5861:5883  newOwner != address(0) */\n      0xffffffffffffffffffffffffffffffffffffffff\n      and\n      eq\n      iszero\n        /* \"VestingFlatten.sol\":5853:5926  require(newOwner != address(0), \"Ownable: new owner is the zero address\") */\n      tag_250\n      jumpi\n      mload(0x40)\n      0x08c379a000000000000000000000000000000000000000000000000000000000\n      dup2\n      mstore\n      0x04\n      add\n      tag_251\n      swap1\n      tag_252\n      jump\t// in\n    tag_251:\n      mload(0x40)\n      dup1\n      swap2\n      sub\n      swap1\n      revert\n    tag_250:\n        /* \"VestingFlatten.sol\":5936:5964  _transferOwnership(newOwner) */\n      tag_253\n        /* \"VestingFlatten.sol\":5955:5963  newOwner */\n      dup2\n        /* \"VestingFlatten.sol\":5936:5954  _transferOwnership */\n      tag_237\n        /* \"VestingFlatten.sol\":5936:5964  _transferOwnership(newOwner) */\n      jump\t// in\n    tag_253:\n        /* \"VestingFlatten.sol\":5773:5971  function transferOwnership(address newOwner) public virtual onlyOwner {... */\n      pop\n      jump\t// out\n        /* \"VestingFlatten.sol\":5051:5181  function _checkOwner() internal view virtual {... */\n    tag_99:\n        /* \"VestingFlatten.sol\":5125:5137  _msgSender() */\n      tag_255\n        /* \"VestingFlatten.sol\":5125:5135  _msgSender */\n      tag_256\n        /* \"VestingFlatten.sol\":5125:5137  _msgSender() */\n      jump\t// in\n    tag_255:\n        /* \"VestingFlatten.sol\":5114:5137  owner() == _msgSender() */\n      0xffffffffffffffffffffffffffffffffffffffff\n      and\n        /* \"VestingFlatten.sol\":5114:5121  owner() */\n      tag_257\n        /* \"VestingFlatten.sol\":5114:5119  owner */\n      tag_60\n        /* \"VestingFlatten.sol\":5114:5121  owner() */\n      jump\t// in\n    tag_257:\n        /* \"VestingFlatten.sol\":5114:5137  owner() == _msgSender() */\n      0xffffffffffffffffffffffffffffffffffffffff\n      and\n      eq\n        /* \"VestingFlatten.sol\":5106:5174  require(owner() == _msgSender(), \"Ownable: caller is not the owner\") */\n      tag_258\n      jumpi\n      mload(0x40)\n      0x08c379a000000000000000000000000000000000000000000000000000000000\n      dup2\n      mstore\n      0x04\n      add\n      tag_259\n      swap1\n      tag_260\n      jump\t// in\n    tag_259:\n      mload(0x40)\n      dup1\n      swap2\n      sub\n      swap1\n      revert\n    tag_258:\n        /* \"VestingFlatten.sol\":5051:5181  function _checkOwner() internal view virtual {... */\n      jump\t// out\n        /* \"VestingFlatten.sol\":6125:6312  function _transferOwnership(address newOwner) internal virtual {... */\n    tag_237:\n        /* \"VestingFlatten.sol\":6198:6214  address oldOwner */\n      0x00\n        /* \"VestingFlatten.sol\":6217:6223  _owner */\n      dup1\n      0x00\n      swap1\n      sload\n      swap1\n      0x0100\n      exp\n      swap1\n      div\n      0xffffffffffffffffffffffffffffffffffffffff\n      and\n        /* \"VestingFlatten.sol\":6198:6223  address oldOwner = _owner */\n      swap1\n      pop\n        /* \"VestingFlatten.sol\":6242:6250  newOwner */\n      dup2\n        /* \"VestingFlatten.sol\":6233:6239  _owner */\n      0x00\n      dup1\n        /* \"VestingFlatten.sol\":6233:6250  _owner = newOwner */\n      0x0100\n      exp\n      dup2\n      sload\n      dup2\n      0xffffffffffffffffffffffffffffffffffffffff\n      mul\n      not\n      and\n      swap1\n      dup4\n      0xffffffffffffffffffffffffffffffffffffffff\n      and\n      mul\n      or\n      swap1\n      sstore\n      pop\n        /* \"VestingFlatten.sol\":6296:6304  newOwner */\n      dup2\n        /* \"VestingFlatten.sol\":6265:6305  OwnershipTransferred(oldOwner, newOwner) */\n      0xffffffffffffffffffffffffffffffffffffffff\n      and\n        /* \"VestingFlatten.sol\":6286:6294  oldOwner */\n      dup2\n        /* \"VestingFlatten.sol\":6265:6305  OwnershipTransferred(oldOwner, newOwner) */\n      0xffffffffffffffffffffffffffffffffffffffff\n      and\n      0x8be0079c531659141344cd1fd0a4f28419497f9722a3daafe3b4186f6b6457e0\n      mload(0x40)\n      mload(0x40)\n      dup1\n      swap2\n      sub\n      swap1\n      log3\n        /* \"VestingFlatten.sol\":6188:6312  {... */\n      pop\n        /* \"VestingFlatten.sol\":6125:6312  function _transferOwnership(address newOwner) internal virtual {... */\n      pop\n      jump\t// out\n        /* \"VestingFlatten.sol\":3498:3594  function _msgSender() internal view virtual returns (address) {... */\n    tag_256:\n        /* \"VestingFlatten.sol\":3551:3558  address */\n      0x00\n        /* \"VestingFlatten.sol\":3577:3587  msg.sender */\n      caller\n        /* \"VestingFlatten.sol\":3570:3587  return msg.sender */\n      swap1\n      pop\n        /* \"VestingFlatten.sol\":3498:3594  function _msgSender() internal view virtual returns (address) {... */\n      swap1\n      jump\t// out\n    tag_83:\n      mload(0x40)\n      dup1\n      0xe0\n      add\n      0x40\n      mstore\n      dup1\n      0x00\n      dup2\n      mstore\n      0x20\n      add\n      and(0xff, 0x00)\n      dup2\n      mstore\n      0x20\n      add\n      0x00\n      dup2\n      mstore\n      0x20\n      add\n      0x00\n      dup2\n      mstore\n      0x20\n      add\n      0x00\n      dup2\n      mstore\n      0x20\n      add\n      and(0xffff, 0x00)\n      dup2\n      mstore\n      0x20\n      add\n      and(0xffff, 0x00)\n      dup2\n      mstore\n      pop\n      swap1\n      jump\t// out\n    tag_95:\n      mload(0x40)\n      dup1\n      0xa0\n      add\n      0x40\n      mstore\n      dup1\n      and(0xff, 0x00)\n      dup2\n      mstore\n      0x20\n      add\n      0x00\n      dup2\n      mstore\n      0x20\n      add\n      0x00\n      dup2\n      mstore\n      0x20\n      add\n      0x00\n      dup2\n      mstore\n      0x20\n      add\n      0x00\n      dup2\n      mstore\n      pop\n      swap1\n      jump\t// out\n        /* \"#utility.yul\":7:146   */\n    tag_264:\n        /* \"#utility.yul\":53:58   */\n      0x00\n        /* \"#utility.yul\":91:97   */\n      dup2\n        /* \"#utility.yul\":78:98   */\n      calldataload\n        /* \"#utility.yul\":69:98   */\n      swap1\n      pop\n        /* \"#utility.yul\":107:140   */\n      tag_266\n        /* \"#utility.yul\":134:139   */\n      dup2\n        /* \"#utility.yul\":107:140   */\n      tag_267\n      jump\t// in\n    tag_266:\n        /* \"#utility.yul\":7:146   */\n      swap3\n      swap2\n      pop\n      pop\n      jump\t// out\n        /* \"#utility.yul\":152:289   */\n    tag_268:\n        /* \"#utility.yul\":206:211   */\n      0x00\n        /* \"#utility.yul\":237:243   */\n      dup2\n        /* \"#utility.yul\":231:244   */\n      mload\n        /* \"#utility.yul\":222:244   */\n      swap1\n      pop\n        /* \"#utility.yul\":253:283   */\n      tag_270\n        /* \"#utility.yul\":277:282   */\n      dup2\n        /* \"#utility.yul\":253:283   */\n      tag_271\n      jump\t// in\n    tag_270:\n        /* \"#utility.yul\":152:289   */\n      swap3\n      swap2\n      pop\n      pop\n      jump\t// out\n        /* \"#utility.yul\":295:434   */\n    tag_272:\n        /* \"#utility.yul\":341:346   */\n      0x00\n        /* \"#utility.yul\":379:385   */\n      dup2\n        /* \"#utility.yul\":366:386   */\n      calldataload\n        /* \"#utility.yul\":357:386   */\n      swap1\n      pop\n        /* \"#utility.yul\":395:428   */\n      tag_274\n        /* \"#utility.yul\":422:427   */\n      dup2\n        /* \"#utility.yul\":395:428   */\n      tag_275\n      jump\t// in\n    tag_274:\n        /* \"#utility.yul\":295:434   */\n      swap3\n      swap2\n      pop\n      pop\n      jump\t// out\n        /* \"#utility.yul\":440:583   */\n    tag_276:\n        /* \"#utility.yul\":497:502   */\n      0x00\n        /* \"#utility.yul\":528:534   */\n      dup2\n        /* \"#utility.yul\":522:535   */\n      mload\n        /* \"#utility.yul\":513:535   */\n      swap1\n      pop\n        /* \"#utility.yul\":544:577   */\n      tag_278\n        /* \"#utility.yul\":571:576   */\n      dup2\n        /* \"#utility.yul\":544:577   */\n      tag_275\n      jump\t// in\n    tag_278:\n        /* \"#utility.yul\":440:583   */\n      swap3\n      swap2\n      pop\n      pop\n      jump\t// out\n        /* \"#utility.yul\":589:724   */\n    tag_279:\n        /* \"#utility.yul\":633:638   */\n      0x00\n        /* \"#utility.yul\":671:677   */\n      dup2\n        /* \"#utility.yul\":658:678   */\n      calldataload\n        /* \"#utility.yul\":649:678   */\n      swap1\n      pop\n        /* \"#utility.yul\":687:718   */\n      tag_281\n        /* \"#utility.yul\":712:717   */\n      dup2\n        /* \"#utility.yul\":687:718   */\n      tag_282\n      jump\t// in\n    tag_281:\n        /* \"#utility.yul\":589:724   */\n      swap3\n      swap2\n      pop\n      pop\n      jump\t// out\n        /* \"#utility.yul\":730:1059   */\n    tag_22:\n        /* \"#utility.yul\":789:795   */\n      0x00\n        /* \"#utility.yul\":838:840   */\n      0x20\n        /* \"#utility.yul\":826:835   */\n      dup3\n        /* \"#utility.yul\":817:824   */\n      dup5\n        /* \"#utility.yul\":813:836   */\n      sub\n        /* \"#utility.yul\":809:841   */\n      slt\n        /* \"#utility.yul\":806:925   */\n      iszero\n      tag_284\n      jumpi\n        /* \"#utility.yul\":844:923   */\n      tag_285\n      tag_286\n      jump\t// in\n    tag_285:\n        /* \"#utility.yul\":806:925   */\n    tag_284:\n        /* \"#utility.yul\":964:965   */\n      0x00\n        /* \"#utility.yul\":989:1042   */\n      tag_287\n        /* \"#utility.yul\":1034:1041   */\n      dup5\n        /* \"#utility.yul\":1025:1031   */\n      dup3\n        /* \"#utility.yul\":1014:1023   */\n      dup6\n        /* \"#utility.yul\":1010:1032   */\n      add\n        /* \"#utility.yul\":989:1042   */\n      tag_264\n      jump\t// in\n    tag_287:\n        /* \"#utility.yul\":979:1042   */\n      swap2\n      pop\n        /* \"#utility.yul\":935:1052   */\n      pop\n        /* \"#utility.yul\":730:1059   */\n      swap3\n      swap2\n      pop\n      pop\n      jump\t// out\n        /* \"#utility.yul\":1065:1410   */\n    tag_159:\n        /* \"#utility.yul\":1132:1138   */\n      0x00\n        /* \"#utility.yul\":1181:1183   */\n      0x20\n        /* \"#utility.yul\":1169:1178   */\n      dup3\n        /* \"#utility.yul\":1160:1167   */\n      dup5\n        /* \"#utility.yul\":1156:1179   */\n      sub\n        /* \"#utility.yul\":1152:1184   */\n      slt\n        /* \"#utility.yul\":1149:1268   */\n      iszero\n      tag_289\n      jumpi\n        /* \"#utility.yul\":1187:1266   */\n      tag_290\n      tag_286\n      jump\t// in\n    tag_290:\n        /* \"#utility.yul\":1149:1268   */\n    tag_289:\n        /* \"#utility.yul\":1307:1308   */\n      0x00\n        /* \"#utility.yul\":1332:1393   */\n      tag_291\n        /* \"#utility.yul\":1385:1392   */\n      dup5\n        /* \"#utility.yul\":1376:1382   */\n      dup3\n        /* \"#utility.yul\":1365:1374   */\n      dup6\n        /* \"#utility.yul\":1361:1383   */\n      add\n        /* \"#utility.yul\":1332:1393   */\n      tag_268\n      jump\t// in\n    tag_291:\n        /* \"#utility.yul\":1322:1393   */\n      swap2\n      pop\n        /* \"#utility.yul\":1278:1403   */\n      pop\n        /* \"#utility.yul\":1065:1410   */\n      swap3\n      swap2\n      pop\n      pop\n      jump\t// out\n        /* \"#utility.yul\":1416:1767   */\n    tag_137:\n        /* \"#utility.yul\":1486:1492   */\n      0x00\n        /* \"#utility.yul\":1535:1537   */\n      0x20\n        /* \"#utility.yul\":1523:1532   */\n      dup3\n        /* \"#utility.yul\":1514:1521   */\n      dup5\n        /* \"#utility.yul\":1510:1533   */\n      sub\n        /* \"#utility.yul\":1506:1538   */\n      slt\n        /* \"#utility.yul\":1503:1622   */\n      iszero\n      tag_293\n      jumpi\n        /* \"#utility.yul\":1541:1620   */\n      tag_294\n      tag_286\n      jump\t// in\n    tag_294:\n        /* \"#utility.yul\":1503:1622   */\n    tag_293:\n        /* \"#utility.yul\":1661:1662   */\n      0x00\n        /* \"#utility.yul\":1686:1750   */\n      tag_295\n        /* \"#utility.yul\":1742:1749   */\n      dup5\n        /* \"#utility.yul\":1733:1739   */\n      dup3\n        /* \"#utility.yul\":1722:1731   */\n      dup6\n        /* \"#utility.yul\":1718:1740   */\n      add\n        /* \"#utility.yul\":1686:1750   */\n      tag_276\n      jump\t// in\n    tag_295:\n        /* \"#utility.yul\":1676:1750   */\n      swap2\n      pop\n        /* \"#utility.yul\":1632:1760   */\n      pop\n        /* \"#utility.yul\":1416:1767   */\n      swap3\n      swap2\n      pop\n      pop\n      jump\t// out\n        /* \"#utility.yul\":1773:2098   */\n    tag_28:\n        /* \"#utility.yul\":1830:1836   */\n      0x00\n        /* \"#utility.yul\":1879:1881   */\n      0x20\n        /* \"#utility.yul\":1867:1876   */\n      dup3\n        /* \"#utility.yul\":1858:1865   */\n      dup5\n        /* \"#utility.yul\":1854:1877   */\n      sub\n        /* \"#utility.yul\":1850:1882   */\n      slt\n        /* \"#utility.yul\":1847:1966   */\n      iszero\n      tag_297\n      jumpi\n        /* \"#utility.yul\":1885:1964   */\n      tag_298\n      tag_286\n      jump\t// in\n    tag_298:\n        /* \"#utility.yul\":1847:1966   */\n    tag_297:\n        /* \"#utility.yul\":2005:2006   */\n      0x00\n        /* \"#utility.yul\":2030:2081   */\n      tag_299\n        /* \"#utility.yul\":2073:2080   */\n      dup5\n        /* \"#utility.yul\":2064:2070   */\n      dup3\n        /* \"#utility.yul\":2053:2062   */\n      dup6\n        /* \"#utility.yul\":2049:2071   */\n      add\n        /* \"#utility.yul\":2030:2081   */\n      tag_279\n      jump\t// in\n    tag_299:\n        /* \"#utility.yul\":2020:2081   */\n      swap2\n      pop\n        /* \"#utility.yul\":1976:2091   */\n      pop\n        /* \"#utility.yul\":1773:2098   */\n      swap3\n      swap2\n      pop\n      pop\n      jump\t// out\n        /* \"#utility.yul\":2104:2574   */\n    tag_39:\n        /* \"#utility.yul\":2170:2176   */\n      0x00\n        /* \"#utility.yul\":2178:2184   */\n      dup1\n        /* \"#utility.yul\":2227:2229   */\n      0x40\n        /* \"#utility.yul\":2215:2224   */\n      dup4\n        /* \"#utility.yul\":2206:2213   */\n      dup6\n        /* \"#utility.yul\":2202:2225   */\n      sub\n        /* \"#utility.yul\":2198:2230   */\n      slt\n        /* \"#utility.yul\":2195:2314   */\n      iszero\n      tag_301\n      jumpi\n        /* \"#utility.yul\":2233:2312   */\n      tag_302\n      tag_286\n      jump\t// in\n    tag_302:\n        /* \"#utility.yul\":2195:2314   */\n    tag_301:\n        /* \"#utility.yul\":2353:2354   */\n      0x00\n        /* \"#utility.yul\":2378:2429   */\n      tag_303\n        /* \"#utility.yul\":2421:2428   */\n      dup6\n        /* \"#utility.yul\":2412:2418   */\n      dup3\n        /* \"#utility.yul\":2401:2410   */\n      dup7\n        /* \"#utility.yul\":2397:2419   */\n      add\n        /* \"#utility.yul\":2378:2429   */\n      tag_279\n      jump\t// in\n    tag_303:\n        /* \"#utility.yul\":2368:2429   */\n      swap3\n      pop\n        /* \"#utility.yul\":2324:2439   */\n      pop\n        /* \"#utility.yul\":2478:2480   */\n      0x20\n        /* \"#utility.yul\":2504:2557   */\n      tag_304\n        /* \"#utility.yul\":2549:2556   */\n      dup6\n        /* \"#utility.yul\":2540:2546   */\n      dup3\n        /* \"#utility.yul\":2529:2538   */\n      dup7\n        /* \"#utility.yul\":2525:2547   */\n      add\n        /* \"#utility.yul\":2504:2557   */\n      tag_272\n      jump\t// in\n    tag_304:\n        /* \"#utility.yul\":2494:2557   */\n      swap2\n      pop\n        /* \"#utility.yul\":2449:2567   */\n      pop\n        /* \"#utility.yul\":2104:2574   */\n      swap3\n      pop\n      swap3\n      swap1\n      pop\n      jump\t// out\n        /* \"#utility.yul\":2580:3195   */\n    tag_43:\n        /* \"#utility.yul\":2655:2661   */\n      0x00\n        /* \"#utility.yul\":2663:2669   */\n      dup1\n        /* \"#utility.yul\":2671:2677   */\n      0x00\n        /* \"#utility.yul\":2720:2722   */\n      0x60\n        /* \"#utility.yul\":2708:2717   */\n      dup5\n        /* \"#utility.yul\":2699:2706   */\n      dup7\n        /* \"#utility.yul\":2695:2718   */\n      sub\n        /* \"#utility.yul\":2691:2723   */\n      slt\n        /* \"#utility.yul\":2688:2807   */\n      iszero\n      tag_306\n      jumpi\n        /* \"#utility.yul\":2726:2805   */\n      tag_307\n      tag_286\n      jump\t// in\n    tag_307:\n        /* \"#utility.yul\":2688:2807   */\n    tag_306:\n        /* \"#utility.yul\":2846:2847   */\n      0x00\n        /* \"#utility.yul\":2871:2922   */\n      tag_308\n        /* \"#utility.yul\":2914:2921   */\n      dup7\n        /* \"#utility.yul\":2905:2911   */\n      dup3\n        /* \"#utility.yul\":2894:2903   */\n      dup8\n        /* \"#utility.yul\":2890:2912   */\n      add\n        /* \"#utility.yul\":2871:2922   */\n      tag_279\n      jump\t// in\n    tag_308:\n        /* \"#utility.yul\":2861:2922   */\n      swap4\n      pop\n        /* \"#utility.yul\":2817:2932   */\n      pop\n        /* \"#utility.yul\":2971:2973   */\n      0x20\n        /* \"#utility.yul\":2997:3050   */\n      tag_309\n        /* \"#utility.yul\":3042:3049   */\n      dup7\n        /* \"#utility.yul\":3033:3039   */\n      dup3\n        /* \"#utility.yul\":3022:3031   */\n      dup8\n        /* \"#utility.yul\":3018:3040   */\n      add\n        /* \"#utility.yul\":2997:3050   */\n      tag_272\n      jump\t// in\n    tag_309:\n        /* \"#utility.yul\":2987:3050   */\n      swap3\n      pop\n        /* \"#utility.yul\":2942:3060   */\n      pop\n        /* \"#utility.yul\":3099:3101   */\n      0x40\n        /* \"#utility.yul\":3125:3178   */\n      tag_310\n        /* \"#utility.yul\":3170:3177   */\n      dup7\n        /* \"#utility.yul\":3161:3167   */\n      dup3\n        /* \"#utility.yul\":3150:3159   */\n      dup8\n        /* \"#utility.yul\":3146:3168   */\n      add\n        /* \"#utility.yul\":3125:3178   */\n      tag_264\n      jump\t// in\n    tag_310:\n        /* \"#utility.yul\":3115:3178   */\n      swap2\n      pop\n        /* \"#utility.yul\":3070:3188   */\n      pop\n        /* \"#utility.yul\":2580:3195   */\n      swap3\n      pop\n      swap3\n      pop\n      swap3\n      jump\t// out\n        /* \"#utility.yul\":3201:3962   */\n    tag_49:\n        /* \"#utility.yul\":3285:3291   */\n      0x00\n        /* \"#utility.yul\":3293:3299   */\n      dup1\n        /* \"#utility.yul\":3301:3307   */\n      0x00\n        /* \"#utility.yul\":3309:3315   */\n      dup1\n        /* \"#utility.yul\":3358:3361   */\n      0x80\n        /* \"#utility.yul\":3346:3355   */\n      dup6\n        /* \"#utility.yul\":3337:3344   */\n      dup8\n        /* \"#utility.yul\":3333:3356   */\n      sub\n        /* \"#utility.yul\":3329:3362   */\n      slt\n        /* \"#utility.yul\":3326:3446   */\n      iszero\n      tag_312\n      jumpi\n        /* \"#utility.yul\":3365:3444   */\n      tag_313\n      tag_286\n      jump\t// in\n    tag_313:\n        /* \"#utility.yul\":3326:3446   */\n    tag_312:\n        /* \"#utility.yul\":3485:3486   */\n      0x00\n        /* \"#utility.yul\":3510:3561   */\n      tag_314\n        /* \"#utility.yul\":3553:3560   */\n      dup8\n        /* \"#utility.yul\":3544:3550   */\n      dup3\n        /* \"#utility.yul\":3533:3542   */\n      dup9\n        /* \"#utility.yul\":3529:3551   */\n      add\n        /* \"#utility.yul\":3510:3561   */\n      tag_279\n      jump\t// in\n    tag_314:\n        /* \"#utility.yul\":3500:3561   */\n      swap5\n      pop\n        /* \"#utility.yul\":3456:3571   */\n      pop\n        /* \"#utility.yul\":3610:3612   */\n      0x20\n        /* \"#utility.yul\":3636:3689   */\n      tag_315\n        /* \"#utility.yul\":3681:3688   */\n      dup8\n        /* \"#utility.yul\":3672:3678   */\n      dup3\n        /* \"#utility.yul\":3661:3670   */\n      dup9\n        /* \"#utility.yul\":3657:3679   */\n      add\n        /* \"#utility.yul\":3636:3689   */\n      tag_272\n      jump\t// in\n    tag_315:\n        /* \"#utility.yul\":3626:3689   */\n      swap4\n      pop\n        /* \"#utility.yul\":3581:3699   */\n      pop\n        /* \"#utility.yul\":3738:3740   */\n      0x40\n        /* \"#utility.yul\":3764:3817   */\n      tag_316\n        /* \"#utility.yul\":3809:3816   */\n      dup8\n        /* \"#utility.yul\":3800:3806   */\n      dup3\n        /* \"#utility.yul\":3789:3798   */\n      dup9\n        /* \"#utility.yul\":3785:3807   */\n      add\n        /* \"#utility.yul\":3764:3817   */\n      tag_272\n      jump\t// in\n    tag_316:\n        /* \"#utility.yul\":3754:3817   */\n      swap3\n      pop\n        /* \"#utility.yul\":3709:3827   */\n      pop\n        /* \"#utility.yul\":3866:3868   */\n      0x60\n        /* \"#utility.yul\":3892:3945   */\n      tag_317\n        /* \"#utility.yul\":3937:3944   */\n      dup8\n        /* \"#utility.yul\":3928:3934   */\n      dup3\n        /* \"#utility.yul\":3917:3926   */\n      dup9\n        /* \"#utility.yul\":3913:3935   */\n      add\n        /* \"#utility.yul\":3892:3945   */\n      tag_272\n      jump\t// in\n    tag_317:\n        /* \"#utility.yul\":3882:3945   */\n      swap2\n      pop\n        /* \"#utility.yul\":3837:3955   */\n      pop\n        /* \"#utility.yul\":3201:3962   */\n      swap3\n      swap6\n      swap2\n      swap5\n      pop\n      swap3\n      pop\n      jump\t// out\n        /* \"#utility.yul\":3968:4086   */\n    tag_318:\n        /* \"#utility.yul\":4055:4079   */\n      tag_320\n        /* \"#utility.yul\":4073:4078   */\n      dup2\n        /* \"#utility.yul\":4055:4079   */\n      tag_321\n      jump\t// in\n    tag_320:\n        /* \"#utility.yul\":4050:4053   */\n      dup3\n        /* \"#utility.yul\":4043:4080   */\n      mstore\n        /* \"#utility.yul\":3968:4086   */\n      pop\n      pop\n      jump\t// out\n        /* \"#utility.yul\":4092:4458   */\n    tag_322:\n        /* \"#utility.yul\":4234:4237   */\n      0x00\n        /* \"#utility.yul\":4255:4322   */\n      tag_324\n        /* \"#utility.yul\":4319:4321   */\n      0x10\n        /* \"#utility.yul\":4314:4317   */\n      dup4\n        /* \"#utility.yul\":4255:4322   */\n      tag_325\n      jump\t// in\n    tag_324:\n        /* \"#utility.yul\":4248:4322   */\n      swap2\n      pop\n        /* \"#utility.yul\":4331:4424   */\n      tag_326\n        /* \"#utility.yul\":4420:4423   */\n      dup3\n        /* \"#utility.yul\":4331:4424   */\n      tag_327\n      jump\t// in\n    tag_326:\n        /* \"#utility.yul\":4449:4451   */\n      0x20\n        /* \"#utility.yul\":4444:4447   */\n      dup3\n        /* \"#utility.yul\":4440:4452   */\n      add\n        /* \"#utility.yul\":4433:4452   */\n      swap1\n      pop\n        /* \"#utility.yul\":4092:4458   */\n      swap2\n      swap1\n      pop\n      jump\t// out\n        /* \"#utility.yul\":4464:4830   */\n    tag_328:\n        /* \"#utility.yul\":4606:4609   */\n      0x00\n        /* \"#utility.yul\":4627:4694   */\n      tag_330\n        /* \"#utility.yul\":4691:4693   */\n      0x0a\n        /* \"#utility.yul\":4686:4689   */\n      dup4\n        /* \"#utility.yul\":4627:4694   */\n      tag_325\n      jump\t// in\n    tag_330:\n        /* \"#utility.yul\":4620:4694   */\n      swap2\n      pop\n        /* \"#utility.yul\":4703:4796   */\n      tag_331\n        /* \"#utility.yul\":4792:4795   */\n      dup3\n        /* \"#utility.yul\":4703:4796   */\n      tag_332\n      jump\t// in\n    tag_331:\n        /* \"#utility.yul\":4821:4823   */\n      0x20\n        /* \"#utility.yul\":4816:4819   */\n      dup3\n        /* \"#utility.yul\":4812:4824   */\n      add\n        /* \"#utility.yul\":4805:4824   */\n      swap1\n      pop\n        /* \"#utility.yul\":4464:4830   */\n      swap2\n      swap1\n      pop\n      jump\t// out\n        /* \"#utility.yul\":4836:5202   */\n    tag_333:\n        /* \"#utility.yul\":4978:4981   */\n      0x00\n        /* \"#utility.yul\":4999:5066   */\n      tag_335\n        /* \"#utility.yul\":5063:5065   */\n      0x26\n        /* \"#utility.yul\":5058:5061   */\n      dup4\n        /* \"#utility.yul\":4999:5066   */\n      tag_325\n      jump\t// in\n    tag_335:\n        /* \"#utility.yul\":4992:5066   */\n      swap2\n      pop\n        /* \"#utility.yul\":5075:5168   */\n      tag_336\n        /* \"#utility.yul\":5164:5167   */\n      dup3\n        /* \"#utility.yul\":5075:5168   */\n      tag_337\n      jump\t// in\n    tag_336:\n        /* \"#utility.yul\":5193:5195   */\n      0x40\n        /* \"#utility.yul\":5188:5191   */\n      dup3\n        /* \"#utility.yul\":5184:5196   */\n      add\n        /* \"#utility.yul\":5177:5196   */\n      swap1\n      pop\n        /* \"#utility.yul\":4836:5202   */\n      swap2\n      swap1\n      pop\n      jump\t// out\n        /* \"#utility.yul\":5208:5574   */\n    tag_338:\n        /* \"#utility.yul\":5350:5353   */\n      0x00\n        /* \"#utility.yul\":5371:5438   */\n      tag_340\n        /* \"#utility.yul\":5435:5437   */\n      0x0a\n        /* \"#utility.yul\":5430:5433   */\n      dup4\n        /* \"#utility.yul\":5371:5438   */\n      tag_325\n      jump\t// in\n    tag_340:\n        /* \"#utility.yul\":5364:5438   */\n      swap2\n      pop\n        /* \"#utility.yul\":5447:5540   */\n      tag_341\n        /* \"#utility.yul\":5536:5539   */\n      dup3\n        /* \"#utility.yul\":5447:5540   */\n      tag_342\n      jump\t// in\n    tag_341:\n        /* \"#utility.yul\":5565:5567   */\n      0x20\n        /* \"#utility.yul\":5560:5563   */\n      dup3\n        /* \"#utility.yul\":5556:5568   */\n      add\n        /* \"#utility.yul\":5549:5568   */\n      swap1\n      pop\n        /* \"#utility.yul\":5208:5574   */\n      swap2\n      swap1\n      pop\n      jump\t// out\n        /* \"#utility.yul\":5580:5946   */\n    tag_343:\n        /* \"#utility.yul\":5722:5725   */\n      0x00\n        /* \"#utility.yul\":5743:5810   */\n      tag_345\n        /* \"#utility.yul\":5807:5809   */\n      0x12\n        /* \"#utility.yul\":5802:5805   */\n      dup4\n        /* \"#utility.yul\":5743:5810   */\n      tag_325\n      jump\t// in\n    tag_345:\n        /* \"#utility.yul\":5736:5810   */\n      swap2\n      pop\n        /* \"#utility.yul\":5819:5912   */\n      tag_346\n        /* \"#utility.yul\":5908:5911   */\n      dup3\n        /* \"#utility.yul\":5819:5912   */\n      tag_347\n      jump\t// in\n    tag_346:\n        /* \"#utility.yul\":5937:5939   */\n      0x20\n        /* \"#utility.yul\":5932:5935   */\n      dup3\n        /* \"#utility.yul\":5928:5940   */\n      add\n        /* \"#utility.yul\":5921:5940   */\n      swap1\n      pop\n        /* \"#utility.yul\":5580:5946   */\n      swap2\n      swap1\n      pop\n      jump\t// out\n        /* \"#utility.yul\":5952:6318   */\n    tag_348:\n        /* \"#utility.yul\":6094:6097   */\n      0x00\n        /* \"#utility.yul\":6115:6182   */\n      tag_350\n        /* \"#utility.yul\":6179:6181   */\n      0x12\n        /* \"#utility.yul\":6174:6177   */\n      dup4\n        /* \"#utility.yul\":6115:6182   */\n      tag_325\n      jump\t// in\n    tag_350:\n        /* \"#utility.yul\":6108:6182   */\n      swap2\n      pop\n        /* \"#utility.yul\":6191:6284   */\n      tag_351\n        /* \"#utility.yul\":6280:6283   */\n      dup3\n        /* \"#utility.yul\":6191:6284   */\n      tag_352\n      jump\t// in\n    tag_351:\n        /* \"#utility.yul\":6309:6311   */\n      0x20\n        /* \"#utility.yul\":6304:6307   */\n      dup3\n        /* \"#utility.yul\":6300:6312   */\n      add\n        /* \"#utility.yul\":6293:6312   */\n      swap1\n      pop\n        /* \"#utility.yul\":5952:6318   */\n      swap2\n      swap1\n      pop\n      jump\t// out\n        /* \"#utility.yul\":6324:6690   */\n    tag_353:\n        /* \"#utility.yul\":6466:6469   */\n      0x00\n        /* \"#utility.yul\":6487:6554   */\n      tag_355\n        /* \"#utility.yul\":6551:6553   */\n      0x20\n        /* \"#utility.yul\":6546:6549   */\n      dup4\n        /* \"#utility.yul\":6487:6554   */\n      tag_325\n      jump\t// in\n    tag_355:\n        /* \"#utility.yul\":6480:6554   */\n      swap2\n      pop\n        /* \"#utility.yul\":6563:6656   */\n      tag_356\n        /* \"#utility.yul\":6652:6655   */\n      dup3\n        /* \"#utility.yul\":6563:6656   */\n      tag_357\n      jump\t// in\n    tag_356:\n        /* \"#utility.yul\":6681:6683   */\n      0x20\n        /* \"#utility.yul\":6676:6679   */\n      dup3\n        /* \"#utility.yul\":6672:6684   */\n      add\n        /* \"#utility.yul\":6665:6684   */\n      swap1\n      pop\n        /* \"#utility.yul\":6324:6690   */\n      swap2\n      swap1\n      pop\n      jump\t// out\n        /* \"#utility.yul\":6696:7062   */\n    tag_358:\n        /* \"#utility.yul\":6838:6841   */\n      0x00\n        /* \"#utility.yul\":6859:6926   */\n      tag_360\n        /* \"#utility.yul\":6923:6925   */\n      0x0f\n        /* \"#utility.yul\":6918:6921   */\n      dup4\n        /* \"#utility.yul\":6859:6926   */\n      tag_325\n      jump\t// in\n    tag_360:\n        /* \"#utility.yul\":6852:6926   */\n      swap2\n      pop\n        /* \"#utility.yul\":6935:7028   */\n      tag_361\n        /* \"#utility.yul\":7024:7027   */\n      dup3\n        /* \"#utility.yul\":6935:7028   */\n      tag_362\n      jump\t// in\n    tag_361:\n        /* \"#utility.yul\":7053:7055   */\n      0x20\n        /* \"#utility.yul\":7048:7051   */\n      dup3\n        /* \"#utility.yul\":7044:7056   */\n      add\n        /* \"#utility.yul\":7037:7056   */\n      swap1\n      pop\n        /* \"#utility.yul\":6696:7062   */\n      swap2\n      swap1\n      pop\n      jump\t// out\n        /* \"#utility.yul\":7068:7434   */\n    tag_363:\n        /* \"#utility.yul\":7210:7213   */\n      0x00\n        /* \"#utility.yul\":7231:7298   */\n      tag_365\n        /* \"#utility.yul\":7295:7297   */\n      0x0e\n        /* \"#utility.yul\":7290:7293   */\n      dup4\n        /* \"#utility.yul\":7231:7298   */\n      tag_325\n      jump\t// in\n    tag_365:\n        /* \"#utility.yul\":7224:7298   */\n      swap2\n      pop\n        /* \"#utility.yul\":7307:7400   */\n      tag_366\n        /* \"#utility.yul\":7396:7399   */\n      dup3\n        /* \"#utility.yul\":7307:7400   */\n      tag_367\n      jump\t// in\n    tag_366:\n        /* \"#utility.yul\":7425:7427   */\n      0x20\n        /* \"#utility.yul\":7420:7423   */\n      dup3\n        /* \"#utility.yul\":7416:7428   */\n      add\n        /* \"#utility.yul\":7409:7428   */\n      swap1\n      pop\n        /* \"#utility.yul\":7068:7434   */\n      swap2\n      swap1\n      pop\n      jump\t// out\n        /* \"#utility.yul\":7440:7806   */\n    tag_368:\n        /* \"#utility.yul\":7582:7585   */\n      0x00\n        /* \"#utility.yul\":7603:7670   */\n      tag_370\n        /* \"#utility.yul\":7667:7669   */\n      0x0f\n        /* \"#utility.yul\":7662:7665   */\n      dup4\n        /* \"#utility.yul\":7603:7670   */\n      tag_325\n      jump\t// in\n    tag_370:\n        /* \"#utility.yul\":7596:7670   */\n      swap2\n      pop\n        /* \"#utility.yul\":7679:7772   */\n      tag_371\n        /* \"#utility.yul\":7768:7771   */\n      dup3\n        /* \"#utility.yul\":7679:7772   */\n      tag_372\n      jump\t// in\n    tag_371:\n        /* \"#utility.yul\":7797:7799   */\n      0x20\n        /* \"#utility.yul\":7792:7795   */\n      dup3\n        /* \"#utility.yul\":7788:7800   */\n      add\n        /* \"#utility.yul\":7781:7800   */\n      swap1\n      pop\n        /* \"#utility.yul\":7440:7806   */\n      swap2\n      swap1\n      pop\n      jump\t// out\n        /* \"#utility.yul\":7812:8178   */\n    tag_373:\n        /* \"#utility.yul\":7954:7957   */\n      0x00\n        /* \"#utility.yul\":7975:8042   */\n      tag_375\n        /* \"#utility.yul\":8039:8041   */\n      0x16\n        /* \"#utility.yul\":8034:8037   */\n      dup4\n        /* \"#utility.yul\":7975:8042   */\n      tag_325\n      jump\t// in\n    tag_375:\n        /* \"#utility.yul\":7968:8042   */\n      swap2\n      pop\n        /* \"#utility.yul\":8051:8144   */\n      tag_376\n        /* \"#utility.yul\":8140:8143   */\n      dup3\n        /* \"#utility.yul\":8051:8144   */\n      tag_377\n      jump\t// in\n    tag_376:\n        /* \"#utility.yul\":8169:8171   */\n      0x20\n        /* \"#utility.yul\":8164:8167   */\n      dup3\n        /* \"#utility.yul\":8160:8172   */\n      add\n        /* \"#utility.yul\":8153:8172   */\n      swap1\n      pop\n        /* \"#utility.yul\":7812:8178   */\n      swap2\n      swap1\n      pop\n      jump\t// out\n        /* \"#utility.yul\":8184:8550   */\n    tag_378:\n        /* \"#utility.yul\":8326:8329   */\n      0x00\n        /* \"#utility.yul\":8347:8414   */\n      tag_380\n        /* \"#utility.yul\":8411:8413   */\n      0x12\n        /* \"#utility.yul\":8406:8409   */\n      dup4\n        /* \"#utility.yul\":8347:8414   */\n      tag_325\n      jump\t// in\n    tag_380:\n        /* \"#utility.yul\":8340:8414   */\n      swap2\n      pop\n        /* \"#utility.yul\":8423:8516   */\n      tag_381\n        /* \"#utility.yul\":8512:8515   */\n      dup3\n        /* \"#utility.yul\":8423:8516   */\n      tag_382\n      jump\t// in\n    tag_381:\n        /* \"#utility.yul\":8541:8543   */\n      0x20\n        /* \"#utility.yul\":8536:8539   */\n      dup3\n        /* \"#utility.yul\":8532:8544   */\n      add\n        /* \"#utility.yul\":8525:8544   */\n      swap1\n      pop\n        /* \"#utility.yul\":8184:8550   */\n      swap2\n      swap1\n      pop\n      jump\t// out\n        /* \"#utility.yul\":8556:8922   */\n    tag_383:\n        /* \"#utility.yul\":8698:8701   */\n      0x00\n        /* \"#utility.yul\":8719:8786   */\n      tag_385\n        /* \"#utility.yul\":8783:8785   */\n      0x0c\n        /* \"#utility.yul\":8778:8781   */\n      dup4\n        /* \"#utility.yul\":8719:8786   */\n      tag_325\n      jump\t// in\n    tag_385:\n        /* \"#utility.yul\":8712:8786   */\n      swap2\n      pop\n        /* \"#utility.yul\":8795:8888   */\n      tag_386\n        /* \"#utility.yul\":8884:8887   */\n      dup3\n        /* \"#utility.yul\":8795:8888   */\n      tag_387\n      jump\t// in\n    tag_386:\n        /* \"#utility.yul\":8913:8915   */\n      0x20\n        /* \"#utility.yul\":8908:8911   */\n      dup3\n        /* \"#utility.yul\":8904:8916   */\n      add\n        /* \"#utility.yul\":8897:8916   */\n      swap1\n      pop\n        /* \"#utility.yul\":8556:8922   */\n      swap2\n      swap1\n      pop\n      jump\t// out\n        /* \"#utility.yul\":8928:9294   */\n    tag_388:\n        /* \"#utility.yul\":9070:9073   */\n      0x00\n        /* \"#utility.yul\":9091:9158   */\n      tag_390\n        /* \"#utility.yul\":9155:9157   */\n      0x14\n        /* \"#utility.yul\":9150:9153   */\n      dup4\n        /* \"#utility.yul\":9091:9158   */\n      tag_325\n      jump\t// in\n    tag_390:\n        /* \"#utility.yul\":9084:9158   */\n      swap2\n      pop\n        /* \"#utility.yul\":9167:9260   */\n      tag_391\n        /* \"#utility.yul\":9256:9259   */\n      dup3\n        /* \"#utility.yul\":9167:9260   */\n      tag_392\n      jump\t// in\n    tag_391:\n        /* \"#utility.yul\":9285:9287   */\n      0x20\n        /* \"#utility.yul\":9280:9283   */\n      dup3\n        /* \"#utility.yul\":9276:9288   */\n      add\n        /* \"#utility.yul\":9269:9288   */\n      swap1\n      pop\n        /* \"#utility.yul\":8928:9294   */\n      swap2\n      swap1\n      pop\n      jump\t// out\n        /* \"#utility.yul\":9300:9666   */\n    tag_393:\n        /* \"#utility.yul\":9442:9445   */\n      0x00\n        /* \"#utility.yul\":9463:9530   */\n      tag_395\n        /* \"#utility.yul\":9527:9529   */\n      0x1a\n        /* \"#utility.yul\":9522:9525   */\n      dup4\n        /* \"#utility.yul\":9463:9530   */\n      tag_325\n      jump\t// in\n    tag_395:\n        /* \"#utility.yul\":9456:9530   */\n      swap2\n      pop\n        /* \"#utility.yul\":9539:9632   */\n      tag_396\n        /* \"#utility.yul\":9628:9631   */\n      dup3\n        /* \"#utility.yul\":9539:9632   */\n      tag_397\n      jump\t// in\n    tag_396:\n        /* \"#utility.yul\":9657:9659   */\n      0x20\n        /* \"#utility.yul\":9652:9655   */\n      dup3\n        /* \"#utility.yul\":9648:9660   */\n      add\n        /* \"#utility.yul\":9641:9660   */\n      swap1\n      pop\n        /* \"#utility.yul\":9300:9666   */\n      swap2\n      swap1\n      pop\n      jump\t// out\n        /* \"#utility.yul\":9750:10838   */\n    tag_398:\n        /* \"#utility.yul\":9917:9921   */\n      0xa0\n        /* \"#utility.yul\":9912:9915   */\n      dup3\n        /* \"#utility.yul\":9908:9922   */\n      add\n        /* \"#utility.yul\":10011:10015   */\n      0x00\n        /* \"#utility.yul\":10004:10009   */\n      dup3\n        /* \"#utility.yul\":10000:10016   */\n      add\n        /* \"#utility.yul\":9994:10017   */\n      mload\n        /* \"#utility.yul\":10030:10089   */\n      tag_400\n        /* \"#utility.yul\":10083:10087   */\n      0x00\n        /* \"#utility.yul\":10078:10081   */\n      dup6\n        /* \"#utility.yul\":10074:10088   */\n      add\n        /* \"#utility.yul\":10060:10072   */\n      dup3\n        /* \"#utility.yul\":10030:10089   */\n      tag_401\n      jump\t// in\n    tag_400:\n        /* \"#utility.yul\":9932:10099   */\n      pop\n        /* \"#utility.yul\":10189:10193   */\n      0x20\n        /* \"#utility.yul\":10182:10187   */\n      dup3\n        /* \"#utility.yul\":10178:10194   */\n      add\n        /* \"#utility.yul\":10172:10195   */\n      mload\n        /* \"#utility.yul\":10208:10271   */\n      tag_402\n        /* \"#utility.yul\":10265:10269   */\n      0x20\n        /* \"#utility.yul\":10260:10263   */\n      dup6\n        /* \"#utility.yul\":10256:10270   */\n      add\n        /* \"#utility.yul\":10242:10254   */\n      dup3\n        /* \"#utility.yul\":10208:10271   */\n      tag_403\n      jump\t// in\n    tag_402:\n        /* \"#utility.yul\":10109:10281   */\n      pop\n        /* \"#utility.yul\":10373:10377   */\n      0x40\n        /* \"#utility.yul\":10366:10371   */\n      dup3\n        /* \"#utility.yul\":10362:10378   */\n      add\n        /* \"#utility.yul\":10356:10379   */\n      mload\n        /* \"#utility.yul\":10392:10455   */\n      tag_404\n        /* \"#utility.yul\":10449:10453   */\n      0x40\n        /* \"#utility.yul\":10444:10447   */\n      dup6\n        /* \"#utility.yul\":10440:10454   */\n      add\n        /* \"#utility.yul\":10426:10438   */\n      dup3\n        /* \"#utility.yul\":10392:10455   */\n      tag_403\n      jump\t// in\n    tag_404:\n        /* \"#utility.yul\":10291:10465   */\n      pop\n        /* \"#utility.yul\":10554:10558   */\n      0x60\n        /* \"#utility.yul\":10547:10552   */\n      dup3\n        /* \"#utility.yul\":10543:10559   */\n      add\n        /* \"#utility.yul\":10537:10560   */\n      mload\n        /* \"#utility.yul\":10573:10636   */\n      tag_405\n        /* \"#utility.yul\":10630:10634   */\n      0x60\n        /* \"#utility.yul\":10625:10628   */\n      dup6\n        /* \"#utility.yul\":10621:10635   */\n      add\n        /* \"#utility.yul\":10607:10619   */\n      dup3\n        /* \"#utility.yul\":10573:10636   */\n      tag_403\n      jump\t// in\n    tag_405:\n        /* \"#utility.yul\":10475:10646   */\n      pop\n        /* \"#utility.yul\":10739:10743   */\n      0x80\n        /* \"#utility.yul\":10732:10737   */\n      dup3\n        /* \"#utility.yul\":10728:10744   */\n      add\n        /* \"#utility.yul\":10722:10745   */\n      mload\n        /* \"#utility.yul\":10758:10821   */\n      tag_406\n        /* \"#utility.yul\":10815:10819   */\n      0x80\n        /* \"#utility.yul\":10810:10813   */\n      dup6\n        /* \"#utility.yul\":10806:10820   */\n      add\n        /* \"#utility.yul\":10792:10804   */\n      dup3\n        /* \"#utility.yul\":10758:10821   */\n      tag_403\n      jump\t// in\n    tag_406:\n        /* \"#utility.yul\":10656:10831   */\n      pop\n        /* \"#utility.yul\":9886:10838   */\n      pop\n        /* \"#utility.yul\":9750:10838   */\n      pop\n      pop\n      jump\t// out\n        /* \"#utility.yul\":10908:12336   */\n    tag_407:\n        /* \"#utility.yul\":11061:11065   */\n      0xe0\n        /* \"#utility.yul\":11056:11059   */\n      dup3\n        /* \"#utility.yul\":11052:11066   */\n      add\n        /* \"#utility.yul\":11153:11157   */\n      0x00\n        /* \"#utility.yul\":11146:11151   */\n      dup3\n        /* \"#utility.yul\":11142:11158   */\n      add\n        /* \"#utility.yul\":11136:11159   */\n      mload\n        /* \"#utility.yul\":11172:11235   */\n      tag_409\n        /* \"#utility.yul\":11229:11233   */\n      0x00\n        /* \"#utility.yul\":11224:11227   */\n      dup6\n        /* \"#utility.yul\":11220:11234   */\n      add\n        /* \"#utility.yul\":11206:11218   */\n      dup3\n        /* \"#utility.yul\":11172:11235   */\n      tag_403\n      jump\t// in\n    tag_409:\n        /* \"#utility.yul\":11076:11245   */\n      pop\n        /* \"#utility.yul\":11340:11344   */\n      0x20\n        /* \"#utility.yul\":11333:11338   */\n      dup3\n        /* \"#utility.yul\":11329:11345   */\n      add\n        /* \"#utility.yul\":11323:11346   */\n      mload\n        /* \"#utility.yul\":11359:11418   */\n      tag_410\n        /* \"#utility.yul\":11412:11416   */\n      0x20\n        /* \"#utility.yul\":11407:11410   */\n      dup6\n        /* \"#utility.yul\":11403:11417   */\n      add\n        /* \"#utility.yul\":11389:11401   */\n      dup3\n        /* \"#utility.yul\":11359:11418   */\n      tag_401\n      jump\t// in\n    tag_410:\n        /* \"#utility.yul\":11255:11428   */\n      pop\n        /* \"#utility.yul\":11518:11522   */\n      0x40\n        /* \"#utility.yul\":11511:11516   */\n      dup3\n        /* \"#utility.yul\":11507:11523   */\n      add\n        /* \"#utility.yul\":11501:11524   */\n      mload\n        /* \"#utility.yul\":11537:11600   */\n      tag_411\n        /* \"#utility.yul\":11594:11598   */\n      0x40\n        /* \"#utility.yul\":11589:11592   */\n      dup6\n        /* \"#utility.yul\":11585:11599   */\n      add\n        /* \"#utility.yul\":11571:11583   */\n      dup3\n        /* \"#utility.yul\":11537:11600   */\n      tag_403\n      jump\t// in\n    tag_411:\n        /* \"#utility.yul\":11438:11610   */\n      pop\n        /* \"#utility.yul\":11700:11704   */\n      0x60\n        /* \"#utility.yul\":11693:11698   */\n      dup3\n        /* \"#utility.yul\":11689:11705   */\n      add\n        /* \"#utility.yul\":11683:11706   */\n      mload\n        /* \"#utility.yul\":11719:11782   */\n      tag_412\n        /* \"#utility.yul\":11776:11780   */\n      0x60\n        /* \"#utility.yul\":11771:11774   */\n      dup6\n        /* \"#utility.yul\":11767:11781   */\n      add\n        /* \"#utility.yul\":11753:11765   */\n      dup3\n        /* \"#utility.yul\":11719:11782   */\n      tag_403\n      jump\t// in\n    tag_412:\n        /* \"#utility.yul\":11620:11792   */\n      pop\n        /* \"#utility.yul\":11884:11888   */\n      0x80\n        /* \"#utility.yul\":11877:11882   */\n      dup3\n        /* \"#utility.yul\":11873:11889   */\n      add\n        /* \"#utility.yul\":11867:11890   */\n      mload\n        /* \"#utility.yul\":11903:11966   */\n      tag_413\n        /* \"#utility.yul\":11960:11964   */\n      0x80\n        /* \"#utility.yul\":11955:11958   */\n      dup6\n        /* \"#utility.yul\":11951:11965   */\n      add\n        /* \"#utility.yul\":11937:11949   */\n      dup3\n        /* \"#utility.yul\":11903:11966   */\n      tag_403\n      jump\t// in\n    tag_413:\n        /* \"#utility.yul\":11802:11976   */\n      pop\n        /* \"#utility.yul\":12063:12067   */\n      0xa0\n        /* \"#utility.yul\":12056:12061   */\n      dup3\n        /* \"#utility.yul\":12052:12068   */\n      add\n        /* \"#utility.yul\":12046:12069   */\n      mload\n        /* \"#utility.yul\":12082:12143   */\n      tag_414\n        /* \"#utility.yul\":12137:12141   */\n      0xa0\n        /* \"#utility.yul\":12132:12135   */\n      dup6\n        /* \"#utility.yul\":12128:12142   */\n      add\n        /* \"#utility.yul\":12114:12126   */\n      dup3\n        /* \"#utility.yul\":12082:12143   */\n      tag_415\n      jump\t// in\n    tag_414:\n        /* \"#utility.yul\":11986:12153   */\n      pop\n        /* \"#utility.yul\":12239:12243   */\n      0xc0\n        /* \"#utility.yul\":12232:12237   */\n      dup3\n        /* \"#utility.yul\":12228:12244   */\n      add\n        /* \"#utility.yul\":12222:12245   */\n      mload\n        /* \"#utility.yul\":12258:12319   */\n      tag_416\n        /* \"#utility.yul\":12313:12317   */\n      0xc0\n        /* \"#utility.yul\":12308:12311   */\n      dup6\n        /* \"#utility.yul\":12304:12318   */\n      add\n        /* \"#utility.yul\":12290:12302   */\n      dup3\n        /* \"#utility.yul\":12258:12319   */\n      tag_415\n      jump\t// in\n    tag_416:\n        /* \"#utility.yul\":12163:12329   */\n      pop\n        /* \"#utility.yul\":11030:12336   */\n      pop\n        /* \"#utility.yul\":10908:12336   */\n      pop\n      pop\n      jump\t// out\n        /* \"#utility.yul\":12342:12447   */\n    tag_415:\n        /* \"#utility.yul\":12417:12440   */\n      tag_418\n        /* \"#utility.yul\":12434:12439   */\n      dup2\n        /* \"#utility.yul\":12417:12440   */\n      tag_419\n      jump\t// in\n    tag_418:\n        /* \"#utility.yul\":12412:12415   */\n      dup3\n        /* \"#utility.yul\":12405:12441   */\n      mstore\n        /* \"#utility.yul\":12342:12447   */\n      pop\n      pop\n      jump\t// out\n        /* \"#utility.yul\":12453:12568   */\n    tag_420:\n        /* \"#utility.yul\":12538:12561   */\n      tag_422\n        /* \"#utility.yul\":12555:12560   */\n      dup2\n        /* \"#utility.yul\":12538:12561   */\n      tag_419\n      jump\t// in\n    tag_422:\n        /* \"#utility.yul\":12533:12536   */\n      dup3\n        /* \"#utility.yul\":12526:12562   */\n      mstore\n        /* \"#utility.yul\":12453:12568   */\n      pop\n      pop\n      jump\t// out\n        /* \"#utility.yul\":12574:12682   */\n    tag_403:\n        /* \"#utility.yul\":12651:12675   */\n      tag_424\n        /* \"#utility.yul\":12669:12674   */\n      dup2\n        /* \"#utility.yul\":12651:12675   */\n      tag_425\n      jump\t// in\n    tag_424:\n        /* \"#utility.yul\":12646:12649   */\n      dup3\n        /* \"#utility.yul\":12639:12676   */\n      mstore\n        /* \"#utility.yul\":12574:12682   */\n      pop\n      pop\n      jump\t// out\n        /* \"#utility.yul\":12688:12806   */\n    tag_426:\n        /* \"#utility.yul\":12775:12799   */\n      tag_428\n        /* \"#utility.yul\":12793:12798   */\n      dup2\n        /* \"#utility.yul\":12775:12799   */\n      tag_425\n      jump\t// in\n    tag_428:\n        /* \"#utility.yul\":12770:12773   */\n      dup3\n        /* \"#utility.yul\":12763:12800   */\n      mstore\n        /* \"#utility.yul\":12688:12806   */\n      pop\n      pop\n      jump\t// out\n        /* \"#utility.yul\":12812:12914   */\n    tag_401:\n        /* \"#utility.yul\":12885:12907   */\n      tag_430\n        /* \"#utility.yul\":12901:12906   */\n      dup2\n        /* \"#utility.yul\":12885:12907   */\n      tag_431\n      jump\t// in\n    tag_430:\n        /* \"#utility.yul\":12880:12883   */\n      dup3\n        /* \"#utility.yul\":12873:12908   */\n      mstore\n        /* \"#utility.yul\":12812:12914   */\n      pop\n      pop\n      jump\t// out\n        /* \"#utility.yul\":12920:13032   */\n    tag_432:\n        /* \"#utility.yul\":13003:13025   */\n      tag_434\n        /* \"#utility.yul\":13019:13024   */\n      dup2\n        /* \"#utility.yul\":13003:13025   */\n      tag_431\n      jump\t// in\n    tag_434:\n        /* \"#utility.yul\":12998:13001   */\n      dup3\n        /* \"#utility.yul\":12991:13026   */\n      mstore\n        /* \"#utility.yul\":12920:13032   */\n      pop\n      pop\n      jump\t// out\n        /* \"#utility.yul\":13038:13260   */\n    tag_62:\n        /* \"#utility.yul\":13131:13135   */\n      0x00\n        /* \"#utility.yul\":13169:13171   */\n      0x20\n        /* \"#utility.yul\":13158:13167   */\n      dup3\n        /* \"#utility.yul\":13154:13172   */\n      add\n        /* \"#utility.yul\":13146:13172   */\n      swap1\n      pop\n        /* \"#utility.yul\":13182:13253   */\n      tag_436\n        /* \"#utility.yul\":13250:13251   */\n      0x00\n        /* \"#utility.yul\":13239:13248   */\n      dup4\n        /* \"#utility.yul\":13235:13252   */\n      add\n        /* \"#utility.yul\":13226:13232   */\n      dup5\n        /* \"#utility.yul\":13182:13253   */\n      tag_318\n      jump\t// in\n    tag_436:\n        /* \"#utility.yul\":13038:13260   */\n      swap3\n      swap2\n      pop\n      pop\n      jump\t// out\n        /* \"#utility.yul\":13266:13598   */\n    tag_139:\n        /* \"#utility.yul\":13387:13391   */\n      0x00\n        /* \"#utility.yul\":13425:13427   */\n      0x40\n        /* \"#utility.yul\":13414:13423   */\n      dup3\n        /* \"#utility.yul\":13410:13428   */\n      add\n        /* \"#utility.yul\":13402:13428   */\n      swap1\n      pop\n        /* \"#utility.yul\":13438:13509   */\n      tag_438\n        /* \"#utility.yul\":13506:13507   */\n      0x00\n        /* \"#utility.yul\":13495:13504   */\n      dup4\n        /* \"#utility.yul\":13491:13508   */\n      add\n        /* \"#utility.yul\":13482:13488   */\n      dup6\n        /* \"#utility.yul\":13438:13509   */\n      tag_318\n      jump\t// in\n    tag_438:\n        /* \"#utility.yul\":13519:13591   */\n      tag_439\n        /* \"#utility.yul\":13587:13589   */\n      0x20\n        /* \"#utility.yul\":13576:13585   */\n      dup4\n        /* \"#utility.yul\":13572:13590   */\n      add\n        /* \"#utility.yul\":13563:13569   */\n      dup5\n        /* \"#utility.yul\":13519:13591   */\n      tag_318\n      jump\t// in\n    tag_439:\n        /* \"#utility.yul\":13266:13598   */\n      swap4\n      swap3\n      pop\n      pop\n      pop\n      jump\t// out\n        /* \"#utility.yul\":13604:14046   */\n    tag_154:\n        /* \"#utility.yul\":13753:13757   */\n      0x00\n        /* \"#utility.yul\":13791:13793   */\n      0x60\n        /* \"#utility.yul\":13780:13789   */\n      dup3\n        /* \"#utility.yul\":13776:13794   */\n      add\n        /* \"#utility.yul\":13768:13794   */\n      swap1\n      pop\n        /* \"#utility.yul\":13804:13875   */\n      tag_441\n        /* \"#utility.yul\":13872:13873   */\n      0x00\n        /* \"#utility.yul\":13861:13870   */\n      dup4\n        /* \"#utility.yul\":13857:13874   */\n      add\n        /* \"#utility.yul\":13848:13854   */\n      dup7\n        /* \"#utility.yul\":13804:13875   */\n      tag_318\n      jump\t// in\n    tag_441:\n        /* \"#utility.yul\":13885:13957   */\n      tag_442\n        /* \"#utility.yul\":13953:13955   */\n      0x20\n        /* \"#utility.yul\":13942:13951   */\n      dup4\n        /* \"#utility.yul\":13938:13956   */\n      add\n        /* \"#utility.yul\":13929:13935   */\n      dup6\n        /* \"#utility.yul\":13885:13957   */\n      tag_318\n      jump\t// in\n    tag_442:\n        /* \"#utility.yul\":13967:14039   */\n      tag_443\n        /* \"#utility.yul\":14035:14037   */\n      0x40\n        /* \"#utility.yul\":14024:14033   */\n      dup4\n        /* \"#utility.yul\":14020:14038   */\n      add\n        /* \"#utility.yul\":14011:14017   */\n      dup5\n        /* \"#utility.yul\":13967:14039   */\n      tag_426\n      jump\t// in\n    tag_443:\n        /* \"#utility.yul\":13604:14046   */\n      swap5\n      swap4\n      pop\n      pop\n      pop\n      pop\n      jump\t// out\n        /* \"#utility.yul\":14052:14384   */\n    tag_185:\n        /* \"#utility.yul\":14173:14177   */\n      0x00\n        /* \"#utility.yul\":14211:14213   */\n      0x40\n        /* \"#utility.yul\":14200:14209   */\n      dup3\n        /* \"#utility.yul\":14196:14214   */\n      add\n        /* \"#utility.yul\":14188:14214   */\n      swap1\n      pop\n        /* \"#utility.yul\":14224:14295   */\n      tag_445\n        /* \"#utility.yul\":14292:14293   */\n      0x00\n        /* \"#utility.yul\":14281:14290   */\n      dup4\n        /* \"#utility.yul\":14277:14294   */\n      add\n        /* \"#utility.yul\":14268:14274   */\n      dup6\n        /* \"#utility.yul\":14224:14295   */\n      tag_318\n      jump\t// in\n    tag_445:\n        /* \"#utility.yul\":14305:14377   */\n      tag_446\n        /* \"#utility.yul\":14373:14375   */\n      0x20\n        /* \"#utility.yul\":14362:14371   */\n      dup4\n        /* \"#utility.yul\":14358:14376   */\n      add\n        /* \"#utility.yul\":14349:14355   */\n      dup5\n        /* \"#utility.yul\":14305:14377   */\n      tag_426\n      jump\t// in\n    tag_446:\n        /* \"#utility.yul\":14052:14384   */\n      swap4\n      swap3\n      pop\n      pop\n      pop\n      jump\t// out\n        /* \"#utility.yul\":14390:14824   */\n    tag_162:\n        /* \"#utility.yul\":14535:14539   */\n      0x00\n        /* \"#utility.yul\":14573:14575   */\n      0x60\n        /* \"#utility.yul\":14562:14571   */\n      dup3\n        /* \"#utility.yul\":14558:14576   */\n      add\n        /* \"#utility.yul\":14550:14576   */\n      swap1\n      pop\n        /* \"#utility.yul\":14586:14657   */\n      tag_448\n        /* \"#utility.yul\":14654:14655   */\n      0x00\n        /* \"#utility.yul\":14643:14652   */\n      dup4\n        /* \"#utility.yul\":14639:14656   */\n      add\n        /* \"#utility.yul\":14630:14636   */\n      dup7\n        /* \"#utility.yul\":14586:14657   */\n      tag_318\n      jump\t// in\n    tag_448:\n        /* \"#utility.yul\":14667:14735   */\n      tag_449\n        /* \"#utility.yul\":14731:14733   */\n      0x20\n        /* \"#utility.yul\":14720:14729   */\n      dup4\n        /* \"#utility.yul\":14716:14734   */\n      add\n        /* \"#utility.yul\":14707:14713   */\n      dup6\n        /* \"#utility.yul\":14667:14735   */\n      tag_432\n      jump\t// in\n    tag_449:\n        /* \"#utility.yul\":14745:14817   */\n      tag_450\n        /* \"#utility.yul\":14813:14815   */\n      0x40\n        /* \"#utility.yul\":14802:14811   */\n      dup4\n        /* \"#utility.yul\":14798:14816   */\n      add\n        /* \"#utility.yul\":14789:14795   */\n      dup5\n        /* \"#utility.yul\":14745:14817   */\n      tag_426\n      jump\t// in\n    tag_450:\n        /* \"#utility.yul\":14390:14824   */\n      swap5\n      swap4\n      pop\n      pop\n      pop\n      pop\n      jump\t// out\n        /* \"#utility.yul\":14830:15249   */\n    tag_110:\n        /* \"#utility.yul\":14996:15000   */\n      0x00\n        /* \"#utility.yul\":15034:15036   */\n      0x20\n        /* \"#utility.yul\":15023:15032   */\n      dup3\n        /* \"#utility.yul\":15019:15037   */\n      add\n        /* \"#utility.yul\":15011:15037   */\n      swap1\n      pop\n        /* \"#utility.yul\":15083:15092   */\n      dup2\n        /* \"#utility.yul\":15077:15081   */\n      dup2\n        /* \"#utility.yul\":15073:15093   */\n      sub\n        /* \"#utility.yul\":15069:15070   */\n      0x00\n        /* \"#utility.yul\":15058:15067   */\n      dup4\n        /* \"#utility.yul\":15054:15071   */\n      add\n        /* \"#utility.yul\":15047:15094   */\n      mstore\n        /* \"#utility.yul\":15111:15242   */\n      tag_452\n        /* \"#utility.yul\":15237:15241   */\n      dup2\n        /* \"#utility.yul\":15111:15242   */\n      tag_322\n      jump\t// in\n    tag_452:\n        /* \"#utility.yul\":15103:15242   */\n      swap1\n      pop\n        /* \"#utility.yul\":14830:15249   */\n      swap2\n      swap1\n      pop\n      jump\t// out\n        /* \"#utility.yul\":15255:15674   */\n    tag_166:\n        /* \"#utility.yul\":15421:15425   */\n      0x00\n        /* \"#utility.yul\":15459:15461   */\n      0x20\n        /* \"#utility.yul\":15448:15457   */\n      dup3\n        /* \"#utility.yul\":15444:15462   */\n      add\n        /* \"#utility.yul\":15436:15462   */\n      swap1\n      pop\n        /* \"#utility.yul\":15508:15517   */\n      dup2\n        /* \"#utility.yul\":15502:15506   */\n      dup2\n        /* \"#utility.yul\":15498:15518   */\n      sub\n        /* \"#utility.yul\":15494:15495   */\n      0x00\n        /* \"#utility.yul\":15483:15492   */\n      dup4\n        /* \"#utility.yul\":15479:15496   */\n      add\n        /* \"#utility.yul\":15472:15519   */\n      mstore\n        /* \"#utility.yul\":15536:15667   */\n      tag_454\n        /* \"#utility.yul\":15662:15666   */\n      dup2\n        /* \"#utility.yul\":15536:15667   */\n      tag_328\n      jump\t// in\n    tag_454:\n        /* \"#utility.yul\":15528:15667   */\n      swap1\n      pop\n        /* \"#utility.yul\":15255:15674   */\n      swap2\n      swap1\n      pop\n      jump\t// out\n        /* \"#utility.yul\":15680:16099   */\n    tag_252:\n        /* \"#utility.yul\":15846:15850   */\n      0x00\n        /* \"#utility.yul\":15884:15886   */\n      0x20\n        /* \"#utility.yul\":15873:15882   */\n      dup3\n        /* \"#utility.yul\":15869:15887   */\n      add\n        /* \"#utility.yul\":15861:15887   */\n      swap1\n      pop\n        /* \"#utility.yul\":15933:15942   */\n      dup2\n        /* \"#utility.yul\":15927:15931   */\n      dup2\n        /* \"#utility.yul\":15923:15943   */\n      sub\n        /* \"#utility.yul\":15919:15920   */\n      0x00\n        /* \"#utility.yul\":15908:15917   */\n      dup4\n        /* \"#utility.yul\":15904:15921   */\n      add\n        /* \"#utility.yul\":15897:15944   */\n      mstore\n        /* \"#utility.yul\":15961:16092   */\n      tag_456\n        /* \"#utility.yul\":16087:16091   */\n      dup2\n        /* \"#utility.yul\":15961:16092   */\n      tag_333\n      jump\t// in\n    tag_456:\n        /* \"#utility.yul\":15953:16092   */\n      swap1\n      pop\n        /* \"#utility.yul\":15680:16099   */\n      swap2\n      swap1\n      pop\n      jump\t// out\n        /* \"#utility.yul\":16105:16524   */\n    tag_174:\n        /* \"#utility.yul\":16271:16275   */\n      0x00\n        /* \"#utility.yul\":16309:16311   */\n      0x20\n        /* \"#utility.yul\":16298:16307   */\n      dup3\n        /* \"#utility.yul\":16294:16312   */\n      add\n        /* \"#utility.yul\":16286:16312   */\n      swap1\n      pop\n        /* \"#utility.yul\":16358:16367   */\n      dup2\n        /* \"#utility.yul\":16352:16356   */\n      dup2\n        /* \"#utility.yul\":16348:16368   */\n      sub\n        /* \"#utility.yul\":16344:16345   */\n      0x00\n        /* \"#utility.yul\":16333:16342   */\n      dup4\n        /* \"#utility.yul\":16329:16346   */\n      add\n        /* \"#utility.yul\":16322:16369   */\n      mstore\n        /* \"#utility.yul\":16386:16517   */\n      tag_458\n        /* \"#utility.yul\":16512:16516   */\n      dup2\n        /* \"#utility.yul\":16386:16517   */\n      tag_338\n      jump\t// in\n    tag_458:\n        /* \"#utility.yul\":16378:16517   */\n      swap1\n      pop\n        /* \"#utility.yul\":16105:16524   */\n      swap2\n      swap1\n      pop\n      jump\t// out\n        /* \"#utility.yul\":16530:16949   */\n    tag_149:\n        /* \"#utility.yul\":16696:16700   */\n      0x00\n        /* \"#utility.yul\":16734:16736   */\n      0x20\n        /* \"#utility.yul\":16723:16732   */\n      dup3\n        /* \"#utility.yul\":16719:16737   */\n      add\n        /* \"#utility.yul\":16711:16737   */\n      swap1\n      pop\n        /* \"#utility.yul\":16783:16792   */\n      dup2\n        /* \"#utility.yul\":16777:16781   */\n      dup2\n        /* \"#utility.yul\":16773:16793   */\n      sub\n        /* \"#utility.yul\":16769:16770   */\n      0x00\n        /* \"#utility.yul\":16758:16767   */\n      dup4\n        /* \"#utility.yul\":16754:16771   */\n      add\n        /* \"#utility.yul\":16747:16794   */\n      mstore\n        /* \"#utility.yul\":16811:16942   */\n      tag_460\n        /* \"#utility.yul\":16937:16941   */\n      dup2\n        /* \"#utility.yul\":16811:16942   */\n      tag_343\n      jump\t// in\n    tag_460:\n        /* \"#utility.yul\":16803:16942   */\n      swap1\n      pop\n        /* \"#utility.yul\":16530:16949   */\n      swap2\n      swap1\n      pop\n      jump\t// out\n        /* \"#utility.yul\":16955:17374   */\n    tag_131:\n        /* \"#utility.yul\":17121:17125   */\n      0x00\n        /* \"#utility.yul\":17159:17161   */\n      0x20\n        /* \"#utility.yul\":17148:17157   */\n      dup3\n        /* \"#utility.yul\":17144:17162   */\n      add\n        /* \"#utility.yul\":17136:17162   */\n      swap1\n      pop\n        /* \"#utility.yul\":17208:17217   */\n      dup2\n        /* \"#utility.yul\":17202:17206   */\n      dup2\n        /* \"#utility.yul\":17198:17218   */\n      sub\n        /* \"#utility.yul\":17194:17195   */\n      0x00\n        /* \"#utility.yul\":17183:17192   */\n      dup4\n        /* \"#utility.yul\":17179:17196   */\n      add\n        /* \"#utility.yul\":17172:17219   */\n      mstore\n        /* \"#utility.yul\":17236:17367   */\n      tag_462\n        /* \"#utility.yul\":17362:17366   */\n      dup2\n        /* \"#utility.yul\":17236:17367   */\n      tag_348\n      jump\t// in\n    tag_462:\n        /* \"#utility.yul\":17228:17367   */\n      swap1\n      pop\n        /* \"#utility.yul\":16955:17374   */\n      swap2\n      swap1\n      pop\n      jump\t// out\n        /* \"#utility.yul\":17380:17799   */\n    tag_260:\n        /* \"#utility.yul\":17546:17550   */\n      0x00\n        /* \"#utility.yul\":17584:17586   */\n      0x20\n        /* \"#utility.yul\":17573:17582   */\n      dup3\n        /* \"#utility.yul\":17569:17587   */\n      add\n        /* \"#utility.yul\":17561:17587   */\n      swap1\n      pop\n        /* \"#utility.yul\":17633:17642   */\n      dup2\n        /* \"#utility.yul\":17627:17631   */\n      dup2\n        /* \"#utility.yul\":17623:17643   */\n      sub\n        /* \"#utility.yul\":17619:17620   */\n      0x00\n        /* \"#utility.yul\":17608:17617   */\n      dup4\n        /* \"#utility.yul\":17604:17621   */\n      add\n        /* \"#utility.yul\":17597:17644   */\n      mstore\n        /* \"#utility.yul\":17661:17792   */\n      tag_464\n        /* \"#utility.yul\":17787:17791   */\n      dup2\n        /* \"#utility.yul\":17661:17792   */\n      tag_353\n      jump\t// in\n    tag_464:\n        /* \"#utility.yul\":17653:17792   */\n      swap1\n      pop\n        /* \"#utility.yul\":17380:17799   */\n      swap2\n      swap1\n      pop\n      jump\t// out\n        /* \"#utility.yul\":17805:18224   */\n    tag_170:\n        /* \"#utility.yul\":17971:17975   */\n      0x00\n        /* \"#utility.yul\":18009:18011   */\n      0x20\n        /* \"#utility.yul\":17998:18007   */\n      dup3\n        /* \"#utility.yul\":17994:18012   */\n      add\n        /* \"#utility.yul\":17986:18012   */\n      swap1\n      pop\n        /* \"#utility.yul\":18058:18067   */\n      dup2\n        /* \"#utility.yul\":18052:18056   */\n      dup2\n        /* \"#utility.yul\":18048:18068   */\n      sub\n        /* \"#utility.yul\":18044:18045   */\n      0x00\n        /* \"#utility.yul\":18033:18042   */\n      dup4\n        /* \"#utility.yul\":18029:18046   */\n      add\n        /* \"#utility.yul\":18022:18069   */\n      mstore\n        /* \"#utility.yul\":18086:18217   */\n      tag_466\n        /* \"#utility.yul\":18212:18216   */\n      dup2\n        /* \"#utility.yul\":18086:18217   */\n      tag_358\n      jump\t// in\n    tag_466:\n        /* \"#utility.yul\":18078:18217   */\n      swap1\n      pop\n        /* \"#utility.yul\":17805:18224   */\n      swap2\n      swap1\n      pop\n      jump\t// out\n        /* \"#utility.yul\":18230:18649   */\n    tag_119:\n        /* \"#utility.yul\":18396:18400   */\n      0x00\n        /* \"#utility.yul\":18434:18436   */\n      0x20\n        /* \"#utility.yul\":18423:18432   */\n      dup3\n        /* \"#utility.yul\":18419:18437   */\n      add\n        /* \"#utility.yul\":18411:18437   */\n      swap1\n      pop\n        /* \"#utility.yul\":18483:18492   */\n      dup2\n        /* \"#utility.yul\":18477:18481   */\n      dup2\n        /* \"#utility.yul\":18473:18493   */\n      sub\n        /* \"#utility.yul\":18469:18470   */\n      0x00\n        /* \"#utility.yul\":18458:18467   */\n      dup4\n        /* \"#utility.yul\":18454:18471   */\n      add\n        /* \"#utility.yul\":18447:18494   */\n      mstore\n        /* \"#utility.yul\":18511:18642   */\n      tag_468\n        /* \"#utility.yul\":18637:18641   */\n      dup2\n        /* \"#utility.yul\":18511:18642   */\n      tag_363\n      jump\t// in\n    tag_468:\n        /* \"#utility.yul\":18503:18642   */\n      swap1\n      pop\n        /* \"#utility.yul\":18230:18649   */\n      swap2\n      swap1\n      pop\n      jump\t// out\n        /* \"#utility.yul\":18655:19074   */\n    tag_80:\n        /* \"#utility.yul\":18821:18825   */\n      0x00\n        /* \"#utility.yul\":18859:18861   */\n      0x20\n        /* \"#utility.yul\":18848:18857   */\n      dup3\n        /* \"#utility.yul\":18844:18862   */\n      add\n        /* \"#utility.yul\":18836:18862   */\n      swap1\n      pop\n        /* \"#utility.yul\":18908:18917   */\n      dup2\n        /* \"#utility.yul\":18902:18906   */\n      dup2\n        /* \"#utility.yul\":18898:18918   */\n      sub\n        /* \"#utility.yul\":18894:18895   */\n      0x00\n        /* \"#utility.yul\":18883:18892   */\n      dup4\n        /* \"#utility.yul\":18879:18896   */\n      add\n        /* \"#utility.yul\":18872:18919   */\n      mstore\n        /* \"#utility.yul\":18936:19067   */\n      tag_470\n        /* \"#utility.yul\":19062:19066   */\n      dup2\n        /* \"#utility.yul\":18936:19067   */\n      tag_368\n      jump\t// in\n    tag_470:\n        /* \"#utility.yul\":18928:19067   */\n      swap1\n      pop\n        /* \"#utility.yul\":18655:19074   */\n      swap2\n      swap1\n      pop\n      jump\t// out\n        /* \"#utility.yul\":19080:19499   */\n    tag_113:\n        /* \"#utility.yul\":19246:19250   */\n      0x00\n        /* \"#utility.yul\":19284:19286   */\n      0x20\n        /* \"#utility.yul\":19273:19282   */\n      dup3\n        /* \"#utility.yul\":19269:19287   */\n      add\n        /* \"#utility.yul\":19261:19287   */\n      swap1\n      pop\n        /* \"#utility.yul\":19333:19342   */\n      dup2\n        /* \"#utility.yul\":19327:19331   */\n      dup2\n        /* \"#utility.yul\":19323:19343   */\n      sub\n        /* \"#utility.yul\":19319:19320   */\n      0x00\n        /* \"#utility.yul\":19308:19317   */\n      dup4\n        /* \"#utility.yul\":19304:19321   */\n      add\n        /* \"#utility.yul\":19297:19344   */\n      mstore\n        /* \"#utility.yul\":19361:19492   */\n      tag_472\n        /* \"#utility.yul\":19487:19491   */\n      dup2\n        /* \"#utility.yul\":19361:19492   */\n      tag_373\n      jump\t// in\n    tag_472:\n        /* \"#utility.yul\":19353:19492   */\n      swap1\n      pop\n        /* \"#utility.yul\":19080:19499   */\n      swap2\n      swap1\n      pop\n      jump\t// out\n        /* \"#utility.yul\":19505:19924   */\n    tag_93:\n        /* \"#utility.yul\":19671:19675   */\n      0x00\n        /* \"#utility.yul\":19709:19711   */\n      0x20\n        /* \"#utility.yul\":19698:19707   */\n      dup3\n        /* \"#utility.yul\":19694:19712   */\n      add\n        /* \"#utility.yul\":19686:19712   */\n      swap1\n      pop\n        /* \"#utility.yul\":19758:19767   */\n      dup2\n        /* \"#utility.yul\":19752:19756   */\n      dup2\n        /* \"#utility.yul\":19748:19768   */\n      sub\n        /* \"#utility.yul\":19744:19745   */\n      0x00\n        /* \"#utility.yul\":19733:19742   */\n      dup4\n        /* \"#utility.yul\":19729:19746   */\n      add\n        /* \"#utility.yul\":19722:19769   */\n      mstore\n        /* \"#utility.yul\":19786:19917   */\n      tag_474\n        /* \"#utility.yul\":19912:19916   */\n      dup2\n        /* \"#utility.yul\":19786:19917   */\n      tag_378\n      jump\t// in\n    tag_474:\n        /* \"#utility.yul\":19778:19917   */\n      swap1\n      pop\n        /* \"#utility.yul\":19505:19924   */\n      swap2\n      swap1\n      pop\n      jump\t// out\n        /* \"#utility.yul\":19930:20349   */\n    tag_146:\n        /* \"#utility.yul\":20096:20100   */\n      0x00\n        /* \"#utility.yul\":20134:20136   */\n      0x20\n        /* \"#utility.yul\":20123:20132   */\n      dup3\n        /* \"#utility.yul\":20119:20137   */\n      add\n        /* \"#utility.yul\":20111:20137   */\n      swap1\n      pop\n        /* \"#utility.yul\":20183:20192   */\n      dup2\n        /* \"#utility.yul\":20177:20181   */\n      dup2\n        /* \"#utility.yul\":20173:20193   */\n      sub\n        /* \"#utility.yul\":20169:20170   */\n      0x00\n        /* \"#utility.yul\":20158:20167   */\n      dup4\n        /* \"#utility.yul\":20154:20171   */\n      add\n        /* \"#utility.yul\":20147:20194   */\n      mstore\n        /* \"#utility.yul\":20211:20342   */\n      tag_476\n        /* \"#utility.yul\":20337:20341   */\n      dup2\n        /* \"#utility.yul\":20211:20342   */\n      tag_383\n      jump\t// in\n    tag_476:\n        /* \"#utility.yul\":20203:20342   */\n      swap1\n      pop\n        /* \"#utility.yul\":19930:20349   */\n      swap2\n      swap1\n      pop\n      jump\t// out\n        /* \"#utility.yul\":20355:20774   */\n    tag_152:\n        /* \"#utility.yul\":20521:20525   */\n      0x00\n        /* \"#utility.yul\":20559:20561   */\n      0x20\n        /* \"#utility.yul\":20548:20557   */\n      dup3\n        /* \"#utility.yul\":20544:20562   */\n      add\n        /* \"#utility.yul\":20536:20562   */\n      swap1\n      pop\n        /* \"#utility.yul\":20608:20617   */\n      dup2\n        /* \"#utility.yul\":20602:20606   */\n      dup2\n        /* \"#utility.yul\":20598:20618   */\n      sub\n        /* \"#utility.yul\":20594:20595   */\n      0x00\n        /* \"#utility.yul\":20583:20592   */\n      dup4\n        /* \"#utility.yul\":20579:20596   */\n      add\n        /* \"#utility.yul\":20572:20619   */\n      mstore\n        /* \"#utility.yul\":20636:20767   */\n      tag_478\n        /* \"#utility.yul\":20762:20766   */\n      dup2\n        /* \"#utility.yul\":20636:20767   */\n      tag_388\n      jump\t// in\n    tag_478:\n        /* \"#utility.yul\":20628:20767   */\n      swap1\n      pop\n        /* \"#utility.yul\":20355:20774   */\n      swap2\n      swap1\n      pop\n      jump\t// out\n        /* \"#utility.yul\":20780:21199   */\n    tag_181:\n        /* \"#utility.yul\":20946:20950   */\n      0x00\n        /* \"#utility.yul\":20984:20986   */\n      0x20\n        /* \"#utility.yul\":20973:20982   */\n      dup3\n        /* \"#utility.yul\":20969:20987   */\n      add\n        /* \"#utility.yul\":20961:20987   */\n      swap1\n      pop\n        /* \"#utility.yul\":21033:21042   */\n      dup2\n        /* \"#utility.yul\":21027:21031   */\n      dup2\n        /* \"#utility.yul\":21023:21043   */\n      sub\n        /* \"#utility.yul\":21019:21020   */\n      0x00\n        /* \"#utility.yul\":21008:21017   */\n      dup4\n        /* \"#utility.yul\":21004:21021   */\n      add\n        /* \"#utility.yul\":20997:21044   */\n      mstore\n        /* \"#utility.yul\":21061:21192   */\n      tag_480\n        /* \"#utility.yul\":21187:21191   */\n      dup2\n        /* \"#utility.yul\":21061:21192   */\n      tag_393\n      jump\t// in\n    tag_480:\n        /* \"#utility.yul\":21053:21192   */\n      swap1\n      pop\n        /* \"#utility.yul\":20780:21199   */\n      swap2\n      swap1\n      pop\n      jump\t// out\n        /* \"#utility.yul\":21205:21568   */\n    tag_36:\n        /* \"#utility.yul\":21368:21372   */\n      0x00\n        /* \"#utility.yul\":21406:21409   */\n      0xa0\n        /* \"#utility.yul\":21395:21404   */\n      dup3\n        /* \"#utility.yul\":21391:21410   */\n      add\n        /* \"#utility.yul\":21383:21410   */\n      swap1\n      pop\n        /* \"#utility.yul\":21420:21561   */\n      tag_482\n        /* \"#utility.yul\":21558:21559   */\n      0x00\n        /* \"#utility.yul\":21547:21556   */\n      dup4\n        /* \"#utility.yul\":21543:21560   */\n      add\n        /* \"#utility.yul\":21534:21540   */\n      dup5\n        /* \"#utility.yul\":21420:21561   */\n      tag_398\n      jump\t// in\n    tag_482:\n        /* \"#utility.yul\":21205:21568   */\n      swap3\n      swap2\n      pop\n      pop\n      jump\t// out\n        /* \"#utility.yul\":21574:21909   */\n    tag_31:\n        /* \"#utility.yul\":21723:21727   */\n      0x00\n        /* \"#utility.yul\":21761:21764   */\n      0xe0\n        /* \"#utility.yul\":21750:21759   */\n      dup3\n        /* \"#utility.yul\":21746:21765   */\n      add\n        /* \"#utility.yul\":21738:21765   */\n      swap1\n      pop\n        /* \"#utility.yul\":21775:21902   */\n      tag_484\n        /* \"#utility.yul\":21899:21900   */\n      0x00\n        /* \"#utility.yul\":21888:21897   */\n      dup4\n        /* \"#utility.yul\":21884:21901   */\n      add\n        /* \"#utility.yul\":21875:21881   */\n      dup5\n        /* \"#utility.yul\":21775:21902   */\n      tag_407\n      jump\t// in\n    tag_484:\n        /* \"#utility.yul\":21574:21909   */\n      swap3\n      swap2\n      pop\n      pop\n      jump\t// out\n        /* \"#utility.yul\":21915:22137   */\n    tag_25:\n        /* \"#utility.yul\":22008:22012   */\n      0x00\n        /* \"#utility.yul\":22046:22048   */\n      0x20\n        /* \"#utility.yul\":22035:22044   */\n      dup3\n        /* \"#utility.yul\":22031:22049   */\n      add\n        /* \"#utility.yul\":22023:22049   */\n      swap1\n      pop\n        /* \"#utility.yul\":22059:22130   */\n      tag_486\n        /* \"#utility.yul\":22127:22128   */\n      0x00\n        /* \"#utility.yul\":22116:22125   */\n      dup4\n        /* \"#utility.yul\":22112:22129   */\n      add\n        /* \"#utility.yul\":22103:22109   */\n      dup5\n        /* \"#utility.yul\":22059:22130   */\n      tag_426\n      jump\t// in\n    tag_486:\n        /* \"#utility.yul\":21915:22137   */\n      swap3\n      swap2\n      pop\n      pop\n      jump\t// out\n        /* \"#utility.yul\":22143:23013   */\n    tag_67:\n        /* \"#utility.yul\":22396:22400   */\n      0x00\n        /* \"#utility.yul\":22434:22437   */\n      0xe0\n        /* \"#utility.yul\":22423:22432   */\n      dup3\n        /* \"#utility.yul\":22419:22438   */\n      add\n        /* \"#utility.yul\":22411:22438   */\n      swap1\n      pop\n        /* \"#utility.yul\":22448:22519   */\n      tag_488\n        /* \"#utility.yul\":22516:22517   */\n      0x00\n        /* \"#utility.yul\":22505:22514   */\n      dup4\n        /* \"#utility.yul\":22501:22518   */\n      add\n        /* \"#utility.yul\":22492:22498   */\n      dup11\n        /* \"#utility.yul\":22448:22519   */\n      tag_426\n      jump\t// in\n    tag_488:\n        /* \"#utility.yul\":22529:22597   */\n      tag_489\n        /* \"#utility.yul\":22593:22595   */\n      0x20\n        /* \"#utility.yul\":22582:22591   */\n      dup4\n        /* \"#utility.yul\":22578:22596   */\n      add\n        /* \"#utility.yul\":22569:22575   */\n      dup10\n        /* \"#utility.yul\":22529:22597   */\n      tag_432\n      jump\t// in\n    tag_489:\n        /* \"#utility.yul\":22607:22679   */\n      tag_490\n        /* \"#utility.yul\":22675:22677   */\n      0x40\n        /* \"#utility.yul\":22664:22673   */\n      dup4\n        /* \"#utility.yul\":22660:22678   */\n      add\n        /* \"#utility.yul\":22651:22657   */\n      dup9\n        /* \"#utility.yul\":22607:22679   */\n      tag_426\n      jump\t// in\n    tag_490:\n        /* \"#utility.yul\":22689:22761   */\n      tag_491\n        /* \"#utility.yul\":22757:22759   */\n      0x60\n        /* \"#utility.yul\":22746:22755   */\n      dup4\n        /* \"#utility.yul\":22742:22760   */\n      add\n        /* \"#utility.yul\":22733:22739   */\n      dup8\n        /* \"#utility.yul\":22689:22761   */\n      tag_426\n      jump\t// in\n    tag_491:\n        /* \"#utility.yul\":22771:22844   */\n      tag_492\n        /* \"#utility.yul\":22839:22842   */\n      0x80\n        /* \"#utility.yul\":22828:22837   */\n      dup4\n        /* \"#utility.yul\":22824:22843   */\n      add\n        /* \"#utility.yul\":22815:22821   */\n      dup7\n        /* \"#utility.yul\":22771:22844   */\n      tag_426\n      jump\t// in\n    tag_492:\n        /* \"#utility.yul\":22854:22925   */\n      tag_493\n        /* \"#utility.yul\":22920:22923   */\n      0xa0\n        /* \"#utility.yul\":22909:22918   */\n      dup4\n        /* \"#utility.yul\":22905:22924   */\n      add\n        /* \"#utility.yul\":22896:22902   */\n      dup6\n        /* \"#utility.yul\":22854:22925   */\n      tag_420\n      jump\t// in\n    tag_493:\n        /* \"#utility.yul\":22935:23006   */\n      tag_494\n        /* \"#utility.yul\":23001:23004   */\n      0xc0\n        /* \"#utility.yul\":22990:22999   */\n      dup4\n        /* \"#utility.yul\":22986:23005   */\n      add\n        /* \"#utility.yul\":22977:22983   */\n      dup5\n        /* \"#utility.yul\":22935:23006   */\n      tag_420\n      jump\t// in\n    tag_494:\n        /* \"#utility.yul\":22143:23013   */\n      swap9\n      swap8\n      pop\n      pop\n      pop\n      pop\n      pop\n      pop\n      pop\n      pop\n      jump\t// out\n        /* \"#utility.yul\":23019:23675   */\n    tag_56:\n        /* \"#utility.yul\":23220:23224   */\n      0x00\n        /* \"#utility.yul\":23258:23261   */\n      0xa0\n        /* \"#utility.yul\":23247:23256   */\n      dup3\n        /* \"#utility.yul\":23243:23262   */\n      add\n        /* \"#utility.yul\":23235:23262   */\n      swap1\n      pop\n        /* \"#utility.yul\":23272:23339   */\n      tag_496\n        /* \"#utility.yul\":23336:23337   */\n      0x00\n        /* \"#utility.yul\":23325:23334   */\n      dup4\n        /* \"#utility.yul\":23321:23338   */\n      add\n        /* \"#utility.yul\":23312:23318   */\n      dup9\n        /* \"#utility.yul\":23272:23339   */\n      tag_432\n      jump\t// in\n    tag_496:\n        /* \"#utility.yul\":23349:23421   */\n      tag_497\n        /* \"#utility.yul\":23417:23419   */\n      0x20\n        /* \"#utility.yul\":23406:23415   */\n      dup4\n        /* \"#utility.yul\":23402:23420   */\n      add\n        /* \"#utility.yul\":23393:23399   */\n      dup8\n        /* \"#utility.yul\":23349:23421   */\n      tag_426\n      jump\t// in\n    tag_497:\n        /* \"#utility.yul\":23431:23503   */\n      tag_498\n        /* \"#utility.yul\":23499:23501   */\n      0x40\n        /* \"#utility.yul\":23488:23497   */\n      dup4\n        /* \"#utility.yul\":23484:23502   */\n      add\n        /* \"#utility.yul\":23475:23481   */\n      dup7\n        /* \"#utility.yul\":23431:23503   */\n      tag_426\n      jump\t// in\n    tag_498:\n        /* \"#utility.yul\":23513:23585   */\n      tag_499\n        /* \"#utility.yul\":23581:23583   */\n      0x60\n        /* \"#utility.yul\":23570:23579   */\n      dup4\n        /* \"#utility.yul\":23566:23584   */\n      add\n        /* \"#utility.yul\":23557:23563   */\n      dup6\n        /* \"#utility.yul\":23513:23585   */\n      tag_426\n      jump\t// in\n    tag_499:\n        /* \"#utility.yul\":23595:23668   */\n      tag_500\n        /* \"#utility.yul\":23663:23666   */\n      0x80\n        /* \"#utility.yul\":23652:23661   */\n      dup4\n        /* \"#utility.yul\":23648:23667   */\n      add\n        /* \"#utility.yul\":23639:23645   */\n      dup5\n        /* \"#utility.yul\":23595:23668   */\n      tag_426\n      jump\t// in\n    tag_500:\n        /* \"#utility.yul\":23019:23675   */\n      swap7\n      swap6\n      pop\n      pop\n      pop\n      pop\n      pop\n      pop\n      jump\t// out\n        /* \"#utility.yul\":23762:23931   */\n    tag_325:\n        /* \"#utility.yul\":23846:23857   */\n      0x00\n        /* \"#utility.yul\":23880:23886   */\n      dup3\n        /* \"#utility.yul\":23875:23878   */\n      dup3\n        /* \"#utility.yul\":23868:23887   */\n      mstore\n        /* \"#utility.yul\":23920:23924   */\n      0x20\n        /* \"#utility.yul\":23915:23918   */\n      dup3\n        /* \"#utility.yul\":23911:23925   */\n      add\n        /* \"#utility.yul\":23896:23925   */\n      swap1\n      pop\n        /* \"#utility.yul\":23762:23931   */\n      swap3\n      swap2\n      pop\n      pop\n      jump\t// out\n        /* \"#utility.yul\":23937:24242   */\n    tag_128:\n        /* \"#utility.yul\":23977:23980   */\n      0x00\n        /* \"#utility.yul\":23996:24016   */\n      tag_505\n        /* \"#utility.yul\":24014:24015   */\n      dup3\n        /* \"#utility.yul\":23996:24016   */\n      tag_425\n      jump\t// in\n    tag_505:\n        /* \"#utility.yul\":23991:24016   */\n      swap2\n      pop\n        /* \"#utility.yul\":24030:24050   */\n      tag_506\n        /* \"#utility.yul\":24048:24049   */\n      dup4\n        /* \"#utility.yul\":24030:24050   */\n      tag_425\n      jump\t// in\n    tag_506:\n        /* \"#utility.yul\":24025:24050   */\n      swap3\n      pop\n        /* \"#utility.yul\":24184:24185   */\n      dup3\n        /* \"#utility.yul\":24116:24182   */\n      0xffffffffffffffffffffffffffffffffffffffffffffffffffffffffffffffff\n        /* \"#utility.yul\":24112:24186   */\n      sub\n        /* \"#utility.yul\":24109:24110   */\n      dup3\n        /* \"#utility.yul\":24106:24187   */\n      gt\n        /* \"#utility.yul\":24103:24210   */\n      iszero\n      tag_507\n      jumpi\n        /* \"#utility.yul\":24190:24208   */\n      tag_508\n      tag_509\n      jump\t// in\n    tag_508:\n        /* \"#utility.yul\":24103:24210   */\n    tag_507:\n        /* \"#utility.yul\":24234:24235   */\n      dup3\n        /* \"#utility.yul\":24231:24232   */\n      dup3\n        /* \"#utility.yul\":24227:24236   */\n      add\n        /* \"#utility.yul\":24220:24236   */\n      swap1\n      pop\n        /* \"#utility.yul\":23937:24242   */\n      swap3\n      swap2\n      pop\n      pop\n      jump\t// out\n        /* \"#utility.yul\":24248:24433   */\n    tag_207:\n        /* \"#utility.yul\":24288:24289   */\n      0x00\n        /* \"#utility.yul\":24305:24325   */\n      tag_511\n        /* \"#utility.yul\":24323:24324   */\n      dup3\n        /* \"#utility.yul\":24305:24325   */\n      tag_425\n      jump\t// in\n    tag_511:\n        /* \"#utility.yul\":24300:24325   */\n      swap2\n      pop\n        /* \"#utility.yul\":24339:24359   */\n      tag_512\n        /* \"#utility.yul\":24357:24358   */\n      dup4\n        /* \"#utility.yul\":24339:24359   */\n      tag_425\n      jump\t// in\n    tag_512:\n        /* \"#utility.yul\":24334:24359   */\n      swap3\n      pop\n        /* \"#utility.yul\":24378:24379   */\n      dup3\n        /* \"#utility.yul\":24368:24403   */\n      tag_513\n      jumpi\n        /* \"#utility.yul\":24383:24401   */\n      tag_514\n      tag_515\n      jump\t// in\n    tag_514:\n        /* \"#utility.yul\":24368:24403   */\n    tag_513:\n        /* \"#utility.yul\":24425:24426   */\n      dup3\n        /* \"#utility.yul\":24422:24423   */\n      dup3\n        /* \"#utility.yul\":24418:24427   */\n      div\n        /* \"#utility.yul\":24413:24427   */\n      swap1\n      pop\n        /* \"#utility.yul\":24248:24433   */\n      swap3\n      swap2\n      pop\n      pop\n      jump\t// out\n        /* \"#utility.yul\":24439:24787   */\n    tag_211:\n        /* \"#utility.yul\":24479:24486   */\n      0x00\n        /* \"#utility.yul\":24502:24522   */\n      tag_517\n        /* \"#utility.yul\":24520:24521   */\n      dup3\n        /* \"#utility.yul\":24502:24522   */\n      tag_425\n      jump\t// in\n    tag_517:\n        /* \"#utility.yul\":24497:24522   */\n      swap2\n      pop\n        /* \"#utility.yul\":24536:24556   */\n      tag_518\n        /* \"#utility.yul\":24554:24555   */\n      dup4\n        /* \"#utility.yul\":24536:24556   */\n      tag_425\n      jump\t// in\n    tag_518:\n        /* \"#utility.yul\":24531:24556   */\n      swap3\n      pop\n        /* \"#utility.yul\":24724:24725   */\n      dup2\n        /* \"#utility.yul\":24656:24722   */\n      0xffffffffffffffffffffffffffffffffffffffffffffffffffffffffffffffff\n        /* \"#utility.yul\":24652:24726   */\n      div\n        /* \"#utility.yul\":24649:24650   */\n      dup4\n        /* \"#utility.yul\":24646:24727   */\n      gt\n        /* \"#utility.yul\":24641:24642   */\n      dup3\n        /* \"#utility.yul\":24634:24643   */\n      iszero\n        /* \"#utility.yul\":24627:24644   */\n      iszero\n        /* \"#utility.yul\":24623:24728   */\n      and\n        /* \"#utility.yul\":24620:24751   */\n      iszero\n      tag_519\n      jumpi\n        /* \"#utility.yul\":24731:24749   */\n      tag_520\n      tag_509\n      jump\t// in\n    tag_520:\n        /* \"#utility.yul\":24620:24751   */\n    tag_519:\n        /* \"#utility.yul\":24779:24780   */\n      dup3\n        /* \"#utility.yul\":24776:24777   */\n      dup3\n        /* \"#utility.yul\":24772:24781   */\n      mul\n        /* \"#utility.yul\":24761:24781   */\n      swap1\n      pop\n        /* \"#utility.yul\":24439:24787   */\n      swap3\n      swap2\n      pop\n      pop\n      jump\t// out\n        /* \"#utility.yul\":24793:24984   */\n    tag_205:\n        /* \"#utility.yul\":24833:24837   */\n      0x00\n        /* \"#utility.yul\":24853:24873   */\n      tag_522\n        /* \"#utility.yul\":24871:24872   */\n      dup3\n        /* \"#utility.yul\":24853:24873   */\n      tag_425\n      jump\t// in\n    tag_522:\n        /* \"#utility.yul\":24848:24873   */\n      swap2\n      pop\n        /* \"#utility.yul\":24887:24907   */\n      tag_523\n        /* \"#utility.yul\":24905:24906   */\n      dup4\n        /* \"#utility.yul\":24887:24907   */\n      tag_425\n      jump\t// in\n    tag_523:\n        /* \"#utility.yul\":24882:24907   */\n      swap3\n      pop\n        /* \"#utility.yul\":24926:24927   */\n      dup3\n        /* \"#utility.yul\":24923:24924   */\n      dup3\n        /* \"#utility.yul\":24920:24928   */\n      lt\n        /* \"#utility.yul\":24917:24951   */\n      iszero\n      tag_524\n      jumpi\n        /* \"#utility.yul\":24931:24949   */\n      tag_525\n      tag_509\n      jump\t// in\n    tag_525:\n        /* \"#utility.yul\":24917:24951   */\n    tag_524:\n        /* \"#utility.yul\":24976:24977   */\n      dup3\n        /* \"#utility.yul\":24973:24974   */\n      dup3\n        /* \"#utility.yul\":24969:24978   */\n      sub\n        /* \"#utility.yul\":24961:24978   */\n      swap1\n      pop\n        /* \"#utility.yul\":24793:24984   */\n      swap3\n      swap2\n      pop\n      pop\n      jump\t// out\n        /* \"#utility.yul\":24990:25086   */\n    tag_321:\n        /* \"#utility.yul\":25027:25034   */\n      0x00\n        /* \"#utility.yul\":25056:25080   */\n      tag_527\n        /* \"#utility.yul\":25074:25079   */\n      dup3\n        /* \"#utility.yul\":25056:25080   */\n      tag_528\n      jump\t// in\n    tag_527:\n        /* \"#utility.yul\":25045:25080   */\n      swap1\n      pop\n        /* \"#utility.yul\":24990:25086   */\n      swap2\n      swap1\n      pop\n      jump\t// out\n        /* \"#utility.yul\":25092:25182   */\n    tag_529:\n        /* \"#utility.yul\":25126:25133   */\n      0x00\n        /* \"#utility.yul\":25169:25174   */\n      dup2\n        /* \"#utility.yul\":25162:25175   */\n      iszero\n        /* \"#utility.yul\":25155:25176   */\n      iszero\n        /* \"#utility.yul\":25144:25176   */\n      swap1\n      pop\n        /* \"#utility.yul\":25092:25182   */\n      swap2\n      swap1\n      pop\n      jump\t// out\n        /* \"#utility.yul\":25188:25277   */\n    tag_419:\n        /* \"#utility.yul\":25224:25231   */\n      0x00\n        /* \"#utility.yul\":25264:25270   */\n      0xffff\n        /* \"#utility.yul\":25257:25262   */\n      dup3\n        /* \"#utility.yul\":25253:25271   */\n      and\n        /* \"#utility.yul\":25242:25271   */\n      swap1\n      pop\n        /* \"#utility.yul\":25188:25277   */\n      swap2\n      swap1\n      pop\n      jump\t// out\n        /* \"#utility.yul\":25283:25409   */\n    tag_528:\n        /* \"#utility.yul\":25320:25327   */\n      0x00\n        /* \"#utility.yul\":25360:25402   */\n      0xffffffffffffffffffffffffffffffffffffffff\n        /* \"#utility.yul\":25353:25358   */\n      dup3\n        /* \"#utility.yul\":25349:25403   */\n      and\n        /* \"#utility.yul\":25338:25403   */\n      swap1\n      pop\n        /* \"#utility.yul\":25283:25409   */\n      swap2\n      swap1\n      pop\n      jump\t// out\n        /* \"#utility.yul\":25415:25492   */\n    tag_425:\n        /* \"#utility.yul\":25452:25459   */\n      0x00\n        /* \"#utility.yul\":25481:25486   */\n      dup2\n        /* \"#utility.yul\":25470:25486   */\n      swap1\n      pop\n        /* \"#utility.yul\":25415:25492   */\n      swap2\n      swap1\n      pop\n      jump\t// out\n        /* \"#utility.yul\":25498:25584   */\n    tag_431:\n        /* \"#utility.yul\":25533:25540   */\n      0x00\n        /* \"#utility.yul\":25573:25577   */\n      0xff\n        /* \"#utility.yul\":25566:25571   */\n      dup3\n        /* \"#utility.yul\":25562:25578   */\n      and\n        /* \"#utility.yul\":25551:25578   */\n      swap1\n      pop\n        /* \"#utility.yul\":25498:25584   */\n      swap2\n      swap1\n      pop\n      jump\t// out\n        /* \"#utility.yul\":25590:25770   */\n    tag_509:\n        /* \"#utility.yul\":25638:25715   */\n      0x4e487b7100000000000000000000000000000000000000000000000000000000\n        /* \"#utility.yul\":25635:25636   */\n      0x00\n        /* \"#utility.yul\":25628:25716   */\n      mstore\n        /* \"#utility.yul\":25735:25739   */\n      0x11\n        /* \"#utility.yul\":25732:25733   */\n      0x04\n        /* \"#utility.yul\":25725:25740   */\n      mstore\n        /* \"#utility.yul\":25759:25763   */\n      0x24\n        /* \"#utility.yul\":25756:25757   */\n      0x00\n        /* \"#utility.yul\":25749:25764   */\n      revert\n        /* \"#utility.yul\":25776:25956   */\n    tag_515:\n        /* \"#utility.yul\":25824:25901   */\n      0x4e487b7100000000000000000000000000000000000000000000000000000000\n        /* \"#utility.yul\":25821:25822   */\n      0x00\n        /* \"#utility.yul\":25814:25902   */\n      mstore\n        /* \"#utility.yul\":25921:25925   */\n      0x12\n        /* \"#utility.yul\":25918:25919   */\n      0x04\n        /* \"#utility.yul\":25911:25926   */\n      mstore\n        /* \"#utility.yul\":25945:25949   */\n      0x24\n        /* \"#utility.yul\":25942:25943   */\n      0x00\n        /* \"#utility.yul\":25935:25950   */\n      revert\n        /* \"#utility.yul\":25962:26142   */\n    tag_87:\n        /* \"#utility.yul\":26010:26087   */\n      0x4e487b7100000000000000000000000000000000000000000000000000000000\n        /* \"#utility.yul\":26007:26008   */\n      0x00\n        /* \"#utility.yul\":26000:26088   */\n      mstore\n        /* \"#utility.yul\":26107:26111   */\n      0x21\n        /* \"#utility.yul\":26104:26105   */\n      0x04\n        /* \"#utility.yul\":26097:26112   */\n      mstore\n        /* \"#utility.yul\":26131:26135   */\n      0x24\n        /* \"#utility.yul\":26128:26129   */\n      0x00\n        /* \"#utility.yul\":26121:26136   */\n      revert\n        /* \"#utility.yul\":26271:26388   */\n    tag_286:\n        /* \"#utility.yul\":26380:26381   */\n      0x00\n        /* \"#utility.yul\":26377:26378   */\n      dup1\n        /* \"#utility.yul\":26370:26382   */\n      revert\n        /* \"#utility.yul\":26394:26560   */\n    tag_327:\n        /* \"#utility.yul\":26534:26552   */\n      0x73686f756c642062652066757475726500000000000000000000000000000000\n        /* \"#utility.yul\":26530:26531   */\n      0x00\n        /* \"#utility.yul\":26522:26528   */\n      dup3\n        /* \"#utility.yul\":26518:26532   */\n      add\n        /* \"#utility.yul\":26511:26553   */\n      mstore\n        /* \"#utility.yul\":26394:26560   */\n      pop\n      jump\t// out\n        /* \"#utility.yul\":26566:26726   */\n    tag_332:\n        /* \"#utility.yul\":26706:26718   */\n      0x6e6f2076657374696e6700000000000000000000000000000000000000000000\n        /* \"#utility.yul\":26702:26703   */\n      0x00\n        /* \"#utility.yul\":26694:26700   */\n      dup3\n        /* \"#utility.yul\":26690:26704   */\n      add\n        /* \"#utility.yul\":26683:26719   */\n      mstore\n        /* \"#utility.yul\":26566:26726   */\n      pop\n      jump\t// out\n        /* \"#utility.yul\":26732:26957   */\n    tag_337:\n        /* \"#utility.yul\":26872:26906   */\n      0x4f776e61626c653a206e6577206f776e657220697320746865207a65726f2061\n        /* \"#utility.yul\":26868:26869   */\n      0x00\n        /* \"#utility.yul\":26860:26866   */\n      dup3\n        /* \"#utility.yul\":26856:26870   */\n      add\n        /* \"#utility.yul\":26849:26907   */\n      mstore\n        /* \"#utility.yul\":26941:26949   */\n      0x6464726573730000000000000000000000000000000000000000000000000000\n        /* \"#utility.yul\":26936:26938   */\n      0x20\n        /* \"#utility.yul\":26928:26934   */\n      dup3\n        /* \"#utility.yul\":26924:26939   */\n      add\n        /* \"#utility.yul\":26917:26950   */\n      mstore\n        /* \"#utility.yul\":26732:26957   */\n      pop\n      jump\t// out\n        /* \"#utility.yul\":26963:27123   */\n    tag_342:\n        /* \"#utility.yul\":27103:27115   */\n      0x6e6f2062616c616e636500000000000000000000000000000000000000000000\n        /* \"#utility.yul\":27099:27100   */\n      0x00\n        /* \"#utility.yul\":27091:27097   */\n      dup3\n        /* \"#utility.yul\":27087:27101   */\n      add\n        /* \"#utility.yul\":27080:27116   */\n      mstore\n        /* \"#utility.yul\":26963:27123   */\n      pop\n      jump\t// out\n        /* \"#utility.yul\":27129:27297   */\n    tag_347:\n        /* \"#utility.yul\":27269:27289   */\n      0x6e6f7420656e6f7567682062616c616e63650000000000000000000000000000\n        /* \"#utility.yul\":27265:27266   */\n      0x00\n        /* \"#utility.yul\":27257:27263   */\n      dup3\n        /* \"#utility.yul\":27253:27267   */\n      add\n        /* \"#utility.yul\":27246:27290   */\n      mstore\n        /* \"#utility.yul\":27129:27297   */\n      pop\n      jump\t// out\n        /* \"#utility.yul\":27303:27471   */\n    tag_352:\n        /* \"#utility.yul\":27443:27463   */\n      0x6f76657220746f74616c2062616c616e63650000000000000000000000000000\n        /* \"#utility.yul\":27439:27440   */\n      0x00\n        /* \"#utility.yul\":27431:27437   */\n      dup3\n        /* \"#utility.yul\":27427:27441   */\n      add\n        /* \"#utility.yul\":27420:27464   */\n      mstore\n        /* \"#utility.yul\":27303:27471   */\n      pop\n      jump\t// out\n        /* \"#utility.yul\":27477:27659   */\n    tag_357:\n        /* \"#utility.yul\":27617:27651   */\n      0x4f776e61626c653a2063616c6c6572206973206e6f7420746865206f776e6572\n        /* \"#utility.yul\":27613:27614   */\n      0x00\n        /* \"#utility.yul\":27605:27611   */\n      dup3\n        /* \"#utility.yul\":27601:27615   */\n      add\n        /* \"#utility.yul\":27594:27652   */\n      mstore\n        /* \"#utility.yul\":27477:27659   */\n      pop\n      jump\t// out\n        /* \"#utility.yul\":27665:27830   */\n    tag_362:\n        /* \"#utility.yul\":27805:27822   */\n      0x6e6f742073746172746564207965740000000000000000000000000000000000\n        /* \"#utility.yul\":27801:27802   */\n      0x00\n        /* \"#utility.yul\":27793:27799   */\n      dup3\n        /* \"#utility.yul\":27789:27803   */\n      add\n        /* \"#utility.yul\":27782:27823   */\n      mstore\n        /* \"#utility.yul\":27665:27830   */\n      pop\n      jump\t// out\n        /* \"#utility.yul\":27836:28000   */\n    tag_367:\n        /* \"#utility.yul\":27976:27992   */\n      0x6e6f206473742061646472657373000000000000000000000000000000000000\n        /* \"#utility.yul\":27972:27973   */\n      0x00\n        /* \"#utility.yul\":27964:27970   */\n      dup3\n        /* \"#utility.yul\":27960:27974   */\n      add\n        /* \"#utility.yul\":27953:27993   */\n      mstore\n        /* \"#utility.yul\":27836:28000   */\n      pop\n      jump\t// out\n        /* \"#utility.yul\":28006:28171   */\n    tag_372:\n        /* \"#utility.yul\":28146:28163   */\n      0x6e6f206163636f756e7420696e666f0000000000000000000000000000000000\n        /* \"#utility.yul\":28142:28143   */\n      0x00\n        /* \"#utility.yul\":28134:28140   */\n      dup3\n        /* \"#utility.yul\":28130:28144   */\n      add\n        /* \"#utility.yul\":28123:28164   */\n      mstore\n        /* \"#utility.yul\":28006:28171   */\n      pop\n      jump\t// out\n        /* \"#utility.yul\":28177:28349   */\n    tag_377:\n        /* \"#utility.yul\":28317:28341   */\n      0x616c7265616479207365742073746172742074696d6500000000000000000000\n        /* \"#utility.yul\":28313:28314   */\n      0x00\n        /* \"#utility.yul\":28305:28311   */\n      dup3\n        /* \"#utility.yul\":28301:28315   */\n      add\n        /* \"#utility.yul\":28294:28342   */\n      mstore\n        /* \"#utility.yul\":28177:28349   */\n      pop\n      jump\t// out\n        /* \"#utility.yul\":28355:28523   */\n    tag_382:\n        /* \"#utility.yul\":28495:28515   */\n      0x77726f6e672076657374696e6720747970650000000000000000000000000000\n        /* \"#utility.yul\":28491:28492   */\n      0x00\n        /* \"#utility.yul\":28483:28489   */\n      dup3\n        /* \"#utility.yul\":28479:28493   */\n      add\n        /* \"#utility.yul\":28472:28516   */\n      mstore\n        /* \"#utility.yul\":28355:28523   */\n      pop\n      jump\t// out\n        /* \"#utility.yul\":28529:28691   */\n    tag_387:\n        /* \"#utility.yul\":28669:28683   */\n      0x6e65656420617070726f76650000000000000000000000000000000000000000\n        /* \"#utility.yul\":28665:28666   */\n      0x00\n        /* \"#utility.yul\":28657:28663   */\n      dup3\n        /* \"#utility.yul\":28653:28667   */\n      add\n        /* \"#utility.yul\":28646:28684   */\n      mstore\n        /* \"#utility.yul\":28529:28691   */\n      pop\n      jump\t// out\n        /* \"#utility.yul\":28697:28867   */\n    tag_392:\n        /* \"#utility.yul\":28837:28859   */\n      0x616c726561792061646465642061646472657373000000000000000000000000\n        /* \"#utility.yul\":28833:28834   */\n      0x00\n        /* \"#utility.yul\":28825:28831   */\n      dup3\n        /* \"#utility.yul\":28821:28835   */\n      add\n        /* \"#utility.yul\":28814:28860   */\n      mstore\n        /* \"#utility.yul\":28697:28867   */\n      pop\n      jump\t// out\n        /* \"#utility.yul\":28873:29049   */\n    tag_397:\n        /* \"#utility.yul\":29013:29041   */\n      0x6f766572206163636f756e7420746f74616c2062616c616e6365000000000000\n        /* \"#utility.yul\":29009:29010   */\n      0x00\n        /* \"#utility.yul\":29001:29007   */\n      dup3\n        /* \"#utility.yul\":28997:29011   */\n      add\n        /* \"#utility.yul\":28990:29042   */\n      mstore\n        /* \"#utility.yul\":28873:29049   */\n      pop\n      jump\t// out\n        /* \"#utility.yul\":29055:29177   */\n    tag_267:\n        /* \"#utility.yul\":29128:29152   */\n      tag_557\n        /* \"#utility.yul\":29146:29151   */\n      dup2\n        /* \"#utility.yul\":29128:29152   */\n      tag_321\n      jump\t// in\n    tag_557:\n        /* \"#utility.yul\":29121:29126   */\n      dup2\n        /* \"#utility.yul\":29118:29153   */\n      eq\n        /* \"#utility.yul\":29108:29171   */\n      tag_558\n      jumpi\n        /* \"#utility.yul\":29167:29168   */\n      0x00\n        /* \"#utility.yul\":29164:29165   */\n      dup1\n        /* \"#utility.yul\":29157:29169   */\n      revert\n        /* \"#utility.yul\":29108:29171   */\n    tag_558:\n        /* \"#utility.yul\":29055:29177   */\n      pop\n      jump\t// out\n        /* \"#utility.yul\":29183:29299   */\n    tag_271:\n        /* \"#utility.yul\":29253:29274   */\n      tag_560\n        /* \"#utility.yul\":29268:29273   */\n      dup2\n        /* \"#utility.yul\":29253:29274   */\n      tag_529\n      jump\t// in\n    tag_560:\n        /* \"#utility.yul\":29246:29251   */\n      dup2\n        /* \"#utility.yul\":29243:29275   */\n      eq\n        /* \"#utility.yul\":29233:29293   */\n      tag_561\n      jumpi\n        /* \"#utility.yul\":29289:29290   */\n      0x00\n        /* \"#utility.yul\":29286:29287   */\n      dup1\n        /* \"#utility.yul\":29279:29291   */\n      revert\n        /* \"#utility.yul\":29233:29293   */\n    tag_561:\n        /* \"#utility.yul\":29183:29299   */\n      pop\n      jump\t// out\n        /* \"#utility.yul\":29305:29427   */\n    tag_275:\n        /* \"#utility.yul\":29378:29402   */\n      tag_563\n        /* \"#utility.yul\":29396:29401   */\n      dup2\n        /* \"#utility.yul\":29378:29402   */\n      tag_425\n      jump\t// in\n    tag_563:\n        /* \"#utility.yul\":29371:29376   */\n      dup2\n        /* \"#utility.yul\":29368:29403   */\n      eq\n        /* \"#utility.yul\":29358:29421   */\n      tag_564\n      jumpi\n        /* \"#utility.yul\":29417:29418   */\n      0x00\n        /* \"#utility.yul\":29414:29415   */\n      dup1\n        /* \"#utility.yul\":29407:29419   */\n      revert\n        /* \"#utility.yul\":29358:29421   */\n    tag_564:\n        /* \"#utility.yul\":29305:29427   */\n      pop\n      jump\t// out\n        /* \"#utility.yul\":29433:29551   */\n    tag_282:\n        /* \"#utility.yul\":29504:29526   */\n      tag_566\n        /* \"#utility.yul\":29520:29525   */\n      dup2\n        /* \"#utility.yul\":29504:29526   */\n      tag_431\n      jump\t// in\n    tag_566:\n        /* \"#utility.yul\":29497:29502   */\n      dup2\n        /* \"#utility.yul\":29494:29527   */\n      eq\n        /* \"#utility.yul\":29484:29545   */\n      tag_567\n      jumpi\n        /* \"#utility.yul\":29541:29542   */\n      0x00\n        /* \"#utility.yul\":29538:29539   */\n      dup1\n        /* \"#utility.yul\":29531:29543   */\n      revert\n        /* \"#utility.yul\":29484:29545   */\n    tag_567:\n        /* \"#utility.yul\":29433:29551   */\n      pop\n      jump\t// out\n\n    auxdata: 0xa264697066735822122081dd9c6ac7df9eee0987cbe5e8510fdcb8b01fc3daf246f816a98292d666dcf964736f6c63430008070033\n}\n",
				"bytecode": {
					"linkReferences": {},
					"object": "60806040523480156200001157600080fd5b5062000032620000266200047c60201b60201c565b6200048460201b60201c565b6040518060e0016040528060008152602001600660ff1681526020016a887c1bec4a1528c5000000815260200160008152602001600081526020016101f461ffff16815260200161019061ffff16815250600260008060038111156200009d576200009c62000548565b5b60ff1660ff1681526020019081526020016000206000820151816000015560208201518160010160006101000a81548160ff021916908360ff16021790555060408201518160020155606082015181600301556080820151816004015560a08201518160050160006101000a81548161ffff021916908361ffff16021790555060c08201518160050160026101000a81548161ffff021916908361ffff1602179055509050506040518060e0016040528060008152602001600c60ff1681526020016a422ca8b0a00a425000000081526020016000815260200160008152602001600061ffff16815260200161011861ffff168152506002600060016003811115620001ae57620001ad62000548565b5b60ff1660ff1681526020019081526020016000206000820151816000015560208201518160010160006101000a81548160ff021916908360ff16021790555060408201518160020155606082015181600301556080820151816004015560a08201518160050160006101000a81548161ffff021916908361ffff16021790555060c08201518160050160026101000a81548161ffff021916908361ffff1602179055509050506040518060e0016040528060008152602001600060ff1681526020016a2d7eb3f96e070d97000000815260200160008152602001600081526020016103e861ffff1681526020016103e861ffff168152506002600060026003811115620002c057620002bf62000548565b5b60ff1660ff1681526020019081526020016000206000820151816000015560208201518160010160006101000a81548160ff021916908360ff16021790555060408201518160020155606082015181600301556080820151816004015560a08201518160050160006101000a81548161ffff021916908361ffff16021790555060c08201518160050160026101000a81548161ffff021916908361ffff1602179055509050506040518060e0016040528060008152602001600160ff1681526020016aefe1e38044253062000000815260200160008152602001600081526020016103e861ffff168152602001606461ffff1681525060026000600380811115620003d057620003cf62000548565b5b60ff1660ff1681526020019081526020016000206000820151816000015560208201518160010160006101000a81548160ff021916908360ff16021790555060408201518160020155606082015181600301556080820151816004015560a08201518160050160006101000a81548161ffff021916908361ffff16021790555060c08201518160050160026101000a81548161ffff021916908361ffff16021790555090505062000577565b600033905090565b60008060009054906101000a900473ffffffffffffffffffffffffffffffffffffffff169050816000806101000a81548173ffffffffffffffffffffffffffffffffffffffff021916908373ffffffffffffffffffffffffffffffffffffffff1602179055508173ffffffffffffffffffffffffffffffffffffffff168173ffffffffffffffffffffffffffffffffffffffff167f8be0079c531659141344cd1fd0a4f28419497f9722a3daafe3b4186f6b6457e060405160405180910390a35050565b7f4e487b7100000000000000000000000000000000000000000000000000000000600052602160045260246000fd5b61283080620005876000396000f3fe608060405234801561001057600080fd5b50600436106100ea5760003560e01c80636f5220951161008c578063938e3af311610066578063938e3af31461024d578063e4c255d514610283578063ef409991146102a1578063f2fde38b146102bd576100ea565b80636f522095146101f1578063715018a6146102255780638da5cb5b1461022f576100ea565b806343a1696c116100c857806343a1696c1461017f57806344957cf31461019b5780634e71d92d146101b75780636a2226ec146101c1576100ea565b806306def802146100ef57806308c0fc891461011f57806335cb5a331461014f575b600080fd5b61010960048036038101906101049190611a0e565b6102d9565b6040516101169190612219565b60405180910390f35b61013960048036038101906101349190611a95565b61044b565b60405161014691906121fe565b60405180910390f35b61016960048036038101906101649190611a0e565b610583565b60405161017691906121e3565b60405180910390f35b61019960048036038101906101949190611ac2565b610621565b005b6101b560048036038101906101b09190611b02565b61075d565b005b6101bf610dbe565b005b6101db60048036038101906101d69190611b55565b611277565b6040516101e89190612219565b60405180910390f35b61020b60048036038101906102069190611a0e565b611576565b60405161021c9594939291906122a3565b60405180910390f35b61022d6115b9565b005b6102376115cd565b6040516102449190611f28565b60405180910390f35b61026760048036038101906102629190611a95565b6115f6565b60405161027a9796959493929190612234565b60405180910390f35b61028b611661565b6040516102989190611f28565b60405180910390f35b6102bb60048036038101906102b69190611a0e565b611687565b005b6102d760048036038101906102d29190611a0e565b61175d565b005b600080600360008473ffffffffffffffffffffffffffffffffffffffff1673ffffffffffffffffffffffffffffffffffffffff168152602001908152602001600020600301541161035f576040517f08c379a000000000000000000000000000000000000000000000000000000000815260040161035690612123565b60405180910390fd5b6000610440600360008573ffffffffffffffffffffffffffffffffffffffff1673ffffffffffffffffffffffffffffffffffffffff16815260200190815260200160002060000160009054906101000a900460ff16600360008673ffffffffffffffffffffffffffffffffffffffff1673ffffffffffffffffffffffffffffffffffffffff16815260200190815260200160002060010154600360008773ffffffffffffffffffffffffffffffffffffffff1673ffffffffffffffffffffffffffffffffffffffff1681526020019081526020016000206002015442611277565b905080915050919050565b61045361192b565b60006003811115610467576104666124dd565b5b60ff168260ff1610158015610494575060038081111561048a576104896124dd565b5b60ff168260ff1611155b6104d3576040517f08c379a00000000000000000000000000000000000000000000000000000000081526004016104ca90612163565b60405180910390fd5b600260008360ff1660ff1681526020019081526020016000206040518060e0016040529081600082015481526020016001820160009054906101000a900460ff1660ff1660ff1681526020016002820154815260200160038201548152602001600482015481526020016005820160009054906101000a900461ffff1661ffff1661ffff1681526020016005820160029054906101000a900461ffff1661ffff1661ffff16815250509050919050565b61058b611973565b600360008373ffffffffffffffffffffffffffffffffffffffff1673ffffffffffffffffffffffffffffffffffffffff1681526020019081526020016000206040518060a00160405290816000820160009054906101000a900460ff1660ff1660ff1681526020016001820154815260200160028201548152602001600382015481526020016004820154815250509050919050565b6106296117e1565b6000600381111561063d5761063c6124dd565b5b60ff168260ff161015801561066a57506003808111156106605761065f6124dd565b5b60ff168260ff1611155b6106a9576040517f08c379a00000000000000000000000000000000000000000000000000000000081526004016106a090612163565b60405180910390fd5b4281116106eb576040517f08c379a00000000000000000000000000000000000000000000000000000000081526004016106e290612003565b60405180910390fd5b6000600260008460ff1660ff1681526020019081526020016000209050600081600001541461074f576040517f08c379a000000000000000000000000000000000000000000000000000000000815260040161074690612143565b60405180910390fd5b818160000181905550505050565b6107656117e1565b600073ffffffffffffffffffffffffffffffffffffffff16600160009054906101000a900473ffffffffffffffffffffffffffffffffffffffff1673ffffffffffffffffffffffffffffffffffffffff1614156107f7576040517f08c379a00000000000000000000000000000000000000000000000000000000081526004016107ee90612103565b60405180910390fd5b6000600381111561080b5761080a6124dd565b5b60ff168360ff1610158015610838575060038081111561082e5761082d6124dd565b5b60ff168360ff1611155b610877576040517f08c379a000000000000000000000000000000000000000000000000000000000815260040161086e90612163565b60405180910390fd5b6000600260008560ff1660ff16815260200190815260200160002090508281600301546108a49190612307565b816002015410156108ea576040517f08c379a00000000000000000000000000000000000000000000000000000000081526004016108e1906120a3565b60405180910390fd5b6000600160009054906101000a900473ffffffffffffffffffffffffffffffffffffffff1673ffffffffffffffffffffffffffffffffffffffff166370a08231336040518263ffffffff1660e01b81526004016109479190611f28565b60206040518083038186803b15801561095f57600080fd5b505afa158015610973573d6000803e3d6000fd5b505050506040513d601f19601f820116820180604052508101906109979190611a68565b90506000600160009054906101000a900473ffffffffffffffffffffffffffffffffffffffff1673ffffffffffffffffffffffffffffffffffffffff1663dd62ed3e33306040518363ffffffff1660e01b81526004016109f8929190611f43565b60206040518083038186803b158015610a1057600080fd5b505afa158015610a24573d6000803e3d6000fd5b505050506040513d601f19601f82011682018060405250810190610a489190611a68565b905084811015610a8d576040517f08c379a0000000000000000000000000000000000000000000000000000000008152600401610a8490612183565b60405180910390fd5b84821015610ad0576040517f08c379a0000000000000000000000000000000000000000000000000000000008152600401610ac790612083565b60405180910390fd5b6000600360008673ffffffffffffffffffffffffffffffffffffffff1673ffffffffffffffffffffffffffffffffffffffff1681526020019081526020016000206003015414610b55576040517f08c379a0000000000000000000000000000000000000000000000000000000008152600401610b4c906121a3565b60405180910390fd5b6040518060a001604052808760ff168152602001868152602001600081526020014281526020016000815250600360008673ffffffffffffffffffffffffffffffffffffffff1673ffffffffffffffffffffffffffffffffffffffff16815260200190815260200160002060008201518160000160006101000a81548160ff021916908360ff16021790555060208201518160010155604082015181600201556060820151816003015560808201518160040155905050600160009054906101000a900473ffffffffffffffffffffffffffffffffffffffff1673ffffffffffffffffffffffffffffffffffffffff166323b872dd3330886040518463ffffffff1660e01b8152600401610c6b93929190611f6c565b602060405180830381600087803b158015610c8557600080fd5b505af1158015610c99573d6000803e3d6000fd5b505050506040513d601f19601f82011682018060405250810190610cbd9190611a3b565b5084836003016000828254610cd29190612307565b9250508190555085600360008673ffffffffffffffffffffffffffffffffffffffff1673ffffffffffffffffffffffffffffffffffffffff16815260200190815260200160002060000160006101000a81548160ff021916908360ff16021790555084600360008673ffffffffffffffffffffffffffffffffffffffff1673ffffffffffffffffffffffffffffffffffffffff168152602001908152602001600020600101819055507f6321abc6e6451958312c6074eb5126d3065af5754dbde8e64e7ab1fd0555f8e6848787604051610dae93929190611fcc565b60405180910390a1505050505050565b6000600360003373ffffffffffffffffffffffffffffffffffffffff1673ffffffffffffffffffffffffffffffffffffffff1681526020019081526020016000206003015411610e43576040517f08c379a0000000000000000000000000000000000000000000000000000000008152600401610e3a90612023565b60405180910390fd5b600060026000600360003373ffffffffffffffffffffffffffffffffffffffff1673ffffffffffffffffffffffffffffffffffffffff16815260200190815260200160002060000160009054906101000a900460ff1660ff1660ff168152602001908152602001600020905060008160000154118015610ec7575042816000015411155b610f06576040517f08c379a0000000000000000000000000000000000000000000000000000000008152600401610efd906120e3565b60405180910390fd5b6000610f11336102d9565b905060008111610f56576040517f08c379a0000000000000000000000000000000000000000000000000000000008152600401610f4d90612063565b60405180910390fd5b8160020154818360040154610f6b9190612307565b1115610fac576040517f08c379a0000000000000000000000000000000000000000000000000000000008152600401610fa3906120a3565b60405180910390fd5b600360003373ffffffffffffffffffffffffffffffffffffffff1673ffffffffffffffffffffffffffffffffffffffff1681526020019081526020016000206001015481600360003373ffffffffffffffffffffffffffffffffffffffff1673ffffffffffffffffffffffffffffffffffffffff1681526020019081526020016000206002015461103d9190612307565b111561107e576040517f08c379a0000000000000000000000000000000000000000000000000000000008152600401611075906121c3565b60405180910390fd5b808260040160008282546110929190612307565b9250508190555080600360003373ffffffffffffffffffffffffffffffffffffffff1673ffffffffffffffffffffffffffffffffffffffff16815260200190815260200160002060020160008282546110eb9190612307565b9250508190555042600360003373ffffffffffffffffffffffffffffffffffffffff1673ffffffffffffffffffffffffffffffffffffffff16815260200190815260200160002060040181905550600160009054906101000a900473ffffffffffffffffffffffffffffffffffffffff1673ffffffffffffffffffffffffffffffffffffffff1663a9059cbb33836040518363ffffffff1660e01b8152600401611196929190611fa3565b602060405180830381600087803b1580156111b057600080fd5b505af11580156111c4573d6000803e3d6000fd5b505050506040513d601f19601f820116820180604052508101906111e89190611a3b565b507f1750bdf23084d7500224d30291adfe9dbfff501588448b624dddf18ea32320fa33600360003373ffffffffffffffffffffffffffffffffffffffff1673ffffffffffffffffffffffffffffffffffffffff16815260200190815260200160002060000160009054906101000a900460ff168360405161126b93929190611fcc565b60405180910390a15050565b600080600381111561128c5761128b6124dd565b5b60ff168560ff16101580156112b957506003808111156112af576112ae6124dd565b5b60ff168560ff1611155b6112f8576040517f08c379a00000000000000000000000000000000000000000000000000000000081526004016112ef90612163565b60405180910390fd5b6000600260008760ff1660ff1681526020019081526020016000206040518060e0016040529081600082015481526020016001820160009054906101000a900460ff1660ff1660ff1681526020016002820154815260200160038201548152602001600482015481526020016005820160009054906101000a900461ffff1661ffff1661ffff1681526020016005820160029054906101000a900461ffff1661ffff1661ffff168152505090506000816000015114806113bb5750806000015183105b156113ca57600091505061156e565b6000600260038111156113e0576113df6124dd565b5b60ff168760ff16141561145a5760006001629e340084600001518761140591906123e8565b61140f919061235d565b6114199190612307565b9050808360c0015161ffff1661271089611433919061235d565b61143d919061238e565b611447919061238e565b826114529190612307565b915050611520565b8160a0015161ffff1661271087611471919061235d565b61147b919061238e565b816114869190612307565b9050600062278d00836020015160ff166114a0919061238e565b83600001516114af9190612307565b90508085111561151e576000600162278d0083886114cd91906123e8565b6114d7919061235d565b6114e19190612307565b9050808460c0015161ffff166127108a6114fb919061235d565b611505919061238e565b61150f919061238e565b8361151a9190612307565b9250505b505b8085106115325760009250505061156e565b848161153e91906123e8565b905085858261154d9190612307565b111561156857848661155f91906123e8565b9250505061156e565b80925050505b949350505050565b60036020528060005260406000206000915090508060000160009054906101000a900460ff16908060010154908060020154908060030154908060040154905085565b6115c16117e1565b6115cb600061185f565b565b60008060009054906101000a900473ffffffffffffffffffffffffffffffffffffffff16905090565b60026020528060005260406000206000915090508060000154908060010160009054906101000a900460ff16908060020154908060030154908060040154908060050160009054906101000a900461ffff16908060050160029054906101000a900461ffff16905087565b600160009054906101000a900473ffffffffffffffffffffffffffffffffffffffff1681565b61168f6117e1565b8073ffffffffffffffffffffffffffffffffffffffff166370a08231826040518263ffffffff1660e01b81526004016116c89190611f28565b60206040518083038186803b1580156116e057600080fd5b505afa1580156116f4573d6000803e3d6000fd5b505050506040513d601f19601f820116820180604052508101906117189190611a68565b5080600160006101000a81548173ffffffffffffffffffffffffffffffffffffffff021916908373ffffffffffffffffffffffffffffffffffffffff16021790555050565b6117656117e1565b600073ffffffffffffffffffffffffffffffffffffffff168173ffffffffffffffffffffffffffffffffffffffff1614156117d5576040517f08c379a00000000000000000000000000000000000000000000000000000000081526004016117cc90612043565b60405180910390fd5b6117de8161185f565b50565b6117e9611923565b73ffffffffffffffffffffffffffffffffffffffff166118076115cd565b73ffffffffffffffffffffffffffffffffffffffff161461185d576040517f08c379a0000000000000000000000000000000000000000000000000000000008152600401611854906120c3565b60405180910390fd5b565b60008060009054906101000a900473ffffffffffffffffffffffffffffffffffffffff169050816000806101000a81548173ffffffffffffffffffffffffffffffffffffffff021916908373ffffffffffffffffffffffffffffffffffffffff1602179055508173ffffffffffffffffffffffffffffffffffffffff168173ffffffffffffffffffffffffffffffffffffffff167f8be0079c531659141344cd1fd0a4f28419497f9722a3daafe3b4186f6b6457e060405160405180910390a35050565b600033905090565b6040518060e0016040528060008152602001600060ff168152602001600081526020016000815260200160008152602001600061ffff168152602001600061ffff1681525090565b6040518060a00160405280600060ff168152602001600081526020016000815260200160008152602001600081525090565b6000813590506119b48161279e565b92915050565b6000815190506119c9816127b5565b92915050565b6000813590506119de816127cc565b92915050565b6000815190506119f3816127cc565b92915050565b600081359050611a08816127e3565b92915050565b600060208284031215611a2457611a2361250c565b5b6000611a32848285016119a5565b91505092915050565b600060208284031215611a5157611a5061250c565b5b6000611a5f848285016119ba565b91505092915050565b600060208284031215611a7e57611a7d61250c565b5b6000611a8c848285016119e4565b91505092915050565b600060208284031215611aab57611aaa61250c565b5b6000611ab9848285016119f9565b91505092915050565b60008060408385031215611ad957611ad861250c565b5b6000611ae7858286016119f9565b9250506020611af8858286016119cf565b9150509250929050565b600080600060608486031215611b1b57611b1a61250c565b5b6000611b29868287016119f9565b9350506020611b3a868287016119cf565b9250506040611b4b868287016119a5565b9150509250925092565b60008060008060808587031215611b6f57611b6e61250c565b5b6000611b7d878288016119f9565b9450506020611b8e878288016119cf565b9350506040611b9f878288016119cf565b9250506060611bb0878288016119cf565b91505092959194509250565b611bc58161241c565b82525050565b6000611bd86010836122f6565b9150611be382612511565b602082019050919050565b6000611bfb600a836122f6565b9150611c068261253a565b602082019050919050565b6000611c1e6026836122f6565b9150611c2982612563565b604082019050919050565b6000611c41600a836122f6565b9150611c4c826125b2565b602082019050919050565b6000611c646012836122f6565b9150611c6f826125db565b602082019050919050565b6000611c876012836122f6565b9150611c9282612604565b602082019050919050565b6000611caa6020836122f6565b9150611cb58261262d565b602082019050919050565b6000611ccd600f836122f6565b9150611cd882612656565b602082019050919050565b6000611cf0600e836122f6565b9150611cfb8261267f565b602082019050919050565b6000611d13600f836122f6565b9150611d1e826126a8565b602082019050919050565b6000611d366016836122f6565b9150611d41826126d1565b602082019050919050565b6000611d596012836122f6565b9150611d64826126fa565b602082019050919050565b6000611d7c600c836122f6565b9150611d8782612723565b602082019050919050565b6000611d9f6014836122f6565b9150611daa8261274c565b602082019050919050565b6000611dc2601a836122f6565b9150611dcd82612775565b602082019050919050565b60a082016000820151611dee6000850182611f0a565b506020820151611e016020850182611eec565b506040820151611e146040850182611eec565b506060820151611e276060850182611eec565b506080820151611e3a6080850182611eec565b50505050565b60e082016000820151611e566000850182611eec565b506020820151611e696020850182611f0a565b506040820151611e7c6040850182611eec565b506060820151611e8f6060850182611eec565b506080820151611ea26080850182611eec565b5060a0820151611eb560a0850182611ece565b5060c0820151611ec860c0850182611ece565b50505050565b611ed78161243a565b82525050565b611ee68161243a565b82525050565b611ef581612468565b82525050565b611f0481612468565b82525050565b611f1381612472565b82525050565b611f2281612472565b82525050565b6000602082019050611f3d6000830184611bbc565b92915050565b6000604082019050611f586000830185611bbc565b611f656020830184611bbc565b9392505050565b6000606082019050611f816000830186611bbc565b611f8e6020830185611bbc565b611f9b6040830184611efb565b949350505050565b6000604082019050611fb86000830185611bbc565b611fc56020830184611efb565b9392505050565b6000606082019050611fe16000830186611bbc565b611fee6020830185611f19565b611ffb6040830184611efb565b949350505050565b6000602082019050818103600083015261201c81611bcb565b9050919050565b6000602082019050818103600083015261203c81611bee565b9050919050565b6000602082019050818103600083015261205c81611c11565b9050919050565b6000602082019050818103600083015261207c81611c34565b9050919050565b6000602082019050818103600083015261209c81611c57565b9050919050565b600060208201905081810360008301526120bc81611c7a565b9050919050565b600060208201905081810360008301526120dc81611c9d565b9050919050565b600060208201905081810360008301526120fc81611cc0565b9050919050565b6000602082019050818103600083015261211c81611ce3565b9050919050565b6000602082019050818103600083015261213c81611d06565b9050919050565b6000602082019050818103600083015261215c81611d29565b9050919050565b6000602082019050818103600083015261217c81611d4c565b9050919050565b6000602082019050818103600083015261219c81611d6f565b9050919050565b600060208201905081810360008301526121bc81611d92565b9050919050565b600060208201905081810360008301526121dc81611db5565b9050919050565b600060a0820190506121f86000830184611dd8565b92915050565b600060e0820190506122136000830184611e40565b92915050565b600060208201905061222e6000830184611efb565b92915050565b600060e082019050612249600083018a611efb565b6122566020830189611f19565b6122636040830188611efb565b6122706060830187611efb565b61227d6080830186611efb565b61228a60a0830185611edd565b61229760c0830184611edd565b98975050505050505050565b600060a0820190506122b86000830188611f19565b6122c56020830187611efb565b6122d26040830186611efb565b6122df6060830185611efb565b6122ec6080830184611efb565b9695505050505050565b600082825260208201905092915050565b600061231282612468565b915061231d83612468565b9250827fffffffffffffffffffffffffffffffffffffffffffffffffffffffffffffffff038211156123525761235161247f565b5b828201905092915050565b600061236882612468565b915061237383612468565b925082612383576123826124ae565b5b828204905092915050565b600061239982612468565b91506123a483612468565b9250817fffffffffffffffffffffffffffffffffffffffffffffffffffffffffffffffff04831182151516156123dd576123dc61247f565b5b828202905092915050565b60006123f382612468565b91506123fe83612468565b9250828210156124115761241061247f565b5b828203905092915050565b600061242782612448565b9050919050565b60008115159050919050565b600061ffff82169050919050565b600073ffffffffffffffffffffffffffffffffffffffff82169050919050565b6000819050919050565b600060ff82169050919050565b7f4e487b7100000000000000000000000000000000000000000000000000000000600052601160045260246000fd5b7f4e487b7100000000000000000000000000000000000000000000000000000000600052601260045260246000fd5b7f4e487b7100000000000000000000000000000000000000000000000000000000600052602160045260246000fd5b600080fd5b7f73686f756c642062652066757475726500000000000000000000000000000000600082015250565b7f6e6f2076657374696e6700000000000000000000000000000000000000000000600082015250565b7f4f776e61626c653a206e6577206f776e657220697320746865207a65726f206160008201527f6464726573730000000000000000000000000000000000000000000000000000602082015250565b7f6e6f2062616c616e636500000000000000000000000000000000000000000000600082015250565b7f6e6f7420656e6f7567682062616c616e63650000000000000000000000000000600082015250565b7f6f76657220746f74616c2062616c616e63650000000000000000000000000000600082015250565b7f4f776e61626c653a2063616c6c6572206973206e6f7420746865206f776e6572600082015250565b7f6e6f742073746172746564207965740000000000000000000000000000000000600082015250565b7f6e6f206473742061646472657373000000000000000000000000000000000000600082015250565b7f6e6f206163636f756e7420696e666f0000000000000000000000000000000000600082015250565b7f616c7265616479207365742073746172742074696d6500000000000000000000600082015250565b7f77726f6e672076657374696e6720747970650000000000000000000000000000600082015250565b7f6e65656420617070726f76650000000000000000000000000000000000000000600082015250565b7f616c726561792061646465642061646472657373000000000000000000000000600082015250565b7f6f766572206163636f756e7420746f74616c2062616c616e6365000000000000600082015250565b6127a78161241c565b81146127b257600080fd5b50565b6127be8161242e565b81146127c957600080fd5b50565b6127d581612468565b81146127e057600080fd5b50565b6127ec81612472565b81146127f757600080fd5b5056fea264697066735822122081dd9c6ac7df9eee0987cbe5e8510fdcb8b01fc3daf246f816a98292d666dcf964736f6c63430008070033",
					"opcodes": "PUSH1 0x80 PUSH1 0x40 MSTORE CALLVALUE DUP1 ISZERO PUSH3 0x11 JUMPI PUSH1 0x0 DUP1 REVERT JUMPDEST POP PUSH3 0x32 PUSH3 0x26 PUSH3 0x47C PUSH1 0x20 SHL PUSH1 0x20 SHR JUMP JUMPDEST PUSH3 0x484 PUSH1 0x20 SHL PUSH1 0x20 SHR JUMP JUMPDEST PUSH1 0x40 MLOAD DUP1 PUSH1 0xE0 ADD PUSH1 0x40 MSTORE DUP1 PUSH1 0x0 DUP2 MSTORE PUSH1 0x20 ADD PUSH1 0x6 PUSH1 0xFF AND DUP2 MSTORE PUSH1 0x20 ADD PUSH11 0x887C1BEC4A1528C5000000 DUP2 MSTORE PUSH1 0x20 ADD PUSH1 0x0 DUP2 MSTORE PUSH1 0x20 ADD PUSH1 0x0 DUP2 MSTORE PUSH1 0x20 ADD PUSH2 0x1F4 PUSH2 0xFFFF AND DUP2 MSTORE PUSH1 0x20 ADD PUSH2 0x190 PUSH2 0xFFFF AND DUP2 MSTORE POP PUSH1 0x2 PUSH1 0x0 DUP1 PUSH1 0x3 DUP2 GT ISZERO PUSH3 0x9D JUMPI PUSH3 0x9C PUSH3 0x548 JUMP JUMPDEST JUMPDEST PUSH1 0xFF AND PUSH1 0xFF AND DUP2 MSTORE PUSH1 0x20 ADD SWAP1 DUP2 MSTORE PUSH1 0x20 ADD PUSH1 0x0 KECCAK256 PUSH1 0x0 DUP3 ADD MLOAD DUP2 PUSH1 0x0 ADD SSTORE PUSH1 0x20 DUP3 ADD MLOAD DUP2 PUSH1 0x1 ADD PUSH1 0x0 PUSH2 0x100 EXP DUP2 SLOAD DUP2 PUSH1 0xFF MUL NOT AND SWAP1 DUP4 PUSH1 0xFF AND MUL OR SWAP1 SSTORE POP PUSH1 0x40 DUP3 ADD MLOAD DUP2 PUSH1 0x2 ADD SSTORE PUSH1 0x60 DUP3 ADD MLOAD DUP2 PUSH1 0x3 ADD SSTORE PUSH1 0x80 DUP3 ADD MLOAD DUP2 PUSH1 0x4 ADD SSTORE PUSH1 0xA0 DUP3 ADD MLOAD DUP2 PUSH1 0x5 ADD PUSH1 0x0 PUSH2 0x100 EXP DUP2 SLOAD DUP2 PUSH2 0xFFFF MUL NOT AND SWAP1 DUP4 PUSH2 0xFFFF AND MUL OR SWAP1 SSTORE POP PUSH1 0xC0 DUP3 ADD MLOAD DUP2 PUSH1 0x5 ADD PUSH1 0x2 PUSH2 0x100 EXP DUP2 SLOAD DUP2 PUSH2 0xFFFF MUL NOT AND SWAP1 DUP4 PUSH2 0xFFFF AND MUL OR SWAP1 SSTORE POP SWAP1 POP POP PUSH1 0x40 MLOAD DUP1 PUSH1 0xE0 ADD PUSH1 0x40 MSTORE DUP1 PUSH1 0x0 DUP2 MSTORE PUSH1 0x20 ADD PUSH1 0xC PUSH1 0xFF AND DUP2 MSTORE PUSH1 0x20 ADD PUSH11 0x422CA8B0A00A4250000000 DUP2 MSTORE PUSH1 0x20 ADD PUSH1 0x0 DUP2 MSTORE PUSH1 0x20 ADD PUSH1 0x0 DUP2 MSTORE PUSH1 0x20 ADD PUSH1 0x0 PUSH2 0xFFFF AND DUP2 MSTORE PUSH1 0x20 ADD PUSH2 0x118 PUSH2 0xFFFF AND DUP2 MSTORE POP PUSH1 0x2 PUSH1 0x0 PUSH1 0x1 PUSH1 0x3 DUP2 GT ISZERO PUSH3 0x1AE JUMPI PUSH3 0x1AD PUSH3 0x548 JUMP JUMPDEST JUMPDEST PUSH1 0xFF AND PUSH1 0xFF AND DUP2 MSTORE PUSH1 0x20 ADD SWAP1 DUP2 MSTORE PUSH1 0x20 ADD PUSH1 0x0 KECCAK256 PUSH1 0x0 DUP3 ADD MLOAD DUP2 PUSH1 0x0 ADD SSTORE PUSH1 0x20 DUP3 ADD MLOAD DUP2 PUSH1 0x1 ADD PUSH1 0x0 PUSH2 0x100 EXP DUP2 SLOAD DUP2 PUSH1 0xFF MUL NOT AND SWAP1 DUP4 PUSH1 0xFF AND MUL OR SWAP1 SSTORE POP PUSH1 0x40 DUP3 ADD MLOAD DUP2 PUSH1 0x2 ADD SSTORE PUSH1 0x60 DUP3 ADD MLOAD DUP2 PUSH1 0x3 ADD SSTORE PUSH1 0x80 DUP3 ADD MLOAD DUP2 PUSH1 0x4 ADD SSTORE PUSH1 0xA0 DUP3 ADD MLOAD DUP2 PUSH1 0x5 ADD PUSH1 0x0 PUSH2 0x100 EXP DUP2 SLOAD DUP2 PUSH2 0xFFFF MUL NOT AND SWAP1 DUP4 PUSH2 0xFFFF AND MUL OR SWAP1 SSTORE POP PUSH1 0xC0 DUP3 ADD MLOAD DUP2 PUSH1 0x5 ADD PUSH1 0x2 PUSH2 0x100 EXP DUP2 SLOAD DUP2 PUSH2 0xFFFF MUL NOT AND SWAP1 DUP4 PUSH2 0xFFFF AND MUL OR SWAP1 SSTORE POP SWAP1 POP POP PUSH1 0x40 MLOAD DUP1 PUSH1 0xE0 ADD PUSH1 0x40 MSTORE DUP1 PUSH1 0x0 DUP2 MSTORE PUSH1 0x20 ADD PUSH1 0x0 PUSH1 0xFF AND DUP2 MSTORE PUSH1 0x20 ADD PUSH11 0x2D7EB3F96E070D97000000 DUP2 MSTORE PUSH1 0x20 ADD PUSH1 0x0 DUP2 MSTORE PUSH1 0x20 ADD PUSH1 0x0 DUP2 MSTORE PUSH1 0x20 ADD PUSH2 0x3E8 PUSH2 0xFFFF AND DUP2 MSTORE PUSH1 0x20 ADD PUSH2 0x3E8 PUSH2 0xFFFF AND DUP2 MSTORE POP PUSH1 0x2 PUSH1 0x0 PUSH1 0x2 PUSH1 0x3 DUP2 GT ISZERO PUSH3 0x2C0 JUMPI PUSH3 0x2BF PUSH3 0x548 JUMP JUMPDEST JUMPDEST PUSH1 0xFF AND PUSH1 0xFF AND DUP2 MSTORE PUSH1 0x20 ADD SWAP1 DUP2 MSTORE PUSH1 0x20 ADD PUSH1 0x0 KECCAK256 PUSH1 0x0 DUP3 ADD MLOAD DUP2 PUSH1 0x0 ADD SSTORE PUSH1 0x20 DUP3 ADD MLOAD DUP2 PUSH1 0x1 ADD PUSH1 0x0 PUSH2 0x100 EXP DUP2 SLOAD DUP2 PUSH1 0xFF MUL NOT AND SWAP1 DUP4 PUSH1 0xFF AND MUL OR SWAP1 SSTORE POP PUSH1 0x40 DUP3 ADD MLOAD DUP2 PUSH1 0x2 ADD SSTORE PUSH1 0x60 DUP3 ADD MLOAD DUP2 PUSH1 0x3 ADD SSTORE PUSH1 0x80 DUP3 ADD MLOAD DUP2 PUSH1 0x4 ADD SSTORE PUSH1 0xA0 DUP3 ADD MLOAD DUP2 PUSH1 0x5 ADD PUSH1 0x0 PUSH2 0x100 EXP DUP2 SLOAD DUP2 PUSH2 0xFFFF MUL NOT AND SWAP1 DUP4 PUSH2 0xFFFF AND MUL OR SWAP1 SSTORE POP PUSH1 0xC0 DUP3 ADD MLOAD DUP2 PUSH1 0x5 ADD PUSH1 0x2 PUSH2 0x100 EXP DUP2 SLOAD DUP2 PUSH2 0xFFFF MUL NOT AND SWAP1 DUP4 PUSH2 0xFFFF AND MUL OR SWAP1 SSTORE POP SWAP1 POP POP PUSH1 0x40 MLOAD DUP1 PUSH1 0xE0 ADD PUSH1 0x40 MSTORE DUP1 PUSH1 0x0 DUP2 MSTORE PUSH1 0x20 ADD PUSH1 0x1 PUSH1 0xFF AND DUP2 MSTORE PUSH1 0x20 ADD PUSH11 0xEFE1E38044253062000000 DUP2 MSTORE PUSH1 0x20 ADD PUSH1 0x0 DUP2 MSTORE PUSH1 0x20 ADD PUSH1 0x0 DUP2 MSTORE PUSH1 0x20 ADD PUSH2 0x3E8 PUSH2 0xFFFF AND DUP2 MSTORE PUSH1 0x20 ADD PUSH1 0x64 PUSH2 0xFFFF AND DUP2 MSTORE POP PUSH1 0x2 PUSH1 0x0 PUSH1 0x3 DUP1 DUP2 GT ISZERO PUSH3 0x3D0 JUMPI PUSH3 0x3CF PUSH3 0x548 JUMP JUMPDEST JUMPDEST PUSH1 0xFF AND PUSH1 0xFF AND DUP2 MSTORE PUSH1 0x20 ADD SWAP1 DUP2 MSTORE PUSH1 0x20 ADD PUSH1 0x0 KECCAK256 PUSH1 0x0 DUP3 ADD MLOAD DUP2 PUSH1 0x0 ADD SSTORE PUSH1 0x20 DUP3 ADD MLOAD DUP2 PUSH1 0x1 ADD PUSH1 0x0 PUSH2 0x100 EXP DUP2 SLOAD DUP2 PUSH1 0xFF MUL NOT AND SWAP1 DUP4 PUSH1 0xFF AND MUL OR SWAP1 SSTORE POP PUSH1 0x40 DUP3 ADD MLOAD DUP2 PUSH1 0x2 ADD SSTORE PUSH1 0x60 DUP3 ADD MLOAD DUP2 PUSH1 0x3 ADD SSTORE PUSH1 0x80 DUP3 ADD MLOAD DUP2 PUSH1 0x4 ADD SSTORE PUSH1 0xA0 DUP3 ADD MLOAD DUP2 PUSH1 0x5 ADD PUSH1 0x0 PUSH2 0x100 EXP DUP2 SLOAD DUP2 PUSH2 0xFFFF MUL NOT AND SWAP1 DUP4 PUSH2 0xFFFF AND MUL OR SWAP1 SSTORE POP PUSH1 0xC0 DUP3 ADD MLOAD DUP2 PUSH1 0x5 ADD PUSH1 0x2 PUSH2 0x100 EXP DUP2 SLOAD DUP2 PUSH2 0xFFFF MUL NOT AND SWAP1 DUP4 PUSH2 0xFFFF AND MUL OR SWAP1 SSTORE POP SWAP1 POP POP PUSH3 0x577 JUMP JUMPDEST PUSH1 0x0 CALLER SWAP1 POP SWAP1 JUMP JUMPDEST PUSH1 0x0 DUP1 PUSH1 0x0 SWAP1 SLOAD SWAP1 PUSH2 0x100 EXP SWAP1 DIV PUSH20 0xFFFFFFFFFFFFFFFFFFFFFFFFFFFFFFFFFFFFFFFF AND SWAP1 POP DUP2 PUSH1 0x0 DUP1 PUSH2 0x100 EXP DUP2 SLOAD DUP2 PUSH20 0xFFFFFFFFFFFFFFFFFFFFFFFFFFFFFFFFFFFFFFFF MUL NOT AND SWAP1 DUP4 PUSH20 0xFFFFFFFFFFFFFFFFFFFFFFFFFFFFFFFFFFFFFFFF AND MUL OR SWAP1 SSTORE POP DUP2 PUSH20 0xFFFFFFFFFFFFFFFFFFFFFFFFFFFFFFFFFFFFFFFF AND DUP2 PUSH20 0xFFFFFFFFFFFFFFFFFFFFFFFFFFFFFFFFFFFFFFFF AND PUSH32 0x8BE0079C531659141344CD1FD0A4F28419497F9722A3DAAFE3B4186F6B6457E0 PUSH1 0x40 MLOAD PUSH1 0x40 MLOAD DUP1 SWAP2 SUB SWAP1 LOG3 POP POP JUMP JUMPDEST PUSH32 0x4E487B7100000000000000000000000000000000000000000000000000000000 PUSH1 0x0 MSTORE PUSH1 0x21 PUSH1 0x4 MSTORE PUSH1 0x24 PUSH1 0x0 REVERT JUMPDEST PUSH2 0x2830 DUP1 PUSH3 0x587 PUSH1 0x0 CODECOPY PUSH1 0x0 RETURN INVALID PUSH1 0x80 PUSH1 0x40 MSTORE CALLVALUE DUP1 ISZERO PUSH2 0x10 JUMPI PUSH1 0x0 DUP1 REVERT JUMPDEST POP PUSH1 0x4 CALLDATASIZE LT PUSH2 0xEA JUMPI PUSH1 0x0 CALLDATALOAD PUSH1 0xE0 SHR DUP1 PUSH4 0x6F522095 GT PUSH2 0x8C JUMPI DUP1 PUSH4 0x938E3AF3 GT PUSH2 0x66 JUMPI DUP1 PUSH4 0x938E3AF3 EQ PUSH2 0x24D JUMPI DUP1 PUSH4 0xE4C255D5 EQ PUSH2 0x283 JUMPI DUP1 PUSH4 0xEF409991 EQ PUSH2 0x2A1 JUMPI DUP1 PUSH4 0xF2FDE38B EQ PUSH2 0x2BD JUMPI PUSH2 0xEA JUMP JUMPDEST DUP1 PUSH4 0x6F522095 EQ PUSH2 0x1F1 JUMPI DUP1 PUSH4 0x715018A6 EQ PUSH2 0x225 JUMPI DUP1 PUSH4 0x8DA5CB5B EQ PUSH2 0x22F JUMPI PUSH2 0xEA JUMP JUMPDEST DUP1 PUSH4 0x43A1696C GT PUSH2 0xC8 JUMPI DUP1 PUSH4 0x43A1696C EQ PUSH2 0x17F JUMPI DUP1 PUSH4 0x44957CF3 EQ PUSH2 0x19B JUMPI DUP1 PUSH4 0x4E71D92D EQ PUSH2 0x1B7 JUMPI DUP1 PUSH4 0x6A2226EC EQ PUSH2 0x1C1 JUMPI PUSH2 0xEA JUMP JUMPDEST DUP1 PUSH4 0x6DEF802 EQ PUSH2 0xEF JUMPI DUP1 PUSH4 0x8C0FC89 EQ PUSH2 0x11F JUMPI DUP1 PUSH4 0x35CB5A33 EQ PUSH2 0x14F JUMPI JUMPDEST PUSH1 0x0 DUP1 REVERT JUMPDEST PUSH2 0x109 PUSH1 0x4 DUP1 CALLDATASIZE SUB DUP2 ADD SWAP1 PUSH2 0x104 SWAP2 SWAP1 PUSH2 0x1A0E JUMP JUMPDEST PUSH2 0x2D9 JUMP JUMPDEST PUSH1 0x40 MLOAD PUSH2 0x116 SWAP2 SWAP1 PUSH2 0x2219 JUMP JUMPDEST PUSH1 0x40 MLOAD DUP1 SWAP2 SUB SWAP1 RETURN JUMPDEST PUSH2 0x139 PUSH1 0x4 DUP1 CALLDATASIZE SUB DUP2 ADD SWAP1 PUSH2 0x134 SWAP2 SWAP1 PUSH2 0x1A95 JUMP JUMPDEST PUSH2 0x44B JUMP JUMPDEST PUSH1 0x40 MLOAD PUSH2 0x146 SWAP2 SWAP1 PUSH2 0x21FE JUMP JUMPDEST PUSH1 0x40 MLOAD DUP1 SWAP2 SUB SWAP1 RETURN JUMPDEST PUSH2 0x169 PUSH1 0x4 DUP1 CALLDATASIZE SUB DUP2 ADD SWAP1 PUSH2 0x164 SWAP2 SWAP1 PUSH2 0x1A0E JUMP JUMPDEST PUSH2 0x583 JUMP JUMPDEST PUSH1 0x40 MLOAD PUSH2 0x176 SWAP2 SWAP1 PUSH2 0x21E3 JUMP JUMPDEST PUSH1 0x40 MLOAD DUP1 SWAP2 SUB SWAP1 RETURN JUMPDEST PUSH2 0x199 PUSH1 0x4 DUP1 CALLDATASIZE SUB DUP2 ADD SWAP1 PUSH2 0x194 SWAP2 SWAP1 PUSH2 0x1AC2 JUMP JUMPDEST PUSH2 0x621 JUMP JUMPDEST STOP JUMPDEST PUSH2 0x1B5 PUSH1 0x4 DUP1 CALLDATASIZE SUB DUP2 ADD SWAP1 PUSH2 0x1B0 SWAP2 SWAP1 PUSH2 0x1B02 JUMP JUMPDEST PUSH2 0x75D JUMP JUMPDEST STOP JUMPDEST PUSH2 0x1BF PUSH2 0xDBE JUMP JUMPDEST STOP JUMPDEST PUSH2 0x1DB PUSH1 0x4 DUP1 CALLDATASIZE SUB DUP2 ADD SWAP1 PUSH2 0x1D6 SWAP2 SWAP1 PUSH2 0x1B55 JUMP JUMPDEST PUSH2 0x1277 JUMP JUMPDEST PUSH1 0x40 MLOAD PUSH2 0x1E8 SWAP2 SWAP1 PUSH2 0x2219 JUMP JUMPDEST PUSH1 0x40 MLOAD DUP1 SWAP2 SUB SWAP1 RETURN JUMPDEST PUSH2 0x20B PUSH1 0x4 DUP1 CALLDATASIZE SUB DUP2 ADD SWAP1 PUSH2 0x206 SWAP2 SWAP1 PUSH2 0x1A0E JUMP JUMPDEST PUSH2 0x1576 JUMP JUMPDEST PUSH1 0x40 MLOAD PUSH2 0x21C SWAP6 SWAP5 SWAP4 SWAP3 SWAP2 SWAP1 PUSH2 0x22A3 JUMP JUMPDEST PUSH1 0x40 MLOAD DUP1 SWAP2 SUB SWAP1 RETURN JUMPDEST PUSH2 0x22D PUSH2 0x15B9 JUMP JUMPDEST STOP JUMPDEST PUSH2 0x237 PUSH2 0x15CD JUMP JUMPDEST PUSH1 0x40 MLOAD PUSH2 0x244 SWAP2 SWAP1 PUSH2 0x1F28 JUMP JUMPDEST PUSH1 0x40 MLOAD DUP1 SWAP2 SUB SWAP1 RETURN JUMPDEST PUSH2 0x267 PUSH1 0x4 DUP1 CALLDATASIZE SUB DUP2 ADD SWAP1 PUSH2 0x262 SWAP2 SWAP1 PUSH2 0x1A95 JUMP JUMPDEST PUSH2 0x15F6 JUMP JUMPDEST PUSH1 0x40 MLOAD PUSH2 0x27A SWAP8 SWAP7 SWAP6 SWAP5 SWAP4 SWAP3 SWAP2 SWAP1 PUSH2 0x2234 JUMP JUMPDEST PUSH1 0x40 MLOAD DUP1 SWAP2 SUB SWAP1 RETURN JUMPDEST PUSH2 0x28B PUSH2 0x1661 JUMP JUMPDEST PUSH1 0x40 MLOAD PUSH2 0x298 SWAP2 SWAP1 PUSH2 0x1F28 JUMP JUMPDEST PUSH1 0x40 MLOAD DUP1 SWAP2 SUB SWAP1 RETURN JUMPDEST PUSH2 0x2BB PUSH1 0x4 DUP1 CALLDATASIZE SUB DUP2 ADD SWAP1 PUSH2 0x2B6 SWAP2 SWAP1 PUSH2 0x1A0E JUMP JUMPDEST PUSH2 0x1687 JUMP JUMPDEST STOP JUMPDEST PUSH2 0x2D7 PUSH1 0x4 DUP1 CALLDATASIZE SUB DUP2 ADD SWAP1 PUSH2 0x2D2 SWAP2 SWAP1 PUSH2 0x1A0E JUMP JUMPDEST PUSH2 0x175D JUMP JUMPDEST STOP JUMPDEST PUSH1 0x0 DUP1 PUSH1 0x3 PUSH1 0x0 DUP5 PUSH20 0xFFFFFFFFFFFFFFFFFFFFFFFFFFFFFFFFFFFFFFFF AND PUSH20 0xFFFFFFFFFFFFFFFFFFFFFFFFFFFFFFFFFFFFFFFF AND DUP2 MSTORE PUSH1 0x20 ADD SWAP1 DUP2 MSTORE PUSH1 0x20 ADD PUSH1 0x0 KECCAK256 PUSH1 0x3 ADD SLOAD GT PUSH2 0x35F JUMPI PUSH1 0x40 MLOAD PUSH32 0x8C379A000000000000000000000000000000000000000000000000000000000 DUP2 MSTORE PUSH1 0x4 ADD PUSH2 0x356 SWAP1 PUSH2 0x2123 JUMP JUMPDEST PUSH1 0x40 MLOAD DUP1 SWAP2 SUB SWAP1 REVERT JUMPDEST PUSH1 0x0 PUSH2 0x440 PUSH1 0x3 PUSH1 0x0 DUP6 PUSH20 0xFFFFFFFFFFFFFFFFFFFFFFFFFFFFFFFFFFFFFFFF AND PUSH20 0xFFFFFFFFFFFFFFFFFFFFFFFFFFFFFFFFFFFFFFFF AND DUP2 MSTORE PUSH1 0x20 ADD SWAP1 DUP2 MSTORE PUSH1 0x20 ADD PUSH1 0x0 KECCAK256 PUSH1 0x0 ADD PUSH1 0x0 SWAP1 SLOAD SWAP1 PUSH2 0x100 EXP SWAP1 DIV PUSH1 0xFF AND PUSH1 0x3 PUSH1 0x0 DUP7 PUSH20 0xFFFFFFFFFFFFFFFFFFFFFFFFFFFFFFFFFFFFFFFF AND PUSH20 0xFFFFFFFFFFFFFFFFFFFFFFFFFFFFFFFFFFFFFFFF AND DUP2 MSTORE PUSH1 0x20 ADD SWAP1 DUP2 MSTORE PUSH1 0x20 ADD PUSH1 0x0 KECCAK256 PUSH1 0x1 ADD SLOAD PUSH1 0x3 PUSH1 0x0 DUP8 PUSH20 0xFFFFFFFFFFFFFFFFFFFFFFFFFFFFFFFFFFFFFFFF AND PUSH20 0xFFFFFFFFFFFFFFFFFFFFFFFFFFFFFFFFFFFFFFFF AND DUP2 MSTORE PUSH1 0x20 ADD SWAP1 DUP2 MSTORE PUSH1 0x20 ADD PUSH1 0x0 KECCAK256 PUSH1 0x2 ADD SLOAD TIMESTAMP PUSH2 0x1277 JUMP JUMPDEST SWAP1 POP DUP1 SWAP2 POP POP SWAP2 SWAP1 POP JUMP JUMPDEST PUSH2 0x453 PUSH2 0x192B JUMP JUMPDEST PUSH1 0x0 PUSH1 0x3 DUP2 GT ISZERO PUSH2 0x467 JUMPI PUSH2 0x466 PUSH2 0x24DD JUMP JUMPDEST JUMPDEST PUSH1 0xFF AND DUP3 PUSH1 0xFF AND LT ISZERO DUP1 ISZERO PUSH2 0x494 JUMPI POP PUSH1 0x3 DUP1 DUP2 GT ISZERO PUSH2 0x48A JUMPI PUSH2 0x489 PUSH2 0x24DD JUMP JUMPDEST JUMPDEST PUSH1 0xFF AND DUP3 PUSH1 0xFF AND GT ISZERO JUMPDEST PUSH2 0x4D3 JUMPI PUSH1 0x40 MLOAD PUSH32 0x8C379A000000000000000000000000000000000000000000000000000000000 DUP2 MSTORE PUSH1 0x4 ADD PUSH2 0x4CA SWAP1 PUSH2 0x2163 JUMP JUMPDEST PUSH1 0x40 MLOAD DUP1 SWAP2 SUB SWAP1 REVERT JUMPDEST PUSH1 0x2 PUSH1 0x0 DUP4 PUSH1 0xFF AND PUSH1 0xFF AND DUP2 MSTORE PUSH1 0x20 ADD SWAP1 DUP2 MSTORE PUSH1 0x20 ADD PUSH1 0x0 KECCAK256 PUSH1 0x40 MLOAD DUP1 PUSH1 0xE0 ADD PUSH1 0x40 MSTORE SWAP1 DUP2 PUSH1 0x0 DUP3 ADD SLOAD DUP2 MSTORE PUSH1 0x20 ADD PUSH1 0x1 DUP3 ADD PUSH1 0x0 SWAP1 SLOAD SWAP1 PUSH2 0x100 EXP SWAP1 DIV PUSH1 0xFF AND PUSH1 0xFF AND PUSH1 0xFF AND DUP2 MSTORE PUSH1 0x20 ADD PUSH1 0x2 DUP3 ADD SLOAD DUP2 MSTORE PUSH1 0x20 ADD PUSH1 0x3 DUP3 ADD SLOAD DUP2 MSTORE PUSH1 0x20 ADD PUSH1 0x4 DUP3 ADD SLOAD DUP2 MSTORE PUSH1 0x20 ADD PUSH1 0x5 DUP3 ADD PUSH1 0x0 SWAP1 SLOAD SWAP1 PUSH2 0x100 EXP SWAP1 DIV PUSH2 0xFFFF AND PUSH2 0xFFFF AND PUSH2 0xFFFF AND DUP2 MSTORE PUSH1 0x20 ADD PUSH1 0x5 DUP3 ADD PUSH1 0x2 SWAP1 SLOAD SWAP1 PUSH2 0x100 EXP SWAP1 DIV PUSH2 0xFFFF AND PUSH2 0xFFFF AND PUSH2 0xFFFF AND DUP2 MSTORE POP POP SWAP1 POP SWAP2 SWAP1 POP JUMP JUMPDEST PUSH2 0x58B PUSH2 0x1973 JUMP JUMPDEST PUSH1 0x3 PUSH1 0x0 DUP4 PUSH20 0xFFFFFFFFFFFFFFFFFFFFFFFFFFFFFFFFFFFFFFFF AND PUSH20 0xFFFFFFFFFFFFFFFFFFFFFFFFFFFFFFFFFFFFFFFF AND DUP2 MSTORE PUSH1 0x20 ADD SWAP1 DUP2 MSTORE PUSH1 0x20 ADD PUSH1 0x0 KECCAK256 PUSH1 0x40 MLOAD DUP1 PUSH1 0xA0 ADD PUSH1 0x40 MSTORE SWAP1 DUP2 PUSH1 0x0 DUP3 ADD PUSH1 0x0 SWAP1 SLOAD SWAP1 PUSH2 0x100 EXP SWAP1 DIV PUSH1 0xFF AND PUSH1 0xFF AND PUSH1 0xFF AND DUP2 MSTORE PUSH1 0x20 ADD PUSH1 0x1 DUP3 ADD SLOAD DUP2 MSTORE PUSH1 0x20 ADD PUSH1 0x2 DUP3 ADD SLOAD DUP2 MSTORE PUSH1 0x20 ADD PUSH1 0x3 DUP3 ADD SLOAD DUP2 MSTORE PUSH1 0x20 ADD PUSH1 0x4 DUP3 ADD SLOAD DUP2 MSTORE POP POP SWAP1 POP SWAP2 SWAP1 POP JUMP JUMPDEST PUSH2 0x629 PUSH2 0x17E1 JUMP JUMPDEST PUSH1 0x0 PUSH1 0x3 DUP2 GT ISZERO PUSH2 0x63D JUMPI PUSH2 0x63C PUSH2 0x24DD JUMP JUMPDEST JUMPDEST PUSH1 0xFF AND DUP3 PUSH1 0xFF AND LT ISZERO DUP1 ISZERO PUSH2 0x66A JUMPI POP PUSH1 0x3 DUP1 DUP2 GT ISZERO PUSH2 0x660 JUMPI PUSH2 0x65F PUSH2 0x24DD JUMP JUMPDEST JUMPDEST PUSH1 0xFF AND DUP3 PUSH1 0xFF AND GT ISZERO JUMPDEST PUSH2 0x6A9 JUMPI PUSH1 0x40 MLOAD PUSH32 0x8C379A000000000000000000000000000000000000000000000000000000000 DUP2 MSTORE PUSH1 0x4 ADD PUSH2 0x6A0 SWAP1 PUSH2 0x2163 JUMP JUMPDEST PUSH1 0x40 MLOAD DUP1 SWAP2 SUB SWAP1 REVERT JUMPDEST TIMESTAMP DUP2 GT PUSH2 0x6EB JUMPI PUSH1 0x40 MLOAD PUSH32 0x8C379A000000000000000000000000000000000000000000000000000000000 DUP2 MSTORE PUSH1 0x4 ADD PUSH2 0x6E2 SWAP1 PUSH2 0x2003 JUMP JUMPDEST PUSH1 0x40 MLOAD DUP1 SWAP2 SUB SWAP1 REVERT JUMPDEST PUSH1 0x0 PUSH1 0x2 PUSH1 0x0 DUP5 PUSH1 0xFF AND PUSH1 0xFF AND DUP2 MSTORE PUSH1 0x20 ADD SWAP1 DUP2 MSTORE PUSH1 0x20 ADD PUSH1 0x0 KECCAK256 SWAP1 POP PUSH1 0x0 DUP2 PUSH1 0x0 ADD SLOAD EQ PUSH2 0x74F JUMPI PUSH1 0x40 MLOAD PUSH32 0x8C379A000000000000000000000000000000000000000000000000000000000 DUP2 MSTORE PUSH1 0x4 ADD PUSH2 0x746 SWAP1 PUSH2 0x2143 JUMP JUMPDEST PUSH1 0x40 MLOAD DUP1 SWAP2 SUB SWAP1 REVERT JUMPDEST DUP2 DUP2 PUSH1 0x0 ADD DUP2 SWAP1 SSTORE POP POP POP POP JUMP JUMPDEST PUSH2 0x765 PUSH2 0x17E1 JUMP JUMPDEST PUSH1 0x0 PUSH20 0xFFFFFFFFFFFFFFFFFFFFFFFFFFFFFFFFFFFFFFFF AND PUSH1 0x1 PUSH1 0x0 SWAP1 SLOAD SWAP1 PUSH2 0x100 EXP SWAP1 DIV PUSH20 0xFFFFFFFFFFFFFFFFFFFFFFFFFFFFFFFFFFFFFFFF AND PUSH20 0xFFFFFFFFFFFFFFFFFFFFFFFFFFFFFFFFFFFFFFFF AND EQ ISZERO PUSH2 0x7F7 JUMPI PUSH1 0x40 MLOAD PUSH32 0x8C379A000000000000000000000000000000000000000000000000000000000 DUP2 MSTORE PUSH1 0x4 ADD PUSH2 0x7EE SWAP1 PUSH2 0x2103 JUMP JUMPDEST PUSH1 0x40 MLOAD DUP1 SWAP2 SUB SWAP1 REVERT JUMPDEST PUSH1 0x0 PUSH1 0x3 DUP2 GT ISZERO PUSH2 0x80B JUMPI PUSH2 0x80A PUSH2 0x24DD JUMP JUMPDEST JUMPDEST PUSH1 0xFF AND DUP4 PUSH1 0xFF AND LT ISZERO DUP1 ISZERO PUSH2 0x838 JUMPI POP PUSH1 0x3 DUP1 DUP2 GT ISZERO PUSH2 0x82E JUMPI PUSH2 0x82D PUSH2 0x24DD JUMP JUMPDEST JUMPDEST PUSH1 0xFF AND DUP4 PUSH1 0xFF AND GT ISZERO JUMPDEST PUSH2 0x877 JUMPI PUSH1 0x40 MLOAD PUSH32 0x8C379A000000000000000000000000000000000000000000000000000000000 DUP2 MSTORE PUSH1 0x4 ADD PUSH2 0x86E SWAP1 PUSH2 0x2163 JUMP JUMPDEST PUSH1 0x40 MLOAD DUP1 SWAP2 SUB SWAP1 REVERT JUMPDEST PUSH1 0x0 PUSH1 0x2 PUSH1 0x0 DUP6 PUSH1 0xFF AND PUSH1 0xFF AND DUP2 MSTORE PUSH1 0x20 ADD SWAP1 DUP2 MSTORE PUSH1 0x20 ADD PUSH1 0x0 KECCAK256 SWAP1 POP DUP3 DUP2 PUSH1 0x3 ADD SLOAD PUSH2 0x8A4 SWAP2 SWAP1 PUSH2 0x2307 JUMP JUMPDEST DUP2 PUSH1 0x2 ADD SLOAD LT ISZERO PUSH2 0x8EA JUMPI PUSH1 0x40 MLOAD PUSH32 0x8C379A000000000000000000000000000000000000000000000000000000000 DUP2 MSTORE PUSH1 0x4 ADD PUSH2 0x8E1 SWAP1 PUSH2 0x20A3 JUMP JUMPDEST PUSH1 0x40 MLOAD DUP1 SWAP2 SUB SWAP1 REVERT JUMPDEST PUSH1 0x0 PUSH1 0x1 PUSH1 0x0 SWAP1 SLOAD SWAP1 PUSH2 0x100 EXP SWAP1 DIV PUSH20 0xFFFFFFFFFFFFFFFFFFFFFFFFFFFFFFFFFFFFFFFF AND PUSH20 0xFFFFFFFFFFFFFFFFFFFFFFFFFFFFFFFFFFFFFFFF AND PUSH4 0x70A08231 CALLER PUSH1 0x40 MLOAD DUP3 PUSH4 0xFFFFFFFF AND PUSH1 0xE0 SHL DUP2 MSTORE PUSH1 0x4 ADD PUSH2 0x947 SWAP2 SWAP1 PUSH2 0x1F28 JUMP JUMPDEST PUSH1 0x20 PUSH1 0x40 MLOAD DUP1 DUP4 SUB DUP2 DUP7 DUP1 EXTCODESIZE ISZERO DUP1 ISZERO PUSH2 0x95F JUMPI PUSH1 0x0 DUP1 REVERT JUMPDEST POP GAS STATICCALL ISZERO DUP1 ISZERO PUSH2 0x973 JUMPI RETURNDATASIZE PUSH1 0x0 DUP1 RETURNDATACOPY RETURNDATASIZE PUSH1 0x0 REVERT JUMPDEST POP POP POP POP PUSH1 0x40 MLOAD RETURNDATASIZE PUSH1 0x1F NOT PUSH1 0x1F DUP3 ADD AND DUP3 ADD DUP1 PUSH1 0x40 MSTORE POP DUP2 ADD SWAP1 PUSH2 0x997 SWAP2 SWAP1 PUSH2 0x1A68 JUMP JUMPDEST SWAP1 POP PUSH1 0x0 PUSH1 0x1 PUSH1 0x0 SWAP1 SLOAD SWAP1 PUSH2 0x100 EXP SWAP1 DIV PUSH20 0xFFFFFFFFFFFFFFFFFFFFFFFFFFFFFFFFFFFFFFFF AND PUSH20 0xFFFFFFFFFFFFFFFFFFFFFFFFFFFFFFFFFFFFFFFF AND PUSH4 0xDD62ED3E CALLER ADDRESS PUSH1 0x40 MLOAD DUP4 PUSH4 0xFFFFFFFF AND PUSH1 0xE0 SHL DUP2 MSTORE PUSH1 0x4 ADD PUSH2 0x9F8 SWAP3 SWAP2 SWAP1 PUSH2 0x1F43 JUMP JUMPDEST PUSH1 0x20 PUSH1 0x40 MLOAD DUP1 DUP4 SUB DUP2 DUP7 DUP1 EXTCODESIZE ISZERO DUP1 ISZERO PUSH2 0xA10 JUMPI PUSH1 0x0 DUP1 REVERT JUMPDEST POP GAS STATICCALL ISZERO DUP1 ISZERO PUSH2 0xA24 JUMPI RETURNDATASIZE PUSH1 0x0 DUP1 RETURNDATACOPY RETURNDATASIZE PUSH1 0x0 REVERT JUMPDEST POP POP POP POP PUSH1 0x40 MLOAD RETURNDATASIZE PUSH1 0x1F NOT PUSH1 0x1F DUP3 ADD AND DUP3 ADD DUP1 PUSH1 0x40 MSTORE POP DUP2 ADD SWAP1 PUSH2 0xA48 SWAP2 SWAP1 PUSH2 0x1A68 JUMP JUMPDEST SWAP1 POP DUP5 DUP2 LT ISZERO PUSH2 0xA8D JUMPI PUSH1 0x40 MLOAD PUSH32 0x8C379A000000000000000000000000000000000000000000000000000000000 DUP2 MSTORE PUSH1 0x4 ADD PUSH2 0xA84 SWAP1 PUSH2 0x2183 JUMP JUMPDEST PUSH1 0x40 MLOAD DUP1 SWAP2 SUB SWAP1 REVERT JUMPDEST DUP5 DUP3 LT ISZERO PUSH2 0xAD0 JUMPI PUSH1 0x40 MLOAD PUSH32 0x8C379A000000000000000000000000000000000000000000000000000000000 DUP2 MSTORE PUSH1 0x4 ADD PUSH2 0xAC7 SWAP1 PUSH2 0x2083 JUMP JUMPDEST PUSH1 0x40 MLOAD DUP1 SWAP2 SUB SWAP1 REVERT JUMPDEST PUSH1 0x0 PUSH1 0x3 PUSH1 0x0 DUP7 PUSH20 0xFFFFFFFFFFFFFFFFFFFFFFFFFFFFFFFFFFFFFFFF AND PUSH20 0xFFFFFFFFFFFFFFFFFFFFFFFFFFFFFFFFFFFFFFFF AND DUP2 MSTORE PUSH1 0x20 ADD SWAP1 DUP2 MSTORE PUSH1 0x20 ADD PUSH1 0x0 KECCAK256 PUSH1 0x3 ADD SLOAD EQ PUSH2 0xB55 JUMPI PUSH1 0x40 MLOAD PUSH32 0x8C379A000000000000000000000000000000000000000000000000000000000 DUP2 MSTORE PUSH1 0x4 ADD PUSH2 0xB4C SWAP1 PUSH2 0x21A3 JUMP JUMPDEST PUSH1 0x40 MLOAD DUP1 SWAP2 SUB SWAP1 REVERT JUMPDEST PUSH1 0x40 MLOAD DUP1 PUSH1 0xA0 ADD PUSH1 0x40 MSTORE DUP1 DUP8 PUSH1 0xFF AND DUP2 MSTORE PUSH1 0x20 ADD DUP7 DUP2 MSTORE PUSH1 0x20 ADD PUSH1 0x0 DUP2 MSTORE PUSH1 0x20 ADD TIMESTAMP DUP2 MSTORE PUSH1 0x20 ADD PUSH1 0x0 DUP2 MSTORE POP PUSH1 0x3 PUSH1 0x0 DUP7 PUSH20 0xFFFFFFFFFFFFFFFFFFFFFFFFFFFFFFFFFFFFFFFF AND PUSH20 0xFFFFFFFFFFFFFFFFFFFFFFFFFFFFFFFFFFFFFFFF AND DUP2 MSTORE PUSH1 0x20 ADD SWAP1 DUP2 MSTORE PUSH1 0x20 ADD PUSH1 0x0 KECCAK256 PUSH1 0x0 DUP3 ADD MLOAD DUP2 PUSH1 0x0 ADD PUSH1 0x0 PUSH2 0x100 EXP DUP2 SLOAD DUP2 PUSH1 0xFF MUL NOT AND SWAP1 DUP4 PUSH1 0xFF AND MUL OR SWAP1 SSTORE POP PUSH1 0x20 DUP3 ADD MLOAD DUP2 PUSH1 0x1 ADD SSTORE PUSH1 0x40 DUP3 ADD MLOAD DUP2 PUSH1 0x2 ADD SSTORE PUSH1 0x60 DUP3 ADD MLOAD DUP2 PUSH1 0x3 ADD SSTORE PUSH1 0x80 DUP3 ADD MLOAD DUP2 PUSH1 0x4 ADD SSTORE SWAP1 POP POP PUSH1 0x1 PUSH1 0x0 SWAP1 SLOAD SWAP1 PUSH2 0x100 EXP SWAP1 DIV PUSH20 0xFFFFFFFFFFFFFFFFFFFFFFFFFFFFFFFFFFFFFFFF AND PUSH20 0xFFFFFFFFFFFFFFFFFFFFFFFFFFFFFFFFFFFFFFFF AND PUSH4 0x23B872DD CALLER ADDRESS DUP9 PUSH1 0x40 MLOAD DUP5 PUSH4 0xFFFFFFFF AND PUSH1 0xE0 SHL DUP2 MSTORE PUSH1 0x4 ADD PUSH2 0xC6B SWAP4 SWAP3 SWAP2 SWAP1 PUSH2 0x1F6C JUMP JUMPDEST PUSH1 0x20 PUSH1 0x40 MLOAD DUP1 DUP4 SUB DUP2 PUSH1 0x0 DUP8 DUP1 EXTCODESIZE ISZERO DUP1 ISZERO PUSH2 0xC85 JUMPI PUSH1 0x0 DUP1 REVERT JUMPDEST POP GAS CALL ISZERO DUP1 ISZERO PUSH2 0xC99 JUMPI RETURNDATASIZE PUSH1 0x0 DUP1 RETURNDATACOPY RETURNDATASIZE PUSH1 0x0 REVERT JUMPDEST POP POP POP POP PUSH1 0x40 MLOAD RETURNDATASIZE PUSH1 0x1F NOT PUSH1 0x1F DUP3 ADD AND DUP3 ADD DUP1 PUSH1 0x40 MSTORE POP DUP2 ADD SWAP1 PUSH2 0xCBD SWAP2 SWAP1 PUSH2 0x1A3B JUMP JUMPDEST POP DUP5 DUP4 PUSH1 0x3 ADD PUSH1 0x0 DUP3 DUP3 SLOAD PUSH2 0xCD2 SWAP2 SWAP1 PUSH2 0x2307 JUMP JUMPDEST SWAP3 POP POP DUP2 SWAP1 SSTORE POP DUP6 PUSH1 0x3 PUSH1 0x0 DUP7 PUSH20 0xFFFFFFFFFFFFFFFFFFFFFFFFFFFFFFFFFFFFFFFF AND PUSH20 0xFFFFFFFFFFFFFFFFFFFFFFFFFFFFFFFFFFFFFFFF AND DUP2 MSTORE PUSH1 0x20 ADD SWAP1 DUP2 MSTORE PUSH1 0x20 ADD PUSH1 0x0 KECCAK256 PUSH1 0x0 ADD PUSH1 0x0 PUSH2 0x100 EXP DUP2 SLOAD DUP2 PUSH1 0xFF MUL NOT AND SWAP1 DUP4 PUSH1 0xFF AND MUL OR SWAP1 SSTORE POP DUP5 PUSH1 0x3 PUSH1 0x0 DUP7 PUSH20 0xFFFFFFFFFFFFFFFFFFFFFFFFFFFFFFFFFFFFFFFF AND PUSH20 0xFFFFFFFFFFFFFFFFFFFFFFFFFFFFFFFFFFFFFFFF AND DUP2 MSTORE PUSH1 0x20 ADD SWAP1 DUP2 MSTORE PUSH1 0x20 ADD PUSH1 0x0 KECCAK256 PUSH1 0x1 ADD DUP2 SWAP1 SSTORE POP PUSH32 0x6321ABC6E6451958312C6074EB5126D3065AF5754DBDE8E64E7AB1FD0555F8E6 DUP5 DUP8 DUP8 PUSH1 0x40 MLOAD PUSH2 0xDAE SWAP4 SWAP3 SWAP2 SWAP1 PUSH2 0x1FCC JUMP JUMPDEST PUSH1 0x40 MLOAD DUP1 SWAP2 SUB SWAP1 LOG1 POP POP POP POP POP POP JUMP JUMPDEST PUSH1 0x0 PUSH1 0x3 PUSH1 0x0 CALLER PUSH20 0xFFFFFFFFFFFFFFFFFFFFFFFFFFFFFFFFFFFFFFFF AND PUSH20 0xFFFFFFFFFFFFFFFFFFFFFFFFFFFFFFFFFFFFFFFF AND DUP2 MSTORE PUSH1 0x20 ADD SWAP1 DUP2 MSTORE PUSH1 0x20 ADD PUSH1 0x0 KECCAK256 PUSH1 0x3 ADD SLOAD GT PUSH2 0xE43 JUMPI PUSH1 0x40 MLOAD PUSH32 0x8C379A000000000000000000000000000000000000000000000000000000000 DUP2 MSTORE PUSH1 0x4 ADD PUSH2 0xE3A SWAP1 PUSH2 0x2023 JUMP JUMPDEST PUSH1 0x40 MLOAD DUP1 SWAP2 SUB SWAP1 REVERT JUMPDEST PUSH1 0x0 PUSH1 0x2 PUSH1 0x0 PUSH1 0x3 PUSH1 0x0 CALLER PUSH20 0xFFFFFFFFFFFFFFFFFFFFFFFFFFFFFFFFFFFFFFFF AND PUSH20 0xFFFFFFFFFFFFFFFFFFFFFFFFFFFFFFFFFFFFFFFF AND DUP2 MSTORE PUSH1 0x20 ADD SWAP1 DUP2 MSTORE PUSH1 0x20 ADD PUSH1 0x0 KECCAK256 PUSH1 0x0 ADD PUSH1 0x0 SWAP1 SLOAD SWAP1 PUSH2 0x100 EXP SWAP1 DIV PUSH1 0xFF AND PUSH1 0xFF AND PUSH1 0xFF AND DUP2 MSTORE PUSH1 0x20 ADD SWAP1 DUP2 MSTORE PUSH1 0x20 ADD PUSH1 0x0 KECCAK256 SWAP1 POP PUSH1 0x0 DUP2 PUSH1 0x0 ADD SLOAD GT DUP1 ISZERO PUSH2 0xEC7 JUMPI POP TIMESTAMP DUP2 PUSH1 0x0 ADD SLOAD GT ISZERO JUMPDEST PUSH2 0xF06 JUMPI PUSH1 0x40 MLOAD PUSH32 0x8C379A000000000000000000000000000000000000000000000000000000000 DUP2 MSTORE PUSH1 0x4 ADD PUSH2 0xEFD SWAP1 PUSH2 0x20E3 JUMP JUMPDEST PUSH1 0x40 MLOAD DUP1 SWAP2 SUB SWAP1 REVERT JUMPDEST PUSH1 0x0 PUSH2 0xF11 CALLER PUSH2 0x2D9 JUMP JUMPDEST SWAP1 POP PUSH1 0x0 DUP2 GT PUSH2 0xF56 JUMPI PUSH1 0x40 MLOAD PUSH32 0x8C379A000000000000000000000000000000000000000000000000000000000 DUP2 MSTORE PUSH1 0x4 ADD PUSH2 0xF4D SWAP1 PUSH2 0x2063 JUMP JUMPDEST PUSH1 0x40 MLOAD DUP1 SWAP2 SUB SWAP1 REVERT JUMPDEST DUP2 PUSH1 0x2 ADD SLOAD DUP2 DUP4 PUSH1 0x4 ADD SLOAD PUSH2 0xF6B SWAP2 SWAP1 PUSH2 0x2307 JUMP JUMPDEST GT ISZERO PUSH2 0xFAC JUMPI PUSH1 0x40 MLOAD PUSH32 0x8C379A000000000000000000000000000000000000000000000000000000000 DUP2 MSTORE PUSH1 0x4 ADD PUSH2 0xFA3 SWAP1 PUSH2 0x20A3 JUMP JUMPDEST PUSH1 0x40 MLOAD DUP1 SWAP2 SUB SWAP1 REVERT JUMPDEST PUSH1 0x3 PUSH1 0x0 CALLER PUSH20 0xFFFFFFFFFFFFFFFFFFFFFFFFFFFFFFFFFFFFFFFF AND PUSH20 0xFFFFFFFFFFFFFFFFFFFFFFFFFFFFFFFFFFFFFFFF AND DUP2 MSTORE PUSH1 0x20 ADD SWAP1 DUP2 MSTORE PUSH1 0x20 ADD PUSH1 0x0 KECCAK256 PUSH1 0x1 ADD SLOAD DUP2 PUSH1 0x3 PUSH1 0x0 CALLER PUSH20 0xFFFFFFFFFFFFFFFFFFFFFFFFFFFFFFFFFFFFFFFF AND PUSH20 0xFFFFFFFFFFFFFFFFFFFFFFFFFFFFFFFFFFFFFFFF AND DUP2 MSTORE PUSH1 0x20 ADD SWAP1 DUP2 MSTORE PUSH1 0x20 ADD PUSH1 0x0 KECCAK256 PUSH1 0x2 ADD SLOAD PUSH2 0x103D SWAP2 SWAP1 PUSH2 0x2307 JUMP JUMPDEST GT ISZERO PUSH2 0x107E JUMPI PUSH1 0x40 MLOAD PUSH32 0x8C379A000000000000000000000000000000000000000000000000000000000 DUP2 MSTORE PUSH1 0x4 ADD PUSH2 0x1075 SWAP1 PUSH2 0x21C3 JUMP JUMPDEST PUSH1 0x40 MLOAD DUP1 SWAP2 SUB SWAP1 REVERT JUMPDEST DUP1 DUP3 PUSH1 0x4 ADD PUSH1 0x0 DUP3 DUP3 SLOAD PUSH2 0x1092 SWAP2 SWAP1 PUSH2 0x2307 JUMP JUMPDEST SWAP3 POP POP DUP2 SWAP1 SSTORE POP DUP1 PUSH1 0x3 PUSH1 0x0 CALLER PUSH20 0xFFFFFFFFFFFFFFFFFFFFFFFFFFFFFFFFFFFFFFFF AND PUSH20 0xFFFFFFFFFFFFFFFFFFFFFFFFFFFFFFFFFFFFFFFF AND DUP2 MSTORE PUSH1 0x20 ADD SWAP1 DUP2 MSTORE PUSH1 0x20 ADD PUSH1 0x0 KECCAK256 PUSH1 0x2 ADD PUSH1 0x0 DUP3 DUP3 SLOAD PUSH2 0x10EB SWAP2 SWAP1 PUSH2 0x2307 JUMP JUMPDEST SWAP3 POP POP DUP2 SWAP1 SSTORE POP TIMESTAMP PUSH1 0x3 PUSH1 0x0 CALLER PUSH20 0xFFFFFFFFFFFFFFFFFFFFFFFFFFFFFFFFFFFFFFFF AND PUSH20 0xFFFFFFFFFFFFFFFFFFFFFFFFFFFFFFFFFFFFFFFF AND DUP2 MSTORE PUSH1 0x20 ADD SWAP1 DUP2 MSTORE PUSH1 0x20 ADD PUSH1 0x0 KECCAK256 PUSH1 0x4 ADD DUP2 SWAP1 SSTORE POP PUSH1 0x1 PUSH1 0x0 SWAP1 SLOAD SWAP1 PUSH2 0x100 EXP SWAP1 DIV PUSH20 0xFFFFFFFFFFFFFFFFFFFFFFFFFFFFFFFFFFFFFFFF AND PUSH20 0xFFFFFFFFFFFFFFFFFFFFFFFFFFFFFFFFFFFFFFFF AND PUSH4 0xA9059CBB CALLER DUP4 PUSH1 0x40 MLOAD DUP4 PUSH4 0xFFFFFFFF AND PUSH1 0xE0 SHL DUP2 MSTORE PUSH1 0x4 ADD PUSH2 0x1196 SWAP3 SWAP2 SWAP1 PUSH2 0x1FA3 JUMP JUMPDEST PUSH1 0x20 PUSH1 0x40 MLOAD DUP1 DUP4 SUB DUP2 PUSH1 0x0 DUP8 DUP1 EXTCODESIZE ISZERO DUP1 ISZERO PUSH2 0x11B0 JUMPI PUSH1 0x0 DUP1 REVERT JUMPDEST POP GAS CALL ISZERO DUP1 ISZERO PUSH2 0x11C4 JUMPI RETURNDATASIZE PUSH1 0x0 DUP1 RETURNDATACOPY RETURNDATASIZE PUSH1 0x0 REVERT JUMPDEST POP POP POP POP PUSH1 0x40 MLOAD RETURNDATASIZE PUSH1 0x1F NOT PUSH1 0x1F DUP3 ADD AND DUP3 ADD DUP1 PUSH1 0x40 MSTORE POP DUP2 ADD SWAP1 PUSH2 0x11E8 SWAP2 SWAP1 PUSH2 0x1A3B JUMP JUMPDEST POP PUSH32 0x1750BDF23084D7500224D30291ADFE9DBFFF501588448B624DDDF18EA32320FA CALLER PUSH1 0x3 PUSH1 0x0 CALLER PUSH20 0xFFFFFFFFFFFFFFFFFFFFFFFFFFFFFFFFFFFFFFFF AND PUSH20 0xFFFFFFFFFFFFFFFFFFFFFFFFFFFFFFFFFFFFFFFF AND DUP2 MSTORE PUSH1 0x20 ADD SWAP1 DUP2 MSTORE PUSH1 0x20 ADD PUSH1 0x0 KECCAK256 PUSH1 0x0 ADD PUSH1 0x0 SWAP1 SLOAD SWAP1 PUSH2 0x100 EXP SWAP1 DIV PUSH1 0xFF AND DUP4 PUSH1 0x40 MLOAD PUSH2 0x126B SWAP4 SWAP3 SWAP2 SWAP1 PUSH2 0x1FCC JUMP JUMPDEST PUSH1 0x40 MLOAD DUP1 SWAP2 SUB SWAP1 LOG1 POP POP JUMP JUMPDEST PUSH1 0x0 DUP1 PUSH1 0x3 DUP2 GT ISZERO PUSH2 0x128C JUMPI PUSH2 0x128B PUSH2 0x24DD JUMP JUMPDEST JUMPDEST PUSH1 0xFF AND DUP6 PUSH1 0xFF AND LT ISZERO DUP1 ISZERO PUSH2 0x12B9 JUMPI POP PUSH1 0x3 DUP1 DUP2 GT ISZERO PUSH2 0x12AF JUMPI PUSH2 0x12AE PUSH2 0x24DD JUMP JUMPDEST JUMPDEST PUSH1 0xFF AND DUP6 PUSH1 0xFF AND GT ISZERO JUMPDEST PUSH2 0x12F8 JUMPI PUSH1 0x40 MLOAD PUSH32 0x8C379A000000000000000000000000000000000000000000000000000000000 DUP2 MSTORE PUSH1 0x4 ADD PUSH2 0x12EF SWAP1 PUSH2 0x2163 JUMP JUMPDEST PUSH1 0x40 MLOAD DUP1 SWAP2 SUB SWAP1 REVERT JUMPDEST PUSH1 0x0 PUSH1 0x2 PUSH1 0x0 DUP8 PUSH1 0xFF AND PUSH1 0xFF AND DUP2 MSTORE PUSH1 0x20 ADD SWAP1 DUP2 MSTORE PUSH1 0x20 ADD PUSH1 0x0 KECCAK256 PUSH1 0x40 MLOAD DUP1 PUSH1 0xE0 ADD PUSH1 0x40 MSTORE SWAP1 DUP2 PUSH1 0x0 DUP3 ADD SLOAD DUP2 MSTORE PUSH1 0x20 ADD PUSH1 0x1 DUP3 ADD PUSH1 0x0 SWAP1 SLOAD SWAP1 PUSH2 0x100 EXP SWAP1 DIV PUSH1 0xFF AND PUSH1 0xFF AND PUSH1 0xFF AND DUP2 MSTORE PUSH1 0x20 ADD PUSH1 0x2 DUP3 ADD SLOAD DUP2 MSTORE PUSH1 0x20 ADD PUSH1 0x3 DUP3 ADD SLOAD DUP2 MSTORE PUSH1 0x20 ADD PUSH1 0x4 DUP3 ADD SLOAD DUP2 MSTORE PUSH1 0x20 ADD PUSH1 0x5 DUP3 ADD PUSH1 0x0 SWAP1 SLOAD SWAP1 PUSH2 0x100 EXP SWAP1 DIV PUSH2 0xFFFF AND PUSH2 0xFFFF AND PUSH2 0xFFFF AND DUP2 MSTORE PUSH1 0x20 ADD PUSH1 0x5 DUP3 ADD PUSH1 0x2 SWAP1 SLOAD SWAP1 PUSH2 0x100 EXP SWAP1 DIV PUSH2 0xFFFF AND PUSH2 0xFFFF AND PUSH2 0xFFFF AND DUP2 MSTORE POP POP SWAP1 POP PUSH1 0x0 DUP2 PUSH1 0x0 ADD MLOAD EQ DUP1 PUSH2 0x13BB JUMPI POP DUP1 PUSH1 0x0 ADD MLOAD DUP4 LT JUMPDEST ISZERO PUSH2 0x13CA JUMPI PUSH1 0x0 SWAP2 POP POP PUSH2 0x156E JUMP JUMPDEST PUSH1 0x0 PUSH1 0x2 PUSH1 0x3 DUP2 GT ISZERO PUSH2 0x13E0 JUMPI PUSH2 0x13DF PUSH2 0x24DD JUMP JUMPDEST JUMPDEST PUSH1 0xFF AND DUP8 PUSH1 0xFF AND EQ ISZERO PUSH2 0x145A JUMPI PUSH1 0x0 PUSH1 0x1 PUSH3 0x9E3400 DUP5 PUSH1 0x0 ADD MLOAD DUP8 PUSH2 0x1405 SWAP2 SWAP1 PUSH2 0x23E8 JUMP JUMPDEST PUSH2 0x140F SWAP2 SWAP1 PUSH2 0x235D JUMP JUMPDEST PUSH2 0x1419 SWAP2 SWAP1 PUSH2 0x2307 JUMP JUMPDEST SWAP1 POP DUP1 DUP4 PUSH1 0xC0 ADD MLOAD PUSH2 0xFFFF AND PUSH2 0x2710 DUP10 PUSH2 0x1433 SWAP2 SWAP1 PUSH2 0x235D JUMP JUMPDEST PUSH2 0x143D SWAP2 SWAP1 PUSH2 0x238E JUMP JUMPDEST PUSH2 0x1447 SWAP2 SWAP1 PUSH2 0x238E JUMP JUMPDEST DUP3 PUSH2 0x1452 SWAP2 SWAP1 PUSH2 0x2307 JUMP JUMPDEST SWAP2 POP POP PUSH2 0x1520 JUMP JUMPDEST DUP2 PUSH1 0xA0 ADD MLOAD PUSH2 0xFFFF AND PUSH2 0x2710 DUP8 PUSH2 0x1471 SWAP2 SWAP1 PUSH2 0x235D JUMP JUMPDEST PUSH2 0x147B SWAP2 SWAP1 PUSH2 0x238E JUMP JUMPDEST DUP2 PUSH2 0x1486 SWAP2 SWAP1 PUSH2 0x2307 JUMP JUMPDEST SWAP1 POP PUSH1 0x0 PUSH3 0x278D00 DUP4 PUSH1 0x20 ADD MLOAD PUSH1 0xFF AND PUSH2 0x14A0 SWAP2 SWAP1 PUSH2 0x238E JUMP JUMPDEST DUP4 PUSH1 0x0 ADD MLOAD PUSH2 0x14AF SWAP2 SWAP1 PUSH2 0x2307 JUMP JUMPDEST SWAP1 POP DUP1 DUP6 GT ISZERO PUSH2 0x151E JUMPI PUSH1 0x0 PUSH1 0x1 PUSH3 0x278D00 DUP4 DUP9 PUSH2 0x14CD SWAP2 SWAP1 PUSH2 0x23E8 JUMP JUMPDEST PUSH2 0x14D7 SWAP2 SWAP1 PUSH2 0x235D JUMP JUMPDEST PUSH2 0x14E1 SWAP2 SWAP1 PUSH2 0x2307 JUMP JUMPDEST SWAP1 POP DUP1 DUP5 PUSH1 0xC0 ADD MLOAD PUSH2 0xFFFF AND PUSH2 0x2710 DUP11 PUSH2 0x14FB SWAP2 SWAP1 PUSH2 0x235D JUMP JUMPDEST PUSH2 0x1505 SWAP2 SWAP1 PUSH2 0x238E JUMP JUMPDEST PUSH2 0x150F SWAP2 SWAP1 PUSH2 0x238E JUMP JUMPDEST DUP4 PUSH2 0x151A SWAP2 SWAP1 PUSH2 0x2307 JUMP JUMPDEST SWAP3 POP POP JUMPDEST POP JUMPDEST DUP1 DUP6 LT PUSH2 0x1532 JUMPI PUSH1 0x0 SWAP3 POP POP POP PUSH2 0x156E JUMP JUMPDEST DUP5 DUP2 PUSH2 0x153E SWAP2 SWAP1 PUSH2 0x23E8 JUMP JUMPDEST SWAP1 POP DUP6 DUP6 DUP3 PUSH2 0x154D SWAP2 SWAP1 PUSH2 0x2307 JUMP JUMPDEST GT ISZERO PUSH2 0x1568 JUMPI DUP5 DUP7 PUSH2 0x155F SWAP2 SWAP1 PUSH2 0x23E8 JUMP JUMPDEST SWAP3 POP POP POP PUSH2 0x156E JUMP JUMPDEST DUP1 SWAP3 POP POP POP JUMPDEST SWAP5 SWAP4 POP POP POP POP JUMP JUMPDEST PUSH1 0x3 PUSH1 0x20 MSTORE DUP1 PUSH1 0x0 MSTORE PUSH1 0x40 PUSH1 0x0 KECCAK256 PUSH1 0x0 SWAP2 POP SWAP1 POP DUP1 PUSH1 0x0 ADD PUSH1 0x0 SWAP1 SLOAD SWAP1 PUSH2 0x100 EXP SWAP1 DIV PUSH1 0xFF AND SWAP1 DUP1 PUSH1 0x1 ADD SLOAD SWAP1 DUP1 PUSH1 0x2 ADD SLOAD SWAP1 DUP1 PUSH1 0x3 ADD SLOAD SWAP1 DUP1 PUSH1 0x4 ADD SLOAD SWAP1 POP DUP6 JUMP JUMPDEST PUSH2 0x15C1 PUSH2 0x17E1 JUMP JUMPDEST PUSH2 0x15CB PUSH1 0x0 PUSH2 0x185F JUMP JUMPDEST JUMP JUMPDEST PUSH1 0x0 DUP1 PUSH1 0x0 SWAP1 SLOAD SWAP1 PUSH2 0x100 EXP SWAP1 DIV PUSH20 0xFFFFFFFFFFFFFFFFFFFFFFFFFFFFFFFFFFFFFFFF AND SWAP1 POP SWAP1 JUMP JUMPDEST PUSH1 0x2 PUSH1 0x20 MSTORE DUP1 PUSH1 0x0 MSTORE PUSH1 0x40 PUSH1 0x0 KECCAK256 PUSH1 0x0 SWAP2 POP SWAP1 POP DUP1 PUSH1 0x0 ADD SLOAD SWAP1 DUP1 PUSH1 0x1 ADD PUSH1 0x0 SWAP1 SLOAD SWAP1 PUSH2 0x100 EXP SWAP1 DIV PUSH1 0xFF AND SWAP1 DUP1 PUSH1 0x2 ADD SLOAD SWAP1 DUP1 PUSH1 0x3 ADD SLOAD SWAP1 DUP1 PUSH1 0x4 ADD SLOAD SWAP1 DUP1 PUSH1 0x5 ADD PUSH1 0x0 SWAP1 SLOAD SWAP1 PUSH2 0x100 EXP SWAP1 DIV PUSH2 0xFFFF AND SWAP1 DUP1 PUSH1 0x5 ADD PUSH1 0x2 SWAP1 SLOAD SWAP1 PUSH2 0x100 EXP SWAP1 DIV PUSH2 0xFFFF AND SWAP1 POP DUP8 JUMP JUMPDEST PUSH1 0x1 PUSH1 0x0 SWAP1 SLOAD SWAP1 PUSH2 0x100 EXP SWAP1 DIV PUSH20 0xFFFFFFFFFFFFFFFFFFFFFFFFFFFFFFFFFFFFFFFF AND DUP2 JUMP JUMPDEST PUSH2 0x168F PUSH2 0x17E1 JUMP JUMPDEST DUP1 PUSH20 0xFFFFFFFFFFFFFFFFFFFFFFFFFFFFFFFFFFFFFFFF AND PUSH4 0x70A08231 DUP3 PUSH1 0x40 MLOAD DUP3 PUSH4 0xFFFFFFFF AND PUSH1 0xE0 SHL DUP2 MSTORE PUSH1 0x4 ADD PUSH2 0x16C8 SWAP2 SWAP1 PUSH2 0x1F28 JUMP JUMPDEST PUSH1 0x20 PUSH1 0x40 MLOAD DUP1 DUP4 SUB DUP2 DUP7 DUP1 EXTCODESIZE ISZERO DUP1 ISZERO PUSH2 0x16E0 JUMPI PUSH1 0x0 DUP1 REVERT JUMPDEST POP GAS STATICCALL ISZERO DUP1 ISZERO PUSH2 0x16F4 JUMPI RETURNDATASIZE PUSH1 0x0 DUP1 RETURNDATACOPY RETURNDATASIZE PUSH1 0x0 REVERT JUMPDEST POP POP POP POP PUSH1 0x40 MLOAD RETURNDATASIZE PUSH1 0x1F NOT PUSH1 0x1F DUP3 ADD AND DUP3 ADD DUP1 PUSH1 0x40 MSTORE POP DUP2 ADD SWAP1 PUSH2 0x1718 SWAP2 SWAP1 PUSH2 0x1A68 JUMP JUMPDEST POP DUP1 PUSH1 0x1 PUSH1 0x0 PUSH2 0x100 EXP DUP2 SLOAD DUP2 PUSH20 0xFFFFFFFFFFFFFFFFFFFFFFFFFFFFFFFFFFFFFFFF MUL NOT AND SWAP1 DUP4 PUSH20 0xFFFFFFFFFFFFFFFFFFFFFFFFFFFFFFFFFFFFFFFF AND MUL OR SWAP1 SSTORE POP POP JUMP JUMPDEST PUSH2 0x1765 PUSH2 0x17E1 JUMP JUMPDEST PUSH1 0x0 PUSH20 0xFFFFFFFFFFFFFFFFFFFFFFFFFFFFFFFFFFFFFFFF AND DUP2 PUSH20 0xFFFFFFFFFFFFFFFFFFFFFFFFFFFFFFFFFFFFFFFF AND EQ ISZERO PUSH2 0x17D5 JUMPI PUSH1 0x40 MLOAD PUSH32 0x8C379A000000000000000000000000000000000000000000000000000000000 DUP2 MSTORE PUSH1 0x4 ADD PUSH2 0x17CC SWAP1 PUSH2 0x2043 JUMP JUMPDEST PUSH1 0x40 MLOAD DUP1 SWAP2 SUB SWAP1 REVERT JUMPDEST PUSH2 0x17DE DUP2 PUSH2 0x185F JUMP JUMPDEST POP JUMP JUMPDEST PUSH2 0x17E9 PUSH2 0x1923 JUMP JUMPDEST PUSH20 0xFFFFFFFFFFFFFFFFFFFFFFFFFFFFFFFFFFFFFFFF AND PUSH2 0x1807 PUSH2 0x15CD JUMP JUMPDEST PUSH20 0xFFFFFFFFFFFFFFFFFFFFFFFFFFFFFFFFFFFFFFFF AND EQ PUSH2 0x185D JUMPI PUSH1 0x40 MLOAD PUSH32 0x8C379A000000000000000000000000000000000000000000000000000000000 DUP2 MSTORE PUSH1 0x4 ADD PUSH2 0x1854 SWAP1 PUSH2 0x20C3 JUMP JUMPDEST PUSH1 0x40 MLOAD DUP1 SWAP2 SUB SWAP1 REVERT JUMPDEST JUMP JUMPDEST PUSH1 0x0 DUP1 PUSH1 0x0 SWAP1 SLOAD SWAP1 PUSH2 0x100 EXP SWAP1 DIV PUSH20 0xFFFFFFFFFFFFFFFFFFFFFFFFFFFFFFFFFFFFFFFF AND SWAP1 POP DUP2 PUSH1 0x0 DUP1 PUSH2 0x100 EXP DUP2 SLOAD DUP2 PUSH20 0xFFFFFFFFFFFFFFFFFFFFFFFFFFFFFFFFFFFFFFFF MUL NOT AND SWAP1 DUP4 PUSH20 0xFFFFFFFFFFFFFFFFFFFFFFFFFFFFFFFFFFFFFFFF AND MUL OR SWAP1 SSTORE POP DUP2 PUSH20 0xFFFFFFFFFFFFFFFFFFFFFFFFFFFFFFFFFFFFFFFF AND DUP2 PUSH20 0xFFFFFFFFFFFFFFFFFFFFFFFFFFFFFFFFFFFFFFFF AND PUSH32 0x8BE0079C531659141344CD1FD0A4F28419497F9722A3DAAFE3B4186F6B6457E0 PUSH1 0x40 MLOAD PUSH1 0x40 MLOAD DUP1 SWAP2 SUB SWAP1 LOG3 POP POP JUMP JUMPDEST PUSH1 0x0 CALLER SWAP1 POP SWAP1 JUMP JUMPDEST PUSH1 0x40 MLOAD DUP1 PUSH1 0xE0 ADD PUSH1 0x40 MSTORE DUP1 PUSH1 0x0 DUP2 MSTORE PUSH1 0x20 ADD PUSH1 0x0 PUSH1 0xFF AND DUP2 MSTORE PUSH1 0x20 ADD PUSH1 0x0 DUP2 MSTORE PUSH1 0x20 ADD PUSH1 0x0 DUP2 MSTORE PUSH1 0x20 ADD PUSH1 0x0 DUP2 MSTORE PUSH1 0x20 ADD PUSH1 0x0 PUSH2 0xFFFF AND DUP2 MSTORE PUSH1 0x20 ADD PUSH1 0x0 PUSH2 0xFFFF AND DUP2 MSTORE POP SWAP1 JUMP JUMPDEST PUSH1 0x40 MLOAD DUP1 PUSH1 0xA0 ADD PUSH1 0x40 MSTORE DUP1 PUSH1 0x0 PUSH1 0xFF AND DUP2 MSTORE PUSH1 0x20 ADD PUSH1 0x0 DUP2 MSTORE PUSH1 0x20 ADD PUSH1 0x0 DUP2 MSTORE PUSH1 0x20 ADD PUSH1 0x0 DUP2 MSTORE PUSH1 0x20 ADD PUSH1 0x0 DUP2 MSTORE POP SWAP1 JUMP JUMPDEST PUSH1 0x0 DUP2 CALLDATALOAD SWAP1 POP PUSH2 0x19B4 DUP2 PUSH2 0x279E JUMP JUMPDEST SWAP3 SWAP2 POP POP JUMP JUMPDEST PUSH1 0x0 DUP2 MLOAD SWAP1 POP PUSH2 0x19C9 DUP2 PUSH2 0x27B5 JUMP JUMPDEST SWAP3 SWAP2 POP POP JUMP JUMPDEST PUSH1 0x0 DUP2 CALLDATALOAD SWAP1 POP PUSH2 0x19DE DUP2 PUSH2 0x27CC JUMP JUMPDEST SWAP3 SWAP2 POP POP JUMP JUMPDEST PUSH1 0x0 DUP2 MLOAD SWAP1 POP PUSH2 0x19F3 DUP2 PUSH2 0x27CC JUMP JUMPDEST SWAP3 SWAP2 POP POP JUMP JUMPDEST PUSH1 0x0 DUP2 CALLDATALOAD SWAP1 POP PUSH2 0x1A08 DUP2 PUSH2 0x27E3 JUMP JUMPDEST SWAP3 SWAP2 POP POP JUMP JUMPDEST PUSH1 0x0 PUSH1 0x20 DUP3 DUP5 SUB SLT ISZERO PUSH2 0x1A24 JUMPI PUSH2 0x1A23 PUSH2 0x250C JUMP JUMPDEST JUMPDEST PUSH1 0x0 PUSH2 0x1A32 DUP5 DUP3 DUP6 ADD PUSH2 0x19A5 JUMP JUMPDEST SWAP2 POP POP SWAP3 SWAP2 POP POP JUMP JUMPDEST PUSH1 0x0 PUSH1 0x20 DUP3 DUP5 SUB SLT ISZERO PUSH2 0x1A51 JUMPI PUSH2 0x1A50 PUSH2 0x250C JUMP JUMPDEST JUMPDEST PUSH1 0x0 PUSH2 0x1A5F DUP5 DUP3 DUP6 ADD PUSH2 0x19BA JUMP JUMPDEST SWAP2 POP POP SWAP3 SWAP2 POP POP JUMP JUMPDEST PUSH1 0x0 PUSH1 0x20 DUP3 DUP5 SUB SLT ISZERO PUSH2 0x1A7E JUMPI PUSH2 0x1A7D PUSH2 0x250C JUMP JUMPDEST JUMPDEST PUSH1 0x0 PUSH2 0x1A8C DUP5 DUP3 DUP6 ADD PUSH2 0x19E4 JUMP JUMPDEST SWAP2 POP POP SWAP3 SWAP2 POP POP JUMP JUMPDEST PUSH1 0x0 PUSH1 0x20 DUP3 DUP5 SUB SLT ISZERO PUSH2 0x1AAB JUMPI PUSH2 0x1AAA PUSH2 0x250C JUMP JUMPDEST JUMPDEST PUSH1 0x0 PUSH2 0x1AB9 DUP5 DUP3 DUP6 ADD PUSH2 0x19F9 JUMP JUMPDEST SWAP2 POP POP SWAP3 SWAP2 POP POP JUMP JUMPDEST PUSH1 0x0 DUP1 PUSH1 0x40 DUP4 DUP6 SUB SLT ISZERO PUSH2 0x1AD9 JUMPI PUSH2 0x1AD8 PUSH2 0x250C JUMP JUMPDEST JUMPDEST PUSH1 0x0 PUSH2 0x1AE7 DUP6 DUP3 DUP7 ADD PUSH2 0x19F9 JUMP JUMPDEST SWAP3 POP POP PUSH1 0x20 PUSH2 0x1AF8 DUP6 DUP3 DUP7 ADD PUSH2 0x19CF JUMP JUMPDEST SWAP2 POP POP SWAP3 POP SWAP3 SWAP1 POP JUMP JUMPDEST PUSH1 0x0 DUP1 PUSH1 0x0 PUSH1 0x60 DUP5 DUP7 SUB SLT ISZERO PUSH2 0x1B1B JUMPI PUSH2 0x1B1A PUSH2 0x250C JUMP JUMPDEST JUMPDEST PUSH1 0x0 PUSH2 0x1B29 DUP7 DUP3 DUP8 ADD PUSH2 0x19F9 JUMP JUMPDEST SWAP4 POP POP PUSH1 0x20 PUSH2 0x1B3A DUP7 DUP3 DUP8 ADD PUSH2 0x19CF JUMP JUMPDEST SWAP3 POP POP PUSH1 0x40 PUSH2 0x1B4B DUP7 DUP3 DUP8 ADD PUSH2 0x19A5 JUMP JUMPDEST SWAP2 POP POP SWAP3 POP SWAP3 POP SWAP3 JUMP JUMPDEST PUSH1 0x0 DUP1 PUSH1 0x0 DUP1 PUSH1 0x80 DUP6 DUP8 SUB SLT ISZERO PUSH2 0x1B6F JUMPI PUSH2 0x1B6E PUSH2 0x250C JUMP JUMPDEST JUMPDEST PUSH1 0x0 PUSH2 0x1B7D DUP8 DUP3 DUP9 ADD PUSH2 0x19F9 JUMP JUMPDEST SWAP5 POP POP PUSH1 0x20 PUSH2 0x1B8E DUP8 DUP3 DUP9 ADD PUSH2 0x19CF JUMP JUMPDEST SWAP4 POP POP PUSH1 0x40 PUSH2 0x1B9F DUP8 DUP3 DUP9 ADD PUSH2 0x19CF JUMP JUMPDEST SWAP3 POP POP PUSH1 0x60 PUSH2 0x1BB0 DUP8 DUP3 DUP9 ADD PUSH2 0x19CF JUMP JUMPDEST SWAP2 POP POP SWAP3 SWAP6 SWAP2 SWAP5 POP SWAP3 POP JUMP JUMPDEST PUSH2 0x1BC5 DUP2 PUSH2 0x241C JUMP JUMPDEST DUP3 MSTORE POP POP JUMP JUMPDEST PUSH1 0x0 PUSH2 0x1BD8 PUSH1 0x10 DUP4 PUSH2 0x22F6 JUMP JUMPDEST SWAP2 POP PUSH2 0x1BE3 DUP3 PUSH2 0x2511 JUMP JUMPDEST PUSH1 0x20 DUP3 ADD SWAP1 POP SWAP2 SWAP1 POP JUMP JUMPDEST PUSH1 0x0 PUSH2 0x1BFB PUSH1 0xA DUP4 PUSH2 0x22F6 JUMP JUMPDEST SWAP2 POP PUSH2 0x1C06 DUP3 PUSH2 0x253A JUMP JUMPDEST PUSH1 0x20 DUP3 ADD SWAP1 POP SWAP2 SWAP1 POP JUMP JUMPDEST PUSH1 0x0 PUSH2 0x1C1E PUSH1 0x26 DUP4 PUSH2 0x22F6 JUMP JUMPDEST SWAP2 POP PUSH2 0x1C29 DUP3 PUSH2 0x2563 JUMP JUMPDEST PUSH1 0x40 DUP3 ADD SWAP1 POP SWAP2 SWAP1 POP JUMP JUMPDEST PUSH1 0x0 PUSH2 0x1C41 PUSH1 0xA DUP4 PUSH2 0x22F6 JUMP JUMPDEST SWAP2 POP PUSH2 0x1C4C DUP3 PUSH2 0x25B2 JUMP JUMPDEST PUSH1 0x20 DUP3 ADD SWAP1 POP SWAP2 SWAP1 POP JUMP JUMPDEST PUSH1 0x0 PUSH2 0x1C64 PUSH1 0x12 DUP4 PUSH2 0x22F6 JUMP JUMPDEST SWAP2 POP PUSH2 0x1C6F DUP3 PUSH2 0x25DB JUMP JUMPDEST PUSH1 0x20 DUP3 ADD SWAP1 POP SWAP2 SWAP1 POP JUMP JUMPDEST PUSH1 0x0 PUSH2 0x1C87 PUSH1 0x12 DUP4 PUSH2 0x22F6 JUMP JUMPDEST SWAP2 POP PUSH2 0x1C92 DUP3 PUSH2 0x2604 JUMP JUMPDEST PUSH1 0x20 DUP3 ADD SWAP1 POP SWAP2 SWAP1 POP JUMP JUMPDEST PUSH1 0x0 PUSH2 0x1CAA PUSH1 0x20 DUP4 PUSH2 0x22F6 JUMP JUMPDEST SWAP2 POP PUSH2 0x1CB5 DUP3 PUSH2 0x262D JUMP JUMPDEST PUSH1 0x20 DUP3 ADD SWAP1 POP SWAP2 SWAP1 POP JUMP JUMPDEST PUSH1 0x0 PUSH2 0x1CCD PUSH1 0xF DUP4 PUSH2 0x22F6 JUMP JUMPDEST SWAP2 POP PUSH2 0x1CD8 DUP3 PUSH2 0x2656 JUMP JUMPDEST PUSH1 0x20 DUP3 ADD SWAP1 POP SWAP2 SWAP1 POP JUMP JUMPDEST PUSH1 0x0 PUSH2 0x1CF0 PUSH1 0xE DUP4 PUSH2 0x22F6 JUMP JUMPDEST SWAP2 POP PUSH2 0x1CFB DUP3 PUSH2 0x267F JUMP JUMPDEST PUSH1 0x20 DUP3 ADD SWAP1 POP SWAP2 SWAP1 POP JUMP JUMPDEST PUSH1 0x0 PUSH2 0x1D13 PUSH1 0xF DUP4 PUSH2 0x22F6 JUMP JUMPDEST SWAP2 POP PUSH2 0x1D1E DUP3 PUSH2 0x26A8 JUMP JUMPDEST PUSH1 0x20 DUP3 ADD SWAP1 POP SWAP2 SWAP1 POP JUMP JUMPDEST PUSH1 0x0 PUSH2 0x1D36 PUSH1 0x16 DUP4 PUSH2 0x22F6 JUMP JUMPDEST SWAP2 POP PUSH2 0x1D41 DUP3 PUSH2 0x26D1 JUMP JUMPDEST PUSH1 0x20 DUP3 ADD SWAP1 POP SWAP2 SWAP1 POP JUMP JUMPDEST PUSH1 0x0 PUSH2 0x1D59 PUSH1 0x12 DUP4 PUSH2 0x22F6 JUMP JUMPDEST SWAP2 POP PUSH2 0x1D64 DUP3 PUSH2 0x26FA JUMP JUMPDEST PUSH1 0x20 DUP3 ADD SWAP1 POP SWAP2 SWAP1 POP JUMP JUMPDEST PUSH1 0x0 PUSH2 0x1D7C PUSH1 0xC DUP4 PUSH2 0x22F6 JUMP JUMPDEST SWAP2 POP PUSH2 0x1D87 DUP3 PUSH2 0x2723 JUMP JUMPDEST PUSH1 0x20 DUP3 ADD SWAP1 POP SWAP2 SWAP1 POP JUMP JUMPDEST PUSH1 0x0 PUSH2 0x1D9F PUSH1 0x14 DUP4 PUSH2 0x22F6 JUMP JUMPDEST SWAP2 POP PUSH2 0x1DAA DUP3 PUSH2 0x274C JUMP JUMPDEST PUSH1 0x20 DUP3 ADD SWAP1 POP SWAP2 SWAP1 POP JUMP JUMPDEST PUSH1 0x0 PUSH2 0x1DC2 PUSH1 0x1A DUP4 PUSH2 0x22F6 JUMP JUMPDEST SWAP2 POP PUSH2 0x1DCD DUP3 PUSH2 0x2775 JUMP JUMPDEST PUSH1 0x20 DUP3 ADD SWAP1 POP SWAP2 SWAP1 POP JUMP JUMPDEST PUSH1 0xA0 DUP3 ADD PUSH1 0x0 DUP3 ADD MLOAD PUSH2 0x1DEE PUSH1 0x0 DUP6 ADD DUP3 PUSH2 0x1F0A JUMP JUMPDEST POP PUSH1 0x20 DUP3 ADD MLOAD PUSH2 0x1E01 PUSH1 0x20 DUP6 ADD DUP3 PUSH2 0x1EEC JUMP JUMPDEST POP PUSH1 0x40 DUP3 ADD MLOAD PUSH2 0x1E14 PUSH1 0x40 DUP6 ADD DUP3 PUSH2 0x1EEC JUMP JUMPDEST POP PUSH1 0x60 DUP3 ADD MLOAD PUSH2 0x1E27 PUSH1 0x60 DUP6 ADD DUP3 PUSH2 0x1EEC JUMP JUMPDEST POP PUSH1 0x80 DUP3 ADD MLOAD PUSH2 0x1E3A PUSH1 0x80 DUP6 ADD DUP3 PUSH2 0x1EEC JUMP JUMPDEST POP POP POP POP JUMP JUMPDEST PUSH1 0xE0 DUP3 ADD PUSH1 0x0 DUP3 ADD MLOAD PUSH2 0x1E56 PUSH1 0x0 DUP6 ADD DUP3 PUSH2 0x1EEC JUMP JUMPDEST POP PUSH1 0x20 DUP3 ADD MLOAD PUSH2 0x1E69 PUSH1 0x20 DUP6 ADD DUP3 PUSH2 0x1F0A JUMP JUMPDEST POP PUSH1 0x40 DUP3 ADD MLOAD PUSH2 0x1E7C PUSH1 0x40 DUP6 ADD DUP3 PUSH2 0x1EEC JUMP JUMPDEST POP PUSH1 0x60 DUP3 ADD MLOAD PUSH2 0x1E8F PUSH1 0x60 DUP6 ADD DUP3 PUSH2 0x1EEC JUMP JUMPDEST POP PUSH1 0x80 DUP3 ADD MLOAD PUSH2 0x1EA2 PUSH1 0x80 DUP6 ADD DUP3 PUSH2 0x1EEC JUMP JUMPDEST POP PUSH1 0xA0 DUP3 ADD MLOAD PUSH2 0x1EB5 PUSH1 0xA0 DUP6 ADD DUP3 PUSH2 0x1ECE JUMP JUMPDEST POP PUSH1 0xC0 DUP3 ADD MLOAD PUSH2 0x1EC8 PUSH1 0xC0 DUP6 ADD DUP3 PUSH2 0x1ECE JUMP JUMPDEST POP POP POP POP JUMP JUMPDEST PUSH2 0x1ED7 DUP2 PUSH2 0x243A JUMP JUMPDEST DUP3 MSTORE POP POP JUMP JUMPDEST PUSH2 0x1EE6 DUP2 PUSH2 0x243A JUMP JUMPDEST DUP3 MSTORE POP POP JUMP JUMPDEST PUSH2 0x1EF5 DUP2 PUSH2 0x2468 JUMP JUMPDEST DUP3 MSTORE POP POP JUMP JUMPDEST PUSH2 0x1F04 DUP2 PUSH2 0x2468 JUMP JUMPDEST DUP3 MSTORE POP POP JUMP JUMPDEST PUSH2 0x1F13 DUP2 PUSH2 0x2472 JUMP JUMPDEST DUP3 MSTORE POP POP JUMP JUMPDEST PUSH2 0x1F22 DUP2 PUSH2 0x2472 JUMP JUMPDEST DUP3 MSTORE POP POP JUMP JUMPDEST PUSH1 0x0 PUSH1 0x20 DUP3 ADD SWAP1 POP PUSH2 0x1F3D PUSH1 0x0 DUP4 ADD DUP5 PUSH2 0x1BBC JUMP JUMPDEST SWAP3 SWAP2 POP POP JUMP JUMPDEST PUSH1 0x0 PUSH1 0x40 DUP3 ADD SWAP1 POP PUSH2 0x1F58 PUSH1 0x0 DUP4 ADD DUP6 PUSH2 0x1BBC JUMP JUMPDEST PUSH2 0x1F65 PUSH1 0x20 DUP4 ADD DUP5 PUSH2 0x1BBC JUMP JUMPDEST SWAP4 SWAP3 POP POP POP JUMP JUMPDEST PUSH1 0x0 PUSH1 0x60 DUP3 ADD SWAP1 POP PUSH2 0x1F81 PUSH1 0x0 DUP4 ADD DUP7 PUSH2 0x1BBC JUMP JUMPDEST PUSH2 0x1F8E PUSH1 0x20 DUP4 ADD DUP6 PUSH2 0x1BBC JUMP JUMPDEST PUSH2 0x1F9B PUSH1 0x40 DUP4 ADD DUP5 PUSH2 0x1EFB JUMP JUMPDEST SWAP5 SWAP4 POP POP POP POP JUMP JUMPDEST PUSH1 0x0 PUSH1 0x40 DUP3 ADD SWAP1 POP PUSH2 0x1FB8 PUSH1 0x0 DUP4 ADD DUP6 PUSH2 0x1BBC JUMP JUMPDEST PUSH2 0x1FC5 PUSH1 0x20 DUP4 ADD DUP5 PUSH2 0x1EFB JUMP JUMPDEST SWAP4 SWAP3 POP POP POP JUMP JUMPDEST PUSH1 0x0 PUSH1 0x60 DUP3 ADD SWAP1 POP PUSH2 0x1FE1 PUSH1 0x0 DUP4 ADD DUP7 PUSH2 0x1BBC JUMP JUMPDEST PUSH2 0x1FEE PUSH1 0x20 DUP4 ADD DUP6 PUSH2 0x1F19 JUMP JUMPDEST PUSH2 0x1FFB PUSH1 0x40 DUP4 ADD DUP5 PUSH2 0x1EFB JUMP JUMPDEST SWAP5 SWAP4 POP POP POP POP JUMP JUMPDEST PUSH1 0x0 PUSH1 0x20 DUP3 ADD SWAP1 POP DUP2 DUP2 SUB PUSH1 0x0 DUP4 ADD MSTORE PUSH2 0x201C DUP2 PUSH2 0x1BCB JUMP JUMPDEST SWAP1 POP SWAP2 SWAP1 POP JUMP JUMPDEST PUSH1 0x0 PUSH1 0x20 DUP3 ADD SWAP1 POP DUP2 DUP2 SUB PUSH1 0x0 DUP4 ADD MSTORE PUSH2 0x203C DUP2 PUSH2 0x1BEE JUMP JUMPDEST SWAP1 POP SWAP2 SWAP1 POP JUMP JUMPDEST PUSH1 0x0 PUSH1 0x20 DUP3 ADD SWAP1 POP DUP2 DUP2 SUB PUSH1 0x0 DUP4 ADD MSTORE PUSH2 0x205C DUP2 PUSH2 0x1C11 JUMP JUMPDEST SWAP1 POP SWAP2 SWAP1 POP JUMP JUMPDEST PUSH1 0x0 PUSH1 0x20 DUP3 ADD SWAP1 POP DUP2 DUP2 SUB PUSH1 0x0 DUP4 ADD MSTORE PUSH2 0x207C DUP2 PUSH2 0x1C34 JUMP JUMPDEST SWAP1 POP SWAP2 SWAP1 POP JUMP JUMPDEST PUSH1 0x0 PUSH1 0x20 DUP3 ADD SWAP1 POP DUP2 DUP2 SUB PUSH1 0x0 DUP4 ADD MSTORE PUSH2 0x209C DUP2 PUSH2 0x1C57 JUMP JUMPDEST SWAP1 POP SWAP2 SWAP1 POP JUMP JUMPDEST PUSH1 0x0 PUSH1 0x20 DUP3 ADD SWAP1 POP DUP2 DUP2 SUB PUSH1 0x0 DUP4 ADD MSTORE PUSH2 0x20BC DUP2 PUSH2 0x1C7A JUMP JUMPDEST SWAP1 POP SWAP2 SWAP1 POP JUMP JUMPDEST PUSH1 0x0 PUSH1 0x20 DUP3 ADD SWAP1 POP DUP2 DUP2 SUB PUSH1 0x0 DUP4 ADD MSTORE PUSH2 0x20DC DUP2 PUSH2 0x1C9D JUMP JUMPDEST SWAP1 POP SWAP2 SWAP1 POP JUMP JUMPDEST PUSH1 0x0 PUSH1 0x20 DUP3 ADD SWAP1 POP DUP2 DUP2 SUB PUSH1 0x0 DUP4 ADD MSTORE PUSH2 0x20FC DUP2 PUSH2 0x1CC0 JUMP JUMPDEST SWAP1 POP SWAP2 SWAP1 POP JUMP JUMPDEST PUSH1 0x0 PUSH1 0x20 DUP3 ADD SWAP1 POP DUP2 DUP2 SUB PUSH1 0x0 DUP4 ADD MSTORE PUSH2 0x211C DUP2 PUSH2 0x1CE3 JUMP JUMPDEST SWAP1 POP SWAP2 SWAP1 POP JUMP JUMPDEST PUSH1 0x0 PUSH1 0x20 DUP3 ADD SWAP1 POP DUP2 DUP2 SUB PUSH1 0x0 DUP4 ADD MSTORE PUSH2 0x213C DUP2 PUSH2 0x1D06 JUMP JUMPDEST SWAP1 POP SWAP2 SWAP1 POP JUMP JUMPDEST PUSH1 0x0 PUSH1 0x20 DUP3 ADD SWAP1 POP DUP2 DUP2 SUB PUSH1 0x0 DUP4 ADD MSTORE PUSH2 0x215C DUP2 PUSH2 0x1D29 JUMP JUMPDEST SWAP1 POP SWAP2 SWAP1 POP JUMP JUMPDEST PUSH1 0x0 PUSH1 0x20 DUP3 ADD SWAP1 POP DUP2 DUP2 SUB PUSH1 0x0 DUP4 ADD MSTORE PUSH2 0x217C DUP2 PUSH2 0x1D4C JUMP JUMPDEST SWAP1 POP SWAP2 SWAP1 POP JUMP JUMPDEST PUSH1 0x0 PUSH1 0x20 DUP3 ADD SWAP1 POP DUP2 DUP2 SUB PUSH1 0x0 DUP4 ADD MSTORE PUSH2 0x219C DUP2 PUSH2 0x1D6F JUMP JUMPDEST SWAP1 POP SWAP2 SWAP1 POP JUMP JUMPDEST PUSH1 0x0 PUSH1 0x20 DUP3 ADD SWAP1 POP DUP2 DUP2 SUB PUSH1 0x0 DUP4 ADD MSTORE PUSH2 0x21BC DUP2 PUSH2 0x1D92 JUMP JUMPDEST SWAP1 POP SWAP2 SWAP1 POP JUMP JUMPDEST PUSH1 0x0 PUSH1 0x20 DUP3 ADD SWAP1 POP DUP2 DUP2 SUB PUSH1 0x0 DUP4 ADD MSTORE PUSH2 0x21DC DUP2 PUSH2 0x1DB5 JUMP JUMPDEST SWAP1 POP SWAP2 SWAP1 POP JUMP JUMPDEST PUSH1 0x0 PUSH1 0xA0 DUP3 ADD SWAP1 POP PUSH2 0x21F8 PUSH1 0x0 DUP4 ADD DUP5 PUSH2 0x1DD8 JUMP JUMPDEST SWAP3 SWAP2 POP POP JUMP JUMPDEST PUSH1 0x0 PUSH1 0xE0 DUP3 ADD SWAP1 POP PUSH2 0x2213 PUSH1 0x0 DUP4 ADD DUP5 PUSH2 0x1E40 JUMP JUMPDEST SWAP3 SWAP2 POP POP JUMP JUMPDEST PUSH1 0x0 PUSH1 0x20 DUP3 ADD SWAP1 POP PUSH2 0x222E PUSH1 0x0 DUP4 ADD DUP5 PUSH2 0x1EFB JUMP JUMPDEST SWAP3 SWAP2 POP POP JUMP JUMPDEST PUSH1 0x0 PUSH1 0xE0 DUP3 ADD SWAP1 POP PUSH2 0x2249 PUSH1 0x0 DUP4 ADD DUP11 PUSH2 0x1EFB JUMP JUMPDEST PUSH2 0x2256 PUSH1 0x20 DUP4 ADD DUP10 PUSH2 0x1F19 JUMP JUMPDEST PUSH2 0x2263 PUSH1 0x40 DUP4 ADD DUP9 PUSH2 0x1EFB JUMP JUMPDEST PUSH2 0x2270 PUSH1 0x60 DUP4 ADD DUP8 PUSH2 0x1EFB JUMP JUMPDEST PUSH2 0x227D PUSH1 0x80 DUP4 ADD DUP7 PUSH2 0x1EFB JUMP JUMPDEST PUSH2 0x228A PUSH1 0xA0 DUP4 ADD DUP6 PUSH2 0x1EDD JUMP JUMPDEST PUSH2 0x2297 PUSH1 0xC0 DUP4 ADD DUP5 PUSH2 0x1EDD JUMP JUMPDEST SWAP9 SWAP8 POP POP POP POP POP POP POP POP JUMP JUMPDEST PUSH1 0x0 PUSH1 0xA0 DUP3 ADD SWAP1 POP PUSH2 0x22B8 PUSH1 0x0 DUP4 ADD DUP9 PUSH2 0x1F19 JUMP JUMPDEST PUSH2 0x22C5 PUSH1 0x20 DUP4 ADD DUP8 PUSH2 0x1EFB JUMP JUMPDEST PUSH2 0x22D2 PUSH1 0x40 DUP4 ADD DUP7 PUSH2 0x1EFB JUMP JUMPDEST PUSH2 0x22DF PUSH1 0x60 DUP4 ADD DUP6 PUSH2 0x1EFB JUMP JUMPDEST PUSH2 0x22EC PUSH1 0x80 DUP4 ADD DUP5 PUSH2 0x1EFB JUMP JUMPDEST SWAP7 SWAP6 POP POP POP POP POP POP JUMP JUMPDEST PUSH1 0x0 DUP3 DUP3 MSTORE PUSH1 0x20 DUP3 ADD SWAP1 POP SWAP3 SWAP2 POP POP JUMP JUMPDEST PUSH1 0x0 PUSH2 0x2312 DUP3 PUSH2 0x2468 JUMP JUMPDEST SWAP2 POP PUSH2 0x231D DUP4 PUSH2 0x2468 JUMP JUMPDEST SWAP3 POP DUP3 PUSH32 0xFFFFFFFFFFFFFFFFFFFFFFFFFFFFFFFFFFFFFFFFFFFFFFFFFFFFFFFFFFFFFFFF SUB DUP3 GT ISZERO PUSH2 0x2352 JUMPI PUSH2 0x2351 PUSH2 0x247F JUMP JUMPDEST JUMPDEST DUP3 DUP3 ADD SWAP1 POP SWAP3 SWAP2 POP POP JUMP JUMPDEST PUSH1 0x0 PUSH2 0x2368 DUP3 PUSH2 0x2468 JUMP JUMPDEST SWAP2 POP PUSH2 0x2373 DUP4 PUSH2 0x2468 JUMP JUMPDEST SWAP3 POP DUP3 PUSH2 0x2383 JUMPI PUSH2 0x2382 PUSH2 0x24AE JUMP JUMPDEST JUMPDEST DUP3 DUP3 DIV SWAP1 POP SWAP3 SWAP2 POP POP JUMP JUMPDEST PUSH1 0x0 PUSH2 0x2399 DUP3 PUSH2 0x2468 JUMP JUMPDEST SWAP2 POP PUSH2 0x23A4 DUP4 PUSH2 0x2468 JUMP JUMPDEST SWAP3 POP DUP2 PUSH32 0xFFFFFFFFFFFFFFFFFFFFFFFFFFFFFFFFFFFFFFFFFFFFFFFFFFFFFFFFFFFFFFFF DIV DUP4 GT DUP3 ISZERO ISZERO AND ISZERO PUSH2 0x23DD JUMPI PUSH2 0x23DC PUSH2 0x247F JUMP JUMPDEST JUMPDEST DUP3 DUP3 MUL SWAP1 POP SWAP3 SWAP2 POP POP JUMP JUMPDEST PUSH1 0x0 PUSH2 0x23F3 DUP3 PUSH2 0x2468 JUMP JUMPDEST SWAP2 POP PUSH2 0x23FE DUP4 PUSH2 0x2468 JUMP JUMPDEST SWAP3 POP DUP3 DUP3 LT ISZERO PUSH2 0x2411 JUMPI PUSH2 0x2410 PUSH2 0x247F JUMP JUMPDEST JUMPDEST DUP3 DUP3 SUB SWAP1 POP SWAP3 SWAP2 POP POP JUMP JUMPDEST PUSH1 0x0 PUSH2 0x2427 DUP3 PUSH2 0x2448 JUMP JUMPDEST SWAP1 POP SWAP2 SWAP1 POP JUMP JUMPDEST PUSH1 0x0 DUP2 ISZERO ISZERO SWAP1 POP SWAP2 SWAP1 POP JUMP JUMPDEST PUSH1 0x0 PUSH2 0xFFFF DUP3 AND SWAP1 POP SWAP2 SWAP1 POP JUMP JUMPDEST PUSH1 0x0 PUSH20 0xFFFFFFFFFFFFFFFFFFFFFFFFFFFFFFFFFFFFFFFF DUP3 AND SWAP1 POP SWAP2 SWAP1 POP JUMP JUMPDEST PUSH1 0x0 DUP2 SWAP1 POP SWAP2 SWAP1 POP JUMP JUMPDEST PUSH1 0x0 PUSH1 0xFF DUP3 AND SWAP1 POP SWAP2 SWAP1 POP JUMP JUMPDEST PUSH32 0x4E487B7100000000000000000000000000000000000000000000000000000000 PUSH1 0x0 MSTORE PUSH1 0x11 PUSH1 0x4 MSTORE PUSH1 0x24 PUSH1 0x0 REVERT JUMPDEST PUSH32 0x4E487B7100000000000000000000000000000000000000000000000000000000 PUSH1 0x0 MSTORE PUSH1 0x12 PUSH1 0x4 MSTORE PUSH1 0x24 PUSH1 0x0 REVERT JUMPDEST PUSH32 0x4E487B7100000000000000000000000000000000000000000000000000000000 PUSH1 0x0 MSTORE PUSH1 0x21 PUSH1 0x4 MSTORE PUSH1 0x24 PUSH1 0x0 REVERT JUMPDEST PUSH1 0x0 DUP1 REVERT JUMPDEST PUSH32 0x73686F756C642062652066757475726500000000000000000000000000000000 PUSH1 0x0 DUP3 ADD MSTORE POP JUMP JUMPDEST PUSH32 0x6E6F2076657374696E6700000000000000000000000000000000000000000000 PUSH1 0x0 DUP3 ADD MSTORE POP JUMP JUMPDEST PUSH32 0x4F776E61626C653A206E6577206F776E657220697320746865207A65726F2061 PUSH1 0x0 DUP3 ADD MSTORE PUSH32 0x6464726573730000000000000000000000000000000000000000000000000000 PUSH1 0x20 DUP3 ADD MSTORE POP JUMP JUMPDEST PUSH32 0x6E6F2062616C616E636500000000000000000000000000000000000000000000 PUSH1 0x0 DUP3 ADD MSTORE POP JUMP JUMPDEST PUSH32 0x6E6F7420656E6F7567682062616C616E63650000000000000000000000000000 PUSH1 0x0 DUP3 ADD MSTORE POP JUMP JUMPDEST PUSH32 0x6F76657220746F74616C2062616C616E63650000000000000000000000000000 PUSH1 0x0 DUP3 ADD MSTORE POP JUMP JUMPDEST PUSH32 0x4F776E61626C653A2063616C6C6572206973206E6F7420746865206F776E6572 PUSH1 0x0 DUP3 ADD MSTORE POP JUMP JUMPDEST PUSH32 0x6E6F742073746172746564207965740000000000000000000000000000000000 PUSH1 0x0 DUP3 ADD MSTORE POP JUMP JUMPDEST PUSH32 0x6E6F206473742061646472657373000000000000000000000000000000000000 PUSH1 0x0 DUP3 ADD MSTORE POP JUMP JUMPDEST PUSH32 0x6E6F206163636F756E7420696E666F0000000000000000000000000000000000 PUSH1 0x0 DUP3 ADD MSTORE POP JUMP JUMPDEST PUSH32 0x616C7265616479207365742073746172742074696D6500000000000000000000 PUSH1 0x0 DUP3 ADD MSTORE POP JUMP JUMPDEST PUSH32 0x77726F6E672076657374696E6720747970650000000000000000000000000000 PUSH1 0x0 DUP3 ADD MSTORE POP JUMP JUMPDEST PUSH32 0x6E65656420617070726F76650000000000000000000000000000000000000000 PUSH1 0x0 DUP3 ADD MSTORE POP JUMP JUMPDEST PUSH32 0x616C726561792061646465642061646472657373000000000000000000000000 PUSH1 0x0 DUP3 ADD MSTORE POP JUMP JUMPDEST PUSH32 0x6F766572206163636F756E7420746F74616C2062616C616E6365000000000000 PUSH1 0x0 DUP3 ADD MSTORE POP JUMP JUMPDEST PUSH2 0x27A7 DUP2 PUSH2 0x241C JUMP JUMPDEST DUP2 EQ PUSH2 0x27B2 JUMPI PUSH1 0x0 DUP1 REVERT JUMPDEST POP JUMP JUMPDEST PUSH2 0x27BE DUP2 PUSH2 0x242E JUMP JUMPDEST DUP2 EQ PUSH2 0x27C9 JUMPI PUSH1 0x0 DUP1 REVERT JUMPDEST POP JUMP JUMPDEST PUSH2 0x27D5 DUP2 PUSH2 0x2468 JUMP JUMPDEST DUP2 EQ PUSH2 0x27E0 JUMPI PUSH1 0x0 DUP1 REVERT JUMPDEST POP JUMP JUMPDEST PUSH2 0x27EC DUP2 PUSH2 0x2472 JUMP JUMPDEST DUP2 EQ PUSH2 0x27F7 JUMPI PUSH1 0x0 DUP1 REVERT JUMPDEST POP JUMP INVALID LOG2 PUSH5 0x6970667358 0x22 SLT KECCAK256 DUP2 0xDD SWAP13 PUSH11 0xC7DF9EEE0987CBE5E8510F 0xDC 0xB8 0xB0 0x1F 0xC3 0xDA CALLCODE CHAINID 0xF8 AND 0xA9 DUP3 SWAP3 0xD6 PUSH7 0xDCF964736F6C63 NUMBER STOP ADDMOD SMOD STOP CALLER "
				},
				"gasEstimates": {
					"creation": {
						"codeDepositCost": "2057600",
						"executionCost": "infinite",
						"totalCost": "infinite"
					},
					"external": {
						"_getClaimableBalance(uint8,uint256,uint256,uint256)": "infinite",
						"add(uint8,uint256,address)": "infinite",
						"claim()": "infinite",
						"dstAddress()": "2558",
						"getClaimableBalance(address)": "infinite",
						"getVestingAccountInfo(address)": "infinite",
						"getVestingInfo(uint8)": "infinite",
						"owner()": "2589",
						"renounceOwnership()": "30443",
						"setDSTAddress(address)": "infinite",
						"setStartTime(uint8,uint256)": "27382",
						"transferOwnership(address)": "30835",
						"vestingAccountInfos(address)": "infinite",
						"vestingInfos(uint8)": "infinite"
					}
				},
				"methodIdentifiers": {
					"_getClaimableBalance(uint8,uint256,uint256,uint256)": "6a2226ec",
					"add(uint8,uint256,address)": "44957cf3",
					"claim()": "4e71d92d",
					"dstAddress()": "e4c255d5",
					"getClaimableBalance(address)": "06def802",
					"getVestingAccountInfo(address)": "35cb5a33",
					"getVestingInfo(uint8)": "08c0fc89",
					"owner()": "8da5cb5b",
					"renounceOwnership()": "715018a6",
					"setDSTAddress(address)": "ef409991",
					"setStartTime(uint8,uint256)": "43a1696c",
					"transferOwnership(address)": "f2fde38b",
					"vestingAccountInfos(address)": "6f522095",
					"vestingInfos(uint8)": "938e3af3"
				}
			},
			"storageLayout": {
				"storage": [
					{
						"astId": 104,
						"contract": "VestingFlatten.sol:Vesting",
						"label": "_owner",
						"offset": 0,
						"slot": "0",
						"type": "t_address"
					},
					{
						"astId": 235,
						"contract": "VestingFlatten.sol:Vesting",
						"label": "dstAddress",
						"offset": 0,
						"slot": "1",
						"type": "t_address"
					},
					{
						"astId": 266,
						"contract": "VestingFlatten.sol:Vesting",
						"label": "vestingInfos",
						"offset": 0,
						"slot": "2",
						"type": "t_mapping(t_uint8,t_struct(VestingInfo)250_storage)"
					},
					{
						"astId": 271,
						"contract": "VestingFlatten.sol:Vesting",
						"label": "vestingAccountInfos",
						"offset": 0,
						"slot": "3",
						"type": "t_mapping(t_address,t_struct(VestingAccountInfo)261_storage)"
					}
				],
				"types": {
					"t_address": {
						"encoding": "inplace",
						"label": "address",
						"numberOfBytes": "20"
					},
					"t_mapping(t_address,t_struct(VestingAccountInfo)261_storage)": {
						"encoding": "mapping",
						"key": "t_address",
						"label": "mapping(address => struct Vesting.VestingAccountInfo)",
						"numberOfBytes": "32",
						"value": "t_struct(VestingAccountInfo)261_storage"
					},
					"t_mapping(t_uint8,t_struct(VestingInfo)250_storage)": {
						"encoding": "mapping",
						"key": "t_uint8",
						"label": "mapping(uint8 => struct Vesting.VestingInfo)",
						"numberOfBytes": "32",
						"value": "t_struct(VestingInfo)250_storage"
					},
					"t_struct(VestingAccountInfo)261_storage": {
						"encoding": "inplace",
						"label": "struct Vesting.VestingAccountInfo",
						"members": [
							{
								"astId": 252,
								"contract": "VestingFlatten.sol:Vesting",
								"label": "vestingType",
								"offset": 0,
								"slot": "0",
								"type": "t_uint8"
							},
							{
								"astId": 254,
								"contract": "VestingFlatten.sol:Vesting",
								"label": "totalBalance",
								"offset": 0,
								"slot": "1",
								"type": "t_uint256"
							},
							{
								"astId": 256,
								"contract": "VestingFlatten.sol:Vesting",
								"label": "claimedBalance",
								"offset": 0,
								"slot": "2",
								"type": "t_uint256"
							},
							{
								"astId": 258,
								"contract": "VestingFlatten.sol:Vesting",
								"label": "createdTime",
								"offset": 0,
								"slot": "3",
								"type": "t_uint256"
							},
							{
								"astId": 260,
								"contract": "VestingFlatten.sol:Vesting",
								"label": "lastClaimedTime",
								"offset": 0,
								"slot": "4",
								"type": "t_uint256"
							}
						],
						"numberOfBytes": "160"
					},
					"t_struct(VestingInfo)250_storage": {
						"encoding": "inplace",
						"label": "struct Vesting.VestingInfo",
						"members": [
							{
								"astId": 237,
								"contract": "VestingFlatten.sol:Vesting",
								"label": "startTime",
								"offset": 0,
								"slot": "0",
								"type": "t_uint256"
							},
							{
								"astId": 239,
								"contract": "VestingFlatten.sol:Vesting",
								"label": "vestingStartMonth",
								"offset": 0,
								"slot": "1",
								"type": "t_uint8"
							},
							{
								"astId": 241,
								"contract": "VestingFlatten.sol:Vesting",
								"label": "totalBalance",
								"offset": 0,
								"slot": "2",
								"type": "t_uint256"
							},
							{
								"astId": 243,
								"contract": "VestingFlatten.sol:Vesting",
								"label": "addedBalance",
								"offset": 0,
								"slot": "3",
								"type": "t_uint256"
							},
							{
								"astId": 245,
								"contract": "VestingFlatten.sol:Vesting",
								"label": "claimedBalance",
								"offset": 0,
								"slot": "4",
								"type": "t_uint256"
							},
							{
								"astId": 247,
								"contract": "VestingFlatten.sol:Vesting",
								"label": "initialBp",
								"offset": 0,
								"slot": "5",
								"type": "t_uint16"
							},
							{
								"astId": 249,
								"contract": "VestingFlatten.sol:Vesting",
								"label": "periodBp",
								"offset": 2,
								"slot": "5",
								"type": "t_uint16"
							}
						],
						"numberOfBytes": "192"
					},
					"t_uint16": {
						"encoding": "inplace",
						"label": "uint16",
						"numberOfBytes": "2"
					},
					"t_uint256": {
						"encoding": "inplace",
						"label": "uint256",
						"numberOfBytes": "32"
					},
					"t_uint8": {
						"encoding": "inplace",
						"label": "uint8",
						"numberOfBytes": "1"
					}
				}
			},
			"userdoc": {
				"kind": "user",
				"methods": {},
				"version": 1
			}
		}
	}
}